{
  "address": "0x70CfdDb5713dE3Ff1223D42afF0b27b4a0B925E7",
  "abi": [
    {
      "inputs": [
        {
          "internalType": "address",
          "name": "_lpToken",
          "type": "address"
        },
        {
          "internalType": "address[3]",
          "name": "_tokens",
          "type": "address[3]"
        },
        {
          "internalType": "address[3]",
          "name": "_oracles",
          "type": "address[3]"
        }
      ],
      "stateMutability": "nonpayable",
      "type": "constructor"
    },
    {
      "inputs": [],
      "name": "NEGATIVE_PRICE",
      "type": "error"
    },
    {
      "inputs": [
        {
          "internalType": "uint256[3]",
          "name": "amounts",
          "type": "uint256[3]"
        },
        {
          "internalType": "uint256",
          "name": "",
          "type": "uint256"
        }
      ],
      "name": "add_liquidity",
      "outputs": [],
      "stateMutability": "nonpayable",
      "type": "function"
    },
    {
      "inputs": [
        {
          "internalType": "uint256",
          "name": "",
          "type": "uint256"
        }
      ],
      "name": "decimals",
      "outputs": [
        {
          "internalType": "uint256",
          "name": "",
          "type": "uint256"
        }
      ],
      "stateMutability": "view",
      "type": "function"
    },
    {
      "inputs": [
        {
          "internalType": "int128",
          "name": "from",
          "type": "int128"
        },
        {
          "internalType": "int128",
          "name": "to",
          "type": "int128"
        },
        {
          "internalType": "uint256",
          "name": "_from_amount",
          "type": "uint256"
        },
        {
          "internalType": "uint256",
          "name": "",
          "type": "uint256"
        }
      ],
      "name": "exchange",
      "outputs": [],
      "stateMutability": "nonpayable",
      "type": "function"
    },
    {
      "inputs": [],
      "name": "lpToken",
      "outputs": [
        {
          "internalType": "address",
          "name": "",
          "type": "address"
        }
      ],
      "stateMutability": "view",
      "type": "function"
    },
    {
      "inputs": [],
      "name": "lp_price",
      "outputs": [
        {
          "internalType": "uint256",
          "name": "",
          "type": "uint256"
        }
      ],
      "stateMutability": "view",
      "type": "function"
    },
    {
      "inputs": [
        {
          "internalType": "uint256",
          "name": "",
          "type": "uint256"
        }
      ],
      "name": "oracles",
      "outputs": [
        {
          "internalType": "address",
          "name": "",
          "type": "address"
        }
      ],
      "stateMutability": "view",
      "type": "function"
    },
    {
      "inputs": [
        {
          "internalType": "uint256",
          "name": "",
          "type": "uint256"
        }
      ],
      "name": "quantities",
      "outputs": [
        {
          "internalType": "uint256",
          "name": "",
          "type": "uint256"
        }
      ],
      "stateMutability": "view",
      "type": "function"
    },
    {
      "inputs": [
        {
          "internalType": "uint256",
          "name": "token_amount",
          "type": "uint256"
        },
        {
          "internalType": "uint256",
          "name": "index",
          "type": "uint256"
        },
        {
          "internalType": "uint256",
          "name": "",
          "type": "uint256"
        }
      ],
      "name": "remove_liquidity_one_coin",
      "outputs": [],
      "stateMutability": "nonpayable",
      "type": "function"
    },
    {
      "inputs": [
        {
          "internalType": "uint256",
          "name": "",
          "type": "uint256"
        }
      ],
      "name": "tokens",
      "outputs": [
        {
          "internalType": "address",
          "name": "",
          "type": "address"
        }
      ],
      "stateMutability": "view",
      "type": "function"
    }
  ],
  "transactionHash": "0x6dc41387ffd698b5ed6d73825809b08a5fa55a516d85a8a97798b342145f945a",
  "args": [
    "0x6eCbC70B8f4bdea962EaDCeCdE907d15bBfa06D1",
    [
      "0x4AAde0A1a56840fF81C23AA4798F6a452DAE55a0",
      "0x4CaE689eF70afeD69A8ff27E78fe11839d3A3243",
      "0x584188CA3F987528514900A41e65f02B2E05707d"
    ],
    [
      "0xb1Ac85E779d05C2901812d812210F6dE144b2df0",
      "0x0c9973e7a27d00e656B9f153348dA46CaD70d03d",
      "0x5f0423B1a6935dc5596e7A24d98532b67A0AeFd8"
    ]
  ],
  "numDeployments": 1,
  "solcInputHash": "096e6e2012b94acf1067f12eaf343bec",
  "bytecode": "0x60806040523480156200001157600080fd5b50604051620010da380380620010da8339810160408190526200003491620001fa565b620000436000836003620000aa565b506200005260038281620000aa565b5060408051606081018252600680825260086020830152601292820192909252620000809190600362000107565b5050600c80546001600160a01b0319166001600160a01b0393909316929092179091555062000246565b8260038101928215620000f5579160200282015b82811115620000f557825182546001600160a01b0319166001600160a01b03909116178255602090920191600190910190620000be565b50620001039291506200013d565b5090565b8260038101928215620000f5579160200282015b82811115620000f5578251829060ff169055916020019190600101906200011b565b5b808211156200010357600081556001016200013e565b80516001600160a01b03811681146200016c57600080fd5b919050565b600082601f8301126200018357600080fd5b604051606081016001600160401b0381118282101715620001b457634e487b7160e01b600052604160045260246000fd5b604052806060840185811115620001ca57600080fd5b845b81811015620001ef57620001e08162000154565b835260209283019201620001cc565b509195945050505050565b600080600060e084860312156200021057600080fd5b6200021b8462000154565b92506200022c856020860162000171565b91506200023d856080860162000171565b90509250925092565b610e8480620002566000396000f3fe608060405234801561001057600080fd5b50600436106100935760003560e01c806354f0f7d51161006657806354f0f7d5146101115780635b69a7d8146101195780635fcbd2851461012c578063a41254031461013f578063f1dc3cc91461015257600080fd5b80633df02124146100985780633f47e662146100ad5780634515cef3146100d35780634f64b2be146100e6575b600080fd5b6100ab6100a6366004610b69565b610165565b005b6100c06100bb366004610bab565b61042a565b6040519081526020015b60405180910390f35b6100ab6100e1366004610bc4565b610441565b6100f96100f4366004610bab565b6106f6565b6040516001600160a01b0390911681526020016100ca565b6100c0610716565b6100f9610127366004610bab565b61089e565b600c546100f9906001600160a01b031681565b6100c061014d366004610bab565b6108ae565b6100ab610160366004610bf2565b6108be565b6fffffffffffffffffffffffffffffffff808516908416600080836003811061019057610190610c1e565b0160009054906101000a90046001600160a01b03166001600160a01b031663313ce5676040518163ffffffff1660e01b8152600401602060405180830381865afa1580156101e2573d6000803e3d6000fd5b505050506040513d601f19601f820116820180604052508101906102069190610c34565b9050600080836003811061021c5761021c610c1e565b0160009054906101000a90046001600160a01b03166001600160a01b031663313ce5676040518163ffffffff1660e01b8152600401602060405180830381865afa15801561026e573d6000803e3d6000fd5b505050506040513d601f19601f820116820180604052508101906102929190610c34565b9050600084600381106102a7576102a7610c1e565b01546040516323b872dd60e01b8152336004820152306024820152604481018890526001600160a01b03909116906323b872dd906064016020604051808303816000875af11580156102fd573d6000803e3d6000fd5b505050506040513d601f19601f820116820180604052508101906103219190610c57565b50600061039561033283600a610d73565b6103586000886003811061034857610348610c1e565b01546001600160a01b0316610a0c565b6103629190610d82565b61036d85600a610d73565b6103836000886003811061034857610348610c1e565b61038d9190610d82565b899190610a9f565b9050600084600381106103aa576103aa610c1e565b015460405163a9059cbb60e01b8152336004820152602481018390526001600160a01b039091169063a9059cbb906044016020604051808303816000875af11580156103fa573d6000803e3d6000fd5b505050506040513d601f19601f8201168201806040525081019061041e9190610c57565b50505050505050505050565b6006816003811061043a57600080fd5b0154905081565b60036000805b8281101561066b57600085826003811061046357610463610c1e565b6020020135111561065b576000816003811061048157610481610c1e565b01546001600160a01b03166323b872dd33308885600381106104a5576104a5610c1e565b6040516001600160e01b031960e087901b1681526001600160a01b039485166004820152939092166024840152602091909102013560448201526064016020604051808303816000875af1158015610501573d6000803e3d6000fd5b505050506040513d601f19601f820116820180604052508101906105259190610c57565b5084816003811061053857610538610c1e565b60200201356009826003811061055057610550610c1e565b0160008282546105609190610da1565b909155506000905080826003811061057a5761057a610c1e565b0160009054906101000a90046001600160a01b03166001600160a01b031663313ce5676040518163ffffffff1660e01b8152600401602060405180830381865afa1580156105cc573d6000803e3d6000fd5b505050506040513d601f19601f820116820180604052508101906105f09190610c34565b6105fb90600a610d73565b86836003811061060d5761060d610c1e565b60200201356106286003856003811061034857610348610c1e565b610637906402540be400610d82565b6106419190610d82565b61064b9190610db9565b90506106578184610da1565b9250505b61066481610ddb565b9050610447565b50600061068a670de0b6b3a7640000610682610716565b849190610a9f565b600c546040516340c10f1960e01b8152336004820152602481018390529192506001600160a01b0316906340c10f1990604401600060405180830381600087803b1580156106d757600080fd5b505af11580156106eb573d6000803e3d6000fd5b505050505050505050565b6000816003811061070657600080fd5b01546001600160a01b0316905081565b600080600c60009054906101000a90046001600160a01b03166001600160a01b03166318160ddd6040518163ffffffff1660e01b8152600401602060405180830381865afa15801561076c573d6000803e3d6000fd5b505050506040513d601f19601f820116820180604052508101906107909190610df4565b9050801561088f576000620f424060098201546107af60036000610348565b6107be906402540be400610d82565b6107c89190610d82565b6107d29190610db9565b905060006305f5e1006009600101546107ed60036001610348565b6107fc906402540be400610d82565b6108069190610d82565b6108109190610db9565b90506000670de0b6b3a764000060096002015461082f60036002610348565b61083e906402540be400610d82565b6108489190610d82565b6108529190610db9565b905083816108608486610da1565b61086a9190610da1565b61087c90670de0b6b3a7640000610d82565b6108869190610db9565b94505050505090565b670de0b6b3a764000091505090565b6003816003811061070657600080fd5b6009816003811061043a57600080fd5b600c5460405163079cc67960e41b8152336004820152602481018590526001600160a01b03909116906379cc679090604401600060405180830381600087803b15801561090a57600080fd5b505af115801561091e573d6000803e3d6000fd5b505050506000670de0b6b3a7640000610935610716565b61093f9086610d82565b6109499190610db9565b905060006109636003856003811061034857610348610c1e565b610971836305f5e100610d82565b61097b9190610db9565b90506000846003811061099057610990610c1e565b015460405163a9059cbb60e01b8152336004820152602481018390526001600160a01b039091169063a9059cbb906044016020604051808303816000875af11580156109e0573d6000803e3d6000fd5b505050506040513d601f19601f82011682018060405250810190610a049190610c57565b505050505050565b600080826001600160a01b031663feaf968c6040518163ffffffff1660e01b815260040160a060405180830381865afa158015610a4d573d6000803e3d6000fd5b505050506040513d601f19601f82011682018060405250810190610a719190610e27565b5050509150506000811215610a995760405163b6cc0ca160e01b815260040160405180910390fd5b92915050565b6000808060001985870985870292508281108382030391505080600003610ad85760008411610acd57600080fd5b508290049050610b4b565b808411610ae457600080fd5b6000848688096000868103871696879004966002600389028118808a02820302808a02820302808a02820302808a02820302808a02820302808a02909103029181900381900460010186841190950394909402919094039290920491909117919091029150505b9392505050565b8035600f81900b8114610b6457600080fd5b919050565b60008060008060808587031215610b7f57600080fd5b610b8885610b52565b9350610b9660208601610b52565b93969395505050506040820135916060013590565b600060208284031215610bbd57600080fd5b5035919050565b60008060808385031215610bd757600080fd5b6060830184811115610be857600080fd5b9294923593505050565b600080600060608486031215610c0757600080fd5b505081359360208301359350604090920135919050565b634e487b7160e01b600052603260045260246000fd5b600060208284031215610c4657600080fd5b815160ff81168114610b4b57600080fd5b600060208284031215610c6957600080fd5b81518015158114610b4b57600080fd5b634e487b7160e01b600052601160045260246000fd5b600181815b80851115610cca578160001904821115610cb057610cb0610c79565b80851615610cbd57918102915b93841c9390800290610c94565b509250929050565b600082610ce157506001610a99565b81610cee57506000610a99565b8160018114610d045760028114610d0e57610d2a565b6001915050610a99565b60ff841115610d1f57610d1f610c79565b50506001821b610a99565b5060208310610133831016604e8410600b8410161715610d4d575081810a610a99565b610d578383610c8f565b8060001904821115610d6b57610d6b610c79565b029392505050565b6000610b4b60ff841683610cd2565b6000816000190483118215151615610d9c57610d9c610c79565b500290565b60008219821115610db457610db4610c79565b500190565b600082610dd657634e487b7160e01b600052601260045260246000fd5b500490565b600060018201610ded57610ded610c79565b5060010190565b600060208284031215610e0657600080fd5b5051919050565b805169ffffffffffffffffffff81168114610b6457600080fd5b600080600080600060a08688031215610e3f57600080fd5b610e4886610e0d565b9450602086015193506040860151925060608601519150610e6b60808701610e0d565b9050929550929590935056fea164736f6c634300080d000a",
  "devdoc": {
    "kind": "dev",
    "methods": {},
    "version": 1
  },
  "userdoc": {
    "kind": "user",
    "methods": {},
    "version": 1
  },
  "storageLayout": {
    "storage": [
      {
        "astId": 29114,
        "contract": "contracts/test/curve-mocks/StableSwapMock.sol:StableSwapMock",
        "label": "tokens",
        "offset": 0,
        "slot": "0",
        "type": "t_array(t_address)3_storage"
      },
      {
        "astId": 29118,
        "contract": "contracts/test/curve-mocks/StableSwapMock.sol:StableSwapMock",
        "label": "oracles",
        "offset": 0,
        "slot": "3",
        "type": "t_array(t_address)3_storage"
      },
      {
        "astId": 29122,
        "contract": "contracts/test/curve-mocks/StableSwapMock.sol:StableSwapMock",
        "label": "decimals",
        "offset": 0,
        "slot": "6",
        "type": "t_array(t_uint256)3_storage"
      },
      {
        "astId": 29126,
        "contract": "contracts/test/curve-mocks/StableSwapMock.sol:StableSwapMock",
        "label": "quantities",
        "offset": 0,
        "slot": "9",
        "type": "t_array(t_uint256)3_storage"
      },
      {
        "astId": 29128,
        "contract": "contracts/test/curve-mocks/StableSwapMock.sol:StableSwapMock",
        "label": "lpToken",
        "offset": 0,
        "slot": "12",
        "type": "t_address"
      }
    ],
    "types": {
      "t_address": {
        "encoding": "inplace",
        "label": "address",
        "numberOfBytes": "20"
      },
      "t_array(t_address)3_storage": {
        "base": "t_address",
        "encoding": "inplace",
        "label": "address[3]",
        "numberOfBytes": "96"
      },
      "t_array(t_uint256)3_storage": {
        "base": "t_uint256",
        "encoding": "inplace",
        "label": "uint256[3]",
        "numberOfBytes": "96"
      },
      "t_uint256": {
        "encoding": "inplace",
        "label": "uint256",
        "numberOfBytes": "32"
      }
    }
  }
}