{
  "address": "0x2fd34731401C54c962fd82a336587a0350286B63",
  "abi": [
    {
      "inputs": [],
      "name": "GSM_CALLER_NOT_VAULT",
      "type": "error"
    },
    {
      "inputs": [],
      "name": "GSM_INVALID_SETTER_VALUES",
      "type": "error"
    },
    {
      "inputs": [],
      "name": "GSM_INVALID_SET_FEE_RECEIPIENT",
      "type": "error"
    },
    {
      "inputs": [],
      "name": "GSM_INVALID_SET_VAULT",
      "type": "error"
    },
    {
      "inputs": [],
      "name": "ZeroShares",
      "type": "error"
    },
    {
      "anonymous": false,
      "inputs": [
        {
          "indexed": true,
          "internalType": "address",
          "name": "owner",
          "type": "address"
        },
        {
          "indexed": true,
          "internalType": "address",
          "name": "spender",
          "type": "address"
        },
        {
          "indexed": false,
          "internalType": "uint256",
          "name": "value",
          "type": "uint256"
        }
      ],
      "name": "Approval",
      "type": "event"
    },
    {
      "anonymous": false,
      "inputs": [
        {
          "indexed": true,
          "internalType": "address",
          "name": "caller",
          "type": "address"
        },
        {
          "indexed": true,
          "internalType": "address",
          "name": "owner",
          "type": "address"
        },
        {
          "indexed": false,
          "internalType": "uint256",
          "name": "assets",
          "type": "uint256"
        },
        {
          "indexed": false,
          "internalType": "uint256",
          "name": "shares",
          "type": "uint256"
        }
      ],
      "name": "Deposit",
      "type": "event"
    },
    {
      "anonymous": false,
      "inputs": [
        {
          "indexed": false,
          "internalType": "address",
          "name": "feeRecipient",
          "type": "address"
        }
      ],
      "name": "FeeRecipientUpdated",
      "type": "event"
    },
    {
      "anonymous": false,
      "inputs": [
        {
          "indexed": false,
          "internalType": "uint256",
          "name": "vaule",
          "type": "uint256"
        }
      ],
      "name": "FeesWithdrawn",
      "type": "event"
    },
    {
      "anonymous": false,
      "inputs": [
        {
          "indexed": false,
          "internalType": "uint256",
          "name": "newFee",
          "type": "uint256"
        },
        {
          "indexed": false,
          "internalType": "uint256",
          "name": "wethThreshold",
          "type": "uint256"
        },
        {
          "indexed": false,
          "internalType": "uint256",
          "name": "slippageThreshold",
          "type": "uint256"
        },
        {
          "indexed": false,
          "internalType": "address",
          "name": "batchingManager",
          "type": "address"
        }
      ],
      "name": "GmxParamsUpdated",
      "type": "event"
    },
    {
      "anonymous": false,
      "inputs": [
        {
          "indexed": false,
          "internalType": "uint8",
          "name": "version",
          "type": "uint8"
        }
      ],
      "name": "Initialized",
      "type": "event"
    },
    {
      "anonymous": false,
      "inputs": [
        {
          "indexed": true,
          "internalType": "address",
          "name": "previousOwner",
          "type": "address"
        },
        {
          "indexed": true,
          "internalType": "address",
          "name": "newOwner",
          "type": "address"
        }
      ],
      "name": "OwnershipTransferred",
      "type": "event"
    },
    {
      "anonymous": false,
      "inputs": [
        {
          "indexed": true,
          "internalType": "address",
          "name": "token",
          "type": "address"
        },
        {
          "indexed": false,
          "internalType": "uint256",
          "name": "_sGLPQuantity",
          "type": "uint256"
        },
        {
          "indexed": true,
          "internalType": "address",
          "name": "receiver",
          "type": "address"
        }
      ],
      "name": "TokenRedeemded",
      "type": "event"
    },
    {
      "anonymous": false,
      "inputs": [
        {
          "indexed": true,
          "internalType": "address",
          "name": "token",
          "type": "address"
        },
        {
          "indexed": false,
          "internalType": "uint256",
          "name": "shares",
          "type": "uint256"
        },
        {
          "indexed": true,
          "internalType": "address",
          "name": "receiver",
          "type": "address"
        }
      ],
      "name": "TokenWithdrawn",
      "type": "event"
    },
    {
      "anonymous": false,
      "inputs": [
        {
          "indexed": true,
          "internalType": "address",
          "name": "from",
          "type": "address"
        },
        {
          "indexed": true,
          "internalType": "address",
          "name": "to",
          "type": "address"
        },
        {
          "indexed": false,
          "internalType": "uint256",
          "name": "value",
          "type": "uint256"
        }
      ],
      "name": "Transfer",
      "type": "event"
    },
    {
      "anonymous": false,
      "inputs": [
        {
          "indexed": false,
          "internalType": "address",
          "name": "vaultAddress",
          "type": "address"
        },
        {
          "indexed": false,
          "internalType": "bool",
          "name": "isVault",
          "type": "bool"
        }
      ],
      "name": "VaultUpdated",
      "type": "event"
    },
    {
      "anonymous": false,
      "inputs": [
        {
          "indexed": true,
          "internalType": "address",
          "name": "caller",
          "type": "address"
        },
        {
          "indexed": true,
          "internalType": "address",
          "name": "receiver",
          "type": "address"
        },
        {
          "indexed": true,
          "internalType": "address",
          "name": "owner",
          "type": "address"
        },
        {
          "indexed": false,
          "internalType": "uint256",
          "name": "assets",
          "type": "uint256"
        },
        {
          "indexed": false,
          "internalType": "uint256",
          "name": "shares",
          "type": "uint256"
        }
      ],
      "name": "Withdraw",
      "type": "event"
    },
    {
      "inputs": [],
      "name": "FEE",
      "outputs": [
        {
          "internalType": "uint256",
          "name": "",
          "type": "uint256"
        }
      ],
      "stateMutability": "view",
      "type": "function"
    },
    {
      "inputs": [],
      "name": "MAX_BPS",
      "outputs": [
        {
          "internalType": "uint256",
          "name": "",
          "type": "uint256"
        }
      ],
      "stateMutability": "view",
      "type": "function"
    },
    {
      "inputs": [],
      "name": "PRICE_PRECISION",
      "outputs": [
        {
          "internalType": "uint256",
          "name": "",
          "type": "uint256"
        }
      ],
      "stateMutability": "view",
      "type": "function"
    },
    {
      "inputs": [],
      "name": "USDG_DECIMALS",
      "outputs": [
        {
          "internalType": "uint256",
          "name": "",
          "type": "uint256"
        }
      ],
      "stateMutability": "view",
      "type": "function"
    },
    {
      "inputs": [],
      "name": "WETH_DECIMALS",
      "outputs": [
        {
          "internalType": "uint256",
          "name": "",
          "type": "uint256"
        }
      ],
      "stateMutability": "view",
      "type": "function"
    },
    {
      "inputs": [
        {
          "internalType": "address",
          "name": "owner",
          "type": "address"
        },
        {
          "internalType": "address",
          "name": "spender",
          "type": "address"
        }
      ],
      "name": "allowance",
      "outputs": [
        {
          "internalType": "uint256",
          "name": "",
          "type": "uint256"
        }
      ],
      "stateMutability": "view",
      "type": "function"
    },
    {
      "inputs": [
        {
          "internalType": "address",
          "name": "spender",
          "type": "address"
        },
        {
          "internalType": "uint256",
          "name": "amount",
          "type": "uint256"
        }
      ],
      "name": "approve",
      "outputs": [
        {
          "internalType": "bool",
          "name": "",
          "type": "bool"
        }
      ],
      "stateMutability": "nonpayable",
      "type": "function"
    },
    {
      "inputs": [],
      "name": "asset",
      "outputs": [
        {
          "internalType": "contract IERC20Metadata",
          "name": "",
          "type": "address"
        }
      ],
      "stateMutability": "view",
      "type": "function"
    },
    {
      "inputs": [
        {
          "internalType": "address",
          "name": "account",
          "type": "address"
        }
      ],
      "name": "balanceOf",
      "outputs": [
        {
          "internalType": "uint256",
          "name": "",
          "type": "uint256"
        }
      ],
      "stateMutability": "view",
      "type": "function"
    },
    {
      "inputs": [
        {
          "internalType": "uint256",
          "name": "shares",
          "type": "uint256"
        }
      ],
      "name": "convertToAssets",
      "outputs": [
        {
          "internalType": "uint256",
          "name": "",
          "type": "uint256"
        }
      ],
      "stateMutability": "view",
      "type": "function"
    },
    {
      "inputs": [
        {
          "internalType": "uint256",
          "name": "assets",
          "type": "uint256"
        }
      ],
      "name": "convertToShares",
      "outputs": [
        {
          "internalType": "uint256",
          "name": "",
          "type": "uint256"
        }
      ],
      "stateMutability": "view",
      "type": "function"
    },
    {
      "inputs": [],
      "name": "decimals",
      "outputs": [
        {
          "internalType": "uint8",
          "name": "",
          "type": "uint8"
        }
      ],
      "stateMutability": "view",
      "type": "function"
    },
    {
      "inputs": [
        {
          "internalType": "address",
          "name": "spender",
          "type": "address"
        },
        {
          "internalType": "uint256",
          "name": "subtractedValue",
          "type": "uint256"
        }
      ],
      "name": "decreaseAllowance",
      "outputs": [
        {
          "internalType": "bool",
          "name": "",
          "type": "bool"
        }
      ],
      "stateMutability": "nonpayable",
      "type": "function"
    },
    {
      "inputs": [
        {
          "internalType": "uint256",
          "name": "amount",
          "type": "uint256"
        },
        {
          "internalType": "address",
          "name": "to",
          "type": "address"
        }
      ],
      "name": "deposit",
      "outputs": [
        {
          "internalType": "uint256",
          "name": "shares",
          "type": "uint256"
        }
      ],
      "stateMutability": "nonpayable",
      "type": "function"
    },
    {
      "inputs": [
        {
          "internalType": "address",
          "name": "token",
          "type": "address"
        },
        {
          "internalType": "uint256",
          "name": "amount",
          "type": "uint256"
        }
      ],
      "name": "depositToken",
      "outputs": [
        {
          "internalType": "uint256",
          "name": "shares",
          "type": "uint256"
        }
      ],
      "stateMutability": "nonpayable",
      "type": "function"
    },
    {
      "inputs": [],
      "name": "feeRecipient",
      "outputs": [
        {
          "internalType": "address",
          "name": "",
          "type": "address"
        }
      ],
      "stateMutability": "view",
      "type": "function"
    },
    {
      "inputs": [],
      "name": "grantAllowances",
      "outputs": [],
      "stateMutability": "nonpayable",
      "type": "function"
    },
    {
      "inputs": [],
      "name": "harvestFees",
      "outputs": [],
      "stateMutability": "nonpayable",
      "type": "function"
    },
    {
      "inputs": [
        {
          "internalType": "address",
          "name": "spender",
          "type": "address"
        },
        {
          "internalType": "uint256",
          "name": "addedValue",
          "type": "uint256"
        }
      ],
      "name": "increaseAllowance",
      "outputs": [
        {
          "internalType": "bool",
          "name": "",
          "type": "bool"
        }
      ],
      "stateMutability": "nonpayable",
      "type": "function"
    },
    {
      "inputs": [
        {
          "components": [
            {
              "components": [
                {
                  "internalType": "contract IERC20Metadata",
                  "name": "asset",
                  "type": "address"
                },
                {
                  "internalType": "string",
                  "name": "name",
                  "type": "string"
                },
                {
                  "internalType": "string",
                  "name": "symbol",
                  "type": "string"
                }
              ],
              "internalType": "struct RageERC4626.RageERC4626InitParams",
              "name": "rageErc4626InitParams",
              "type": "tuple"
            },
            {
              "internalType": "contract IERC20",
              "name": "weth",
              "type": "address"
            },
            {
              "internalType": "contract IERC20",
              "name": "usdc",
              "type": "address"
            },
            {
              "internalType": "address",
              "name": "feeRecipient",
              "type": "address"
            },
            {
              "internalType": "contract IRewardRouterV2",
              "name": "rewardRouter",
              "type": "address"
            }
          ],
          "internalType": "struct GlpStakingManager.GlpStakingManagerInitParams",
          "name": "glpStakingManagerInitParams",
          "type": "tuple"
        }
      ],
      "name": "initialize",
      "outputs": [],
      "stateMutability": "nonpayable",
      "type": "function"
    },
    {
      "inputs": [
        {
          "internalType": "address",
          "name": "",
          "type": "address"
        }
      ],
      "name": "isVault",
      "outputs": [
        {
          "internalType": "bool",
          "name": "",
          "type": "bool"
        }
      ],
      "stateMutability": "view",
      "type": "function"
    },
    {
      "inputs": [
        {
          "internalType": "address",
          "name": "",
          "type": "address"
        }
      ],
      "name": "maxDeposit",
      "outputs": [
        {
          "internalType": "uint256",
          "name": "",
          "type": "uint256"
        }
      ],
      "stateMutability": "view",
      "type": "function"
    },
    {
      "inputs": [
        {
          "internalType": "address",
          "name": "",
          "type": "address"
        }
      ],
      "name": "maxMint",
      "outputs": [
        {
          "internalType": "uint256",
          "name": "",
          "type": "uint256"
        }
      ],
      "stateMutability": "view",
      "type": "function"
    },
    {
      "inputs": [
        {
          "internalType": "address",
          "name": "owner",
          "type": "address"
        }
      ],
      "name": "maxRedeem",
      "outputs": [
        {
          "internalType": "uint256",
          "name": "",
          "type": "uint256"
        }
      ],
      "stateMutability": "view",
      "type": "function"
    },
    {
      "inputs": [
        {
          "internalType": "address",
          "name": "owner",
          "type": "address"
        }
      ],
      "name": "maxWithdraw",
      "outputs": [
        {
          "internalType": "uint256",
          "name": "",
          "type": "uint256"
        }
      ],
      "stateMutability": "view",
      "type": "function"
    },
    {
      "inputs": [
        {
          "internalType": "uint256",
          "name": "shares",
          "type": "uint256"
        },
        {
          "internalType": "address",
          "name": "to",
          "type": "address"
        }
      ],
      "name": "mint",
      "outputs": [
        {
          "internalType": "uint256",
          "name": "amount",
          "type": "uint256"
        }
      ],
      "stateMutability": "nonpayable",
      "type": "function"
    },
    {
      "inputs": [],
      "name": "name",
      "outputs": [
        {
          "internalType": "string",
          "name": "",
          "type": "string"
        }
      ],
      "stateMutability": "view",
      "type": "function"
    },
    {
      "inputs": [],
      "name": "owner",
      "outputs": [
        {
          "internalType": "address",
          "name": "",
          "type": "address"
        }
      ],
      "stateMutability": "view",
      "type": "function"
    },
    {
      "inputs": [
        {
          "internalType": "uint256",
          "name": "assets",
          "type": "uint256"
        }
      ],
      "name": "previewDeposit",
      "outputs": [
        {
          "internalType": "uint256",
          "name": "",
          "type": "uint256"
        }
      ],
      "stateMutability": "view",
      "type": "function"
    },
    {
      "inputs": [
        {
          "internalType": "uint256",
          "name": "shares",
          "type": "uint256"
        }
      ],
      "name": "previewMint",
      "outputs": [
        {
          "internalType": "uint256",
          "name": "",
          "type": "uint256"
        }
      ],
      "stateMutability": "view",
      "type": "function"
    },
    {
      "inputs": [
        {
          "internalType": "uint256",
          "name": "shares",
          "type": "uint256"
        }
      ],
      "name": "previewRedeem",
      "outputs": [
        {
          "internalType": "uint256",
          "name": "",
          "type": "uint256"
        }
      ],
      "stateMutability": "view",
      "type": "function"
    },
    {
      "inputs": [
        {
          "internalType": "uint256",
          "name": "assets",
          "type": "uint256"
        }
      ],
      "name": "previewWithdraw",
      "outputs": [
        {
          "internalType": "uint256",
          "name": "",
          "type": "uint256"
        }
      ],
      "stateMutability": "view",
      "type": "function"
    },
    {
      "inputs": [],
      "name": "protocolFee",
      "outputs": [
        {
          "internalType": "uint256",
          "name": "",
          "type": "uint256"
        }
      ],
      "stateMutability": "view",
      "type": "function"
    },
    {
      "inputs": [
        {
          "internalType": "uint256",
          "name": "shares",
          "type": "uint256"
        },
        {
          "internalType": "address",
          "name": "to",
          "type": "address"
        },
        {
          "internalType": "address",
          "name": "from",
          "type": "address"
        }
      ],
      "name": "redeem",
      "outputs": [
        {
          "internalType": "uint256",
          "name": "amount",
          "type": "uint256"
        }
      ],
      "stateMutability": "nonpayable",
      "type": "function"
    },
    {
      "inputs": [],
      "name": "renounceOwnership",
      "outputs": [],
      "stateMutability": "nonpayable",
      "type": "function"
    },
    {
      "inputs": [
        {
          "internalType": "address",
          "name": "_feeRecipient",
          "type": "address"
        }
      ],
      "name": "setFeeRecipient",
      "outputs": [],
      "stateMutability": "nonpayable",
      "type": "function"
    },
    {
      "inputs": [
        {
          "internalType": "address",
          "name": "vaultAddress",
          "type": "address"
        },
        {
          "internalType": "bool",
          "name": "_isVault",
          "type": "bool"
        }
      ],
      "name": "setVault",
      "outputs": [],
      "stateMutability": "nonpayable",
      "type": "function"
    },
    {
      "inputs": [],
      "name": "slippageThreshold",
      "outputs": [
        {
          "internalType": "uint256",
          "name": "",
          "type": "uint256"
        }
      ],
      "stateMutability": "view",
      "type": "function"
    },
    {
      "inputs": [],
      "name": "symbol",
      "outputs": [
        {
          "internalType": "string",
          "name": "",
          "type": "string"
        }
      ],
      "stateMutability": "view",
      "type": "function"
    },
    {
      "inputs": [],
      "name": "totalAssets",
      "outputs": [
        {
          "internalType": "uint256",
          "name": "",
          "type": "uint256"
        }
      ],
      "stateMutability": "view",
      "type": "function"
    },
    {
      "inputs": [],
      "name": "totalSupply",
      "outputs": [
        {
          "internalType": "uint256",
          "name": "",
          "type": "uint256"
        }
      ],
      "stateMutability": "view",
      "type": "function"
    },
    {
      "inputs": [
        {
          "internalType": "address",
          "name": "to",
          "type": "address"
        },
        {
          "internalType": "uint256",
          "name": "amount",
          "type": "uint256"
        }
      ],
      "name": "transfer",
      "outputs": [
        {
          "internalType": "bool",
          "name": "",
          "type": "bool"
        }
      ],
      "stateMutability": "nonpayable",
      "type": "function"
    },
    {
      "inputs": [
        {
          "internalType": "address",
          "name": "from",
          "type": "address"
        },
        {
          "internalType": "address",
          "name": "to",
          "type": "address"
        },
        {
          "internalType": "uint256",
          "name": "amount",
          "type": "uint256"
        }
      ],
      "name": "transferFrom",
      "outputs": [
        {
          "internalType": "bool",
          "name": "",
          "type": "bool"
        }
      ],
      "stateMutability": "nonpayable",
      "type": "function"
    },
    {
      "inputs": [
        {
          "internalType": "address",
          "name": "newOwner",
          "type": "address"
        }
      ],
      "name": "transferOwnership",
      "outputs": [],
      "stateMutability": "nonpayable",
      "type": "function"
    },
    {
      "inputs": [
        {
          "internalType": "uint256",
          "name": "_feeBps",
          "type": "uint256"
        },
        {
          "internalType": "uint256",
          "name": "_wethThreshold",
          "type": "uint256"
        },
        {
          "internalType": "uint256",
          "name": "_slippageThreshold",
          "type": "uint256"
        },
        {
          "internalType": "address",
          "name": "_batchingManager",
          "type": "address"
        }
      ],
      "name": "updateGMXParams",
      "outputs": [],
      "stateMutability": "nonpayable",
      "type": "function"
    },
    {
      "inputs": [],
      "name": "wethThreshold",
      "outputs": [
        {
          "internalType": "uint256",
          "name": "",
          "type": "uint256"
        }
      ],
      "stateMutability": "view",
      "type": "function"
    },
    {
      "inputs": [
        {
          "internalType": "uint256",
          "name": "amount",
          "type": "uint256"
        },
        {
          "internalType": "address",
          "name": "to",
          "type": "address"
        },
        {
          "internalType": "address",
          "name": "from",
          "type": "address"
        }
      ],
      "name": "withdraw",
      "outputs": [
        {
          "internalType": "uint256",
          "name": "shares",
          "type": "uint256"
        }
      ],
      "stateMutability": "nonpayable",
      "type": "function"
    },
    {
      "inputs": [],
      "name": "withdrawFees",
      "outputs": [],
      "stateMutability": "nonpayable",
      "type": "function"
    }
  ],
  "transactionHash": "0xdd487d45a5408f64c5fd010b4d3309a9b99f88e196f60933a120d3d617e3681b",
  "args": [],
  "numDeployments": 1,
  "solcInputHash": "7529bff7d4b041a5e32b81fabd5ea9d2",
  "bytecode": "0x60806040526103e860fc5534801561001657600080fd5b50612fb4806100266000396000f3fe608060405234801561001057600080fd5b50600436106103205760003560e01c80639024350b116101a7578063c57981b5116100ee578063d905777e11610097578063ef8b30f711610071578063ef8b30f714610660578063f2fde38b14610673578063fd967f471461068657600080fd5b8063d905777e14610601578063dd62ed3e14610614578063e74b981b1461064d57600080fd5b8063ce96cb77116100c8578063ce96cb77146105e5578063d08aef7c146104f5578063d24aeaee146105f857600080fd5b8063c57981b5146105c9578063c63d75b614610423578063c6e6f592146105d257600080fd5b8063a9059cbb11610150578063b460af941161012a578063b460af941461059b578063ba087652146105ae578063bf9571f1146105c157600080fd5b8063a9059cbb1461056c578063b0e21e8a1461057f578063b3d7f6b91461058857600080fd5b806395d89b411161018157806395d89b411461053e5780639a03ceba14610546578063a457c2d71461055957600080fd5b80639024350b1461050e57806394bf804d1461051757806395082d251461052a57600080fd5b8063402d267d1161026b578063652b9b4111610214578063715018a6116101ee578063715018a6146104ed578063870d917c146104f55780638da5cb5b146104fd57600080fd5b8063652b9b411461048d5780636e553f65146104b157806370a08231146104c457600080fd5b80634cdad506116102455780634cdad506146104545780634f30175b14610467578063627f66c61461047a57600080fd5b8063402d267d146104235780634690484014610438578063476343ee1461044c57600080fd5b806318160ddd116102cd578063338b5dea116102a7578063338b5dea146103d257806338d52e0f146103e5578063395093511461041057600080fd5b806318160ddd146103a857806323b872dd146103b0578063313ce567146103c357600080fd5b8063095ea7b3116102fe578063095ea7b3146103685780630a28a4771461038b578063138cc18f1461039e57600080fd5b806301e1d1141461032557806306fdde031461034057806307a2d13a14610355575b600080fd5b61032d61068f565b6040519081526020015b60405180910390f35b61034861077a565b60405161033791906128d5565b61032d610363366004612908565b61080c565b61037b610376366004612941565b610841565b6040519015158152602001610337565b61032d610399366004612908565b61085b565b6103a6610867565b005b60355461032d565b61037b6103be36600461296d565b610b28565b60405160128152602001610337565b61032d6103e0366004612941565b610b4c565b6065546103f8906001600160a01b031681565b6040516001600160a01b039091168152602001610337565b61037b61041e366004612941565b610e01565b61032d6104313660046129ae565b5060001990565b610100546103f8906001600160a01b031681565b6103a6610e40565b61032d610462366004612908565b610efc565b6103a66104753660046129cb565b610f08565b6103a6610488366004612a1a565b61101f565b61037b61049b3660046129ae565b6101086020526000908152604090205460ff1681565b61032d6104bf366004612a53565b611119565b61032d6104d23660046129ae565b6001600160a01b031660009081526033602052604090205490565b6103a661112d565b61032d601281565b6066546001600160a01b03166103f8565b61032d60ff5481565b61032d610525366004612a53565b611181565b61032d6c0c9f2c9cd04674edea4000000081565b610348611195565b6103a6610554366004612b67565b6111a4565b61037b610567366004612941565b61122a565b61037b61057a366004612941565b6112bc565b61032d60fd5481565b61032d610596366004612908565b6112ca565b61032d6105a9366004612c7b565b6112f1565b61032d6105bc366004612c7b565b6113cc565b6103a66114f6565b61032d60fc5481565b61032d6105e0366004612908565b611637565b61032d6105f33660046129ae565b61165f565b61032d60fe5481565b61032d61060f3660046129ae565b611681565b61032d610622366004612cbd565b6001600160a01b03918216600090815260346020908152604080832093909416825291909152205490565b6103a661065b3660046129ae565b61169f565b61032d61066e366004612908565b611770565b6103a66106813660046129ae565b61177b565b61032d61271081565b6101075460408051632a906a4560e01b815290516000926001600160a01b031691632a906a459160048083019260209291908290030181865afa1580156106da573d6000803e3d6000fd5b505050506040513d601f19601f820116820180604052508101906106fe9190612ceb565b610103546040516370a0823160e01b81523060048201526001600160a01b03909116906370a0823190602401602060405180830381865afa158015610747573d6000803e3d6000fd5b505050506040513d601f19601f8201168201806040525081019061076b9190612ceb565b6107759190612d1a565b905090565b60606036805461078990612d32565b80601f01602080910402602001604051908101604052809291908181526020018280546107b590612d32565b80156108025780601f106107d757610100808354040283529160200191610802565b820191906000526020600020905b8154815290600101906020018083116107e557829003601f168201915b5050505050905090565b60008061081860355490565b905080156108385761083361082b61068f565b849083611831565b61083a565b825b9392505050565b60003361084f818585611850565b60019150505b92915050565b60008161083a81611975565b6101065460405163185b800160e11b815260006004820181905260248201819052600160448301819052606483018190526084830181905260a483015260c48201526001600160a01b03909116906330b700029060e401600060405180830381600087803b1580156108d857600080fd5b505af11580156108ec573d6000803e3d6000fd5b505060fd54610101546040516370a0823160e01b8152306004820152600094509192506001600160a01b0316906370a0823190602401602060405180830381865afa15801561093f573d6000803e3d6000fd5b505050506040513d601f19601f820116820180604052508101906109639190612ceb565b61096d9190612d6c565b905060fe54811115610b2557600061271060fc548361098c9190612d83565b6109969190612da2565b90508060fd60008282546109aa9190612d1a565b90915550600090506109bc8284612d6c565b61010454610101546040516340d3096b60e11b81526001600160a01b0391821660048201529293506000929116906381a612d690602401602060405180830381865afa158015610a10573d6000803e3d6000fd5b505050506040513d601f19601f82011682018060405250810190610a349190612ceb565b90506000610a7660ff54612710610a4b9190612d6c565b610a559084612d83565b610a6e6127106c0c9f2c9cd04674edea40000000612d83565b85919061199d565b9050610a9b610a876012600a612ea8565b610a936012600a612ea8565b83919061199d565b6101075461010154604051634ce3696f60e11b81526001600160a01b039182166004820152602481018790526044810184905292935016906399c6d2de906064016020604051808303816000875af1158015610afb573d6000803e3d6000fd5b505050506040513d601f19601f82011682018060405250810190610b1f9190612ceb565b50505050505b50565b600033610b36858285611a4f565b610b41858585611ae1565b506001949350505050565b6000610b56611caf565b6040516323b872dd60e01b8152336004820152306024820152604481018390526001600160a01b038416906323b872dd906064016020604051808303816000875af1158015610ba9573d6000803e3d6000fd5b505050506040513d601f19601f82011682018060405250810190610bcd9190612eb4565b50610104546040516340d3096b60e11b81526001600160a01b03858116600483015260009216906381a612d690602401602060405180830381865afa158015610c1a573d6000803e3d6000fd5b505050506040513d601f19601f82011682018060405250810190610c3e9190612ceb565b90506000610c8060ff54612710610c559190612d6c565b610c5f9084612d83565b610c786127106c0c9f2c9cd04674edea40000000612d83565b86919061199d565b9050610cfe610c916012600a612ea8565b866001600160a01b031663313ce5676040518163ffffffff1660e01b8152600401602060405180830381865afa158015610ccf573d6000803e3d6000fd5b505050506040513d601f19601f82011682018060405250810190610cf39190612ed1565b610a9390600a612ef4565b61010754604051634ce3696f60e11b81526001600160a01b0388811660048301526024820188905260448201849052929350600092909116906399c6d2de906064016020604051808303816000875af1158015610d5f573d6000803e3d6000fd5b505050506040513d601f19601f82011682018060405250810190610d839190612ceb565b9050610d8e81611770565b935083600003610db157604051639811e0c760e01b815260040160405180910390fd5b610dbb3385611ce8565b6040805182815260208101869052339182917fdcbc1c05240f31ff3ad067ef1ee35ce4997762752e3a095284754544f4c709d7910160405180910390a350505092915050565b3360008181526034602090815260408083206001600160a01b038716845290915281205490919061084f9082908690610e3b908790612d1a565b611850565b60fd80546000909155610101546101005460405163a9059cbb60e01b81526001600160a01b0391821660048201526024810184905291169063a9059cbb906044016020604051808303816000875af1158015610ea0573d6000803e3d6000fd5b505050506040513d601f19601f82011682018060405250810190610ec49190612eb4565b506040518181527f9800e6f57aeb4360eaa72295a820a4293e1e66fbfcabcd8874ae141304a76deb906020015b60405180910390a150565b60008061083a8361080c565b6066546001600160a01b03163314610f555760405162461bcd60e51b81526020600482018190526024820152600080516020612f8883398151915260448201526064015b60405180910390fd5b61271084108015610f67575061271082105b8015610f7b57506001600160a01b03811615155b15610fb05760fc84905560fe83905560ff82905561010780546001600160a01b0319166001600160a01b038316179055610fc9565b604051631841b5e160e31b815260040160405180910390fd5b60408051858152602081018590529081018390526001600160a01b03821660608201527f029f0f322470a72c77404ab63fda15eed4640b78cf77c859f70f9b05860d296b9060800160405180910390a150505050565b6066546001600160a01b031633146110675760405162461bcd60e51b81526020600482018190526024820152600080516020612f888339815191526044820152606401610f4c565b6001600160a01b0382166000908152610108602052604090205460ff161515811515146110b8576001600160a01b038216600090815261010860205260409020805460ff19168215151790556110d1565b60405163411efe0f60e01b815260040160405180910390fd5b604080516001600160a01b038416815282151560208201527f4f521ca1fe92f9212cc8773b6c44a5ed8937455d9daec3ed2eaef257f1e7f3ab91015b60405180910390a15050565b6000611123611caf565b61083a8383611dc7565b6066546001600160a01b031633146111755760405162461bcd60e51b81526020600482018190526024820152600080516020612f888339815191526044820152606401610f4c565b61117f6000611e80565b565b600061118b611caf565b61083a8383611ed2565b60606037805461078990612d32565b60006111b06001611f45565b905080156111c8576000805461ff0019166101001790555b6111d0612060565b81516111db9061208f565b6111e4826120a6565b8015611226576000805461ff0019169055604051600181527f7f26b83ff96e1f2b6a682f133852f6798a09c465da95921460cefb38474024989060200161110d565b5050565b3360008181526034602090815260408083206001600160a01b0387168452909152812054909190838110156112af5760405162461bcd60e51b815260206004820152602560248201527f45524332303a2064656372656173656420616c6c6f77616e63652062656c6f77604482015264207a65726f60d81b6064820152608401610f4c565b610b418286868403611850565b60003361084f818585611ae1565b6000806112d660355490565b90508015610838576108336112e961068f565b8490836122b4565b60006112fb611caf565b83600061130782611975565b9250336001600160a01b03851614611357576001600160a01b03841660009081526034602090815260408083203384529091529020546000198114611355576113558533610e3b8785612d6c565b505b61136184846122e2565b60408051838152602081018590526001600160a01b03808716929088169133917ffbde797d201c681b91056529119e0b02407c7bb96a4a2c75c01fc9667232c8db910160405180910390a46065546113c3906001600160a01b0316868461242d565b50509392505050565b60006113d6611caf565b60006113e18561080c565b91508190506000806113f283611975565b9050836000036114325760405162461bcd60e51b815260206004820152600b60248201526a5a45524f5f41535345545360a81b6044820152606401610f4c565b336001600160a01b03861614611480576001600160a01b0385166000908152603460209081526040808320338452909152902054600019811461147e5761147e8633610e3b8585612d6c565b505b61148a85826122e2565b60408051858152602081018390526001600160a01b03808816929089169133917ffbde797d201c681b91056529119e0b02407c7bb96a4a2c75c01fc9667232c8db910160405180910390a46065546114ec906001600160a01b0316878661242d565b5050509392505050565b6066546001600160a01b0316331461153e5760405162461bcd60e51b81526020600482018190526024820152600080516020612f888339815191526044820152606401610f4c565b610101546101075460405163095ea7b360e01b81526001600160a01b039182166004820152600019602482015291169063095ea7b3906044016020604051808303816000875af1158015611596573d6000803e3d6000fd5b505050506040513d601f19601f820116820180604052508101906115ba9190612eb4565b50610102546101075460405163095ea7b360e01b81526001600160a01b039182166004820152600019602482015291169063095ea7b3906044016020604051808303816000875af1158015611613573d6000803e3d6000fd5b505050506040513d601f19601f82011682018060405250810190610b259190612eb4565b60008061164360355490565b90508015610838576108338161165761068f565b859190611831565b6001600160a01b0381166000908152603360205260408120546108559061080c565b6001600160a01b038116600090815260336020526040812054610855565b6066546001600160a01b031633146116e75760405162461bcd60e51b81526020600482018190526024820152600080516020612f888339815191526044820152606401610f4c565b610100546001600160a01b0382811691161461171e5761010080546001600160a01b0319166001600160a01b038316179055611737565b6040516312aec26360e01b815260040160405180910390fd5b6040516001600160a01b03821681527f7a7b5a0a132f9e0581eb8527f66eae9ee89c2a3e79d4ac7e41a1f1f4d48a7fc290602001610ef1565b600061085582611637565b6066546001600160a01b031633146117c35760405162461bcd60e51b81526020600482018190526024820152600080516020612f888339815191526044820152606401610f4c565b6001600160a01b0381166118285760405162461bcd60e51b815260206004820152602660248201527f4f776e61626c653a206e6577206f776e657220697320746865207a65726f206160448201526564647265737360d01b6064820152608401610f4c565b610b2581611e80565b82820281151584158583048514171661184957600080fd5b0492915050565b6001600160a01b0383166118b25760405162461bcd60e51b8152602060048201526024808201527f45524332303a20617070726f76652066726f6d20746865207a65726f206164646044820152637265737360e01b6064820152608401610f4c565b6001600160a01b0382166119135760405162461bcd60e51b815260206004820152602260248201527f45524332303a20617070726f766520746f20746865207a65726f206164647265604482015261737360f01b6064820152608401610f4c565b6001600160a01b0383811660008181526034602090815260408083209487168084529482529182902085905590518481527f8c5be1e5ebec7d5bd14f71427d1e84f3dd0314c0f7b2291e5b200ac8c7c3b92591015b60405180910390a3505050565b60008061198160355490565b90508015610838576108338161199561068f565b8591906122b4565b60008080600019858709858702925082811083820303915050806000036119d657600084116119cb57600080fd5b50829004905061083a565b8084116119e257600080fd5b6000848688096000868103871696879004966002600389028118808a02820302808a02820302808a02820302808a02820302808a02820302808a02909103029181900381900460010186841190950394909402919094039290920491909117919091029150509392505050565b6001600160a01b038381166000908152603460209081526040808320938616835292905220546000198114611adb5781811015611ace5760405162461bcd60e51b815260206004820152601d60248201527f45524332303a20696e73756666696369656e7420616c6c6f77616e63650000006044820152606401610f4c565b611adb8484848403611850565b50505050565b6001600160a01b038316611b455760405162461bcd60e51b815260206004820152602560248201527f45524332303a207472616e736665722066726f6d20746865207a65726f206164604482015264647265737360d81b6064820152608401610f4c565b6001600160a01b038216611ba75760405162461bcd60e51b815260206004820152602360248201527f45524332303a207472616e7366657220746f20746865207a65726f206164647260448201526265737360e81b6064820152608401610f4c565b6001600160a01b03831660009081526033602052604090205481811015611c1f5760405162461bcd60e51b815260206004820152602660248201527f45524332303a207472616e7366657220616d6f756e7420657863656564732062604482015265616c616e636560d01b6064820152608401610f4c565b6001600160a01b03808516600090815260336020526040808220858503905591851681529081208054849290611c56908490612d1a565b92505081905550826001600160a01b0316846001600160a01b03167fddf252ad1be2c89b69c2b068fc378daa952ba7f163c4a11628f55a4df523b3ef84604051611ca291815260200190565b60405180910390a3611adb565b336000908152610108602052604090205460ff16611ce05760405163f79caa1f60e01b815260040160405180910390fd5b61117f610867565b6001600160a01b038216611d3e5760405162461bcd60e51b815260206004820152601f60248201527f45524332303a206d696e7420746f20746865207a65726f2061646472657373006044820152606401610f4c565b8060356000828254611d509190612d1a565b90915550506001600160a01b03821660009081526033602052604081208054839290611d7d908490612d1a565b90915550506040518181526001600160a01b038316906000907fddf252ad1be2c89b69c2b068fc378daa952ba7f163c4a11628f55a4df523b3ef9060200160405180910390a35050565b6000611dd283611770565b905080600003611e125760405162461bcd60e51b815260206004820152600b60248201526a5a45524f5f53484152455360a81b6044820152606401610f4c565b606554611e2a906001600160a01b03163330866124a8565b611e348282611ce8565b60408051848152602081018390526001600160a01b0384169133917fdcbc1c05240f31ff3ad067ef1ee35ce4997762752e3a095284754544f4c709d791015b60405180910390a3610855565b606680546001600160a01b038381166001600160a01b0319831681179093556040519116919082907f8be0079c531659141344cd1fd0a4f28419497f9722a3daafe3b4186f6b6457e090600090a35050565b6000611edd836112ca565b606554909150611ef8906001600160a01b03163330846124a8565b611f028284611ce8565b60408051828152602081018590526001600160a01b0384169133917fdcbc1c05240f31ff3ad067ef1ee35ce4997762752e3a095284754544f4c709d79101611e73565b60008054610100900460ff1615611fd3578160ff166001148015611f685750303b155b611fcb5760405162461bcd60e51b815260206004820152602e60248201527f496e697469616c697a61626c653a20636f6e747261637420697320616c72656160448201526d191e481a5b9a5d1a585b1a5e995960921b6064820152608401610f4c565b506000919050565b60005460ff8084169116106120415760405162461bcd60e51b815260206004820152602e60248201527f496e697469616c697a61626c653a20636f6e747261637420697320616c72656160448201526d191e481a5b9a5d1a585b1a5e995960921b6064820152608401610f4c565b506000805460ff191660ff92909216919091179055600190565b919050565b600054610100900460ff166120875760405162461bcd60e51b8152600401610f4c90612f03565b61117f6124e0565b610b25816000015182602001518360400151612510565b600054610100900460ff166120cd5760405162461bcd60e51b8152600401610f4c90612f03565b60208181015161010180546001600160a01b03199081166001600160a01b0393841617909155604080850151610102805484169185169190911790556080850151610106805484169185169190911790556060850151610100805490931690841617909155606554815162af394d60e81b8152915192169263af394d00926004808401938290030181865afa15801561216a573d6000803e3d6000fd5b505050506040513d601f19601f8201168201806040525081019061218e9190612f4e565b61010380546001600160a01b0319166001600160a01b0392831617905560655460408051633e9b6c6f60e21b81529051919092169163fa6db1bc9160048083019260209291908290030181865afa1580156121ed573d6000803e3d6000fd5b505050506040513d601f19601f820116820180604052508101906122119190612f4e565b61010580546001600160a01b0319166001600160a01b039290921691821790556040805163fbfa77cf60e01b8152905163fbfa77cf916004808201926020929091908290030181865afa15801561226c573d6000803e3d6000fd5b505050506040513d601f19601f820116820180604052508101906122909190612f4e565b61010480546001600160a01b0319166001600160a01b039290921691909117905550565b8282028115158415858304851417166122cc57600080fd5b6001826001830304018115150290509392505050565b6001600160a01b0382166123425760405162461bcd60e51b815260206004820152602160248201527f45524332303a206275726e2066726f6d20746865207a65726f206164647265736044820152607360f81b6064820152608401610f4c565b6001600160a01b038216600090815260336020526040902054818110156123b65760405162461bcd60e51b815260206004820152602260248201527f45524332303a206275726e20616d6f756e7420657863656564732062616c616e604482015261636560f01b6064820152608401610f4c565b6001600160a01b03831660009081526033602052604081208383039055603580548492906123e5908490612d6c565b90915550506040518281526000906001600160a01b038516907fddf252ad1be2c89b69c2b068fc378daa952ba7f163c4a11628f55a4df523b3ef90602001611968565b505050565b6040516001600160a01b03831660248201526044810182905261242890849063a9059cbb60e01b906064015b60408051601f198184030181529190526020810180516001600160e01b03167fffffffff000000000000000000000000000000000000000000000000000000009093169290921790915261253e565b6040516001600160a01b0380851660248301528316604482015260648101829052611adb9085906323b872dd60e01b90608401612459565b600054610100900460ff166125075760405162461bcd60e51b8152600401610f4c90612f03565b61117f33611e80565b61251a8282612610565b5050606580546001600160a01b0319166001600160a01b0392909216919091179055565b6000612593826040518060400160405280602081526020017f5361666545524332303a206c6f772d6c6576656c2063616c6c206661696c6564815250856001600160a01b03166126419092919063ffffffff16565b80519091501561242857808060200190518101906125b19190612eb4565b6124285760405162461bcd60e51b815260206004820152602a60248201527f5361666545524332303a204552433230206f7065726174696f6e20646964206e6044820152691bdd081cdd58d8d9595960b21b6064820152608401610f4c565b600054610100900460ff166126375760405162461bcd60e51b8152600401610f4c90612f03565b6112268282612658565b606061265084846000856126a6565b949350505050565b600054610100900460ff1661267f5760405162461bcd60e51b8152600401610f4c90612f03565b8151612692906036906020850190612810565b508051612428906037906020840190612810565b6060824710156127075760405162461bcd60e51b815260206004820152602660248201527f416464726573733a20696e73756666696369656e742062616c616e636520666f6044820152651c8818d85b1b60d21b6064820152608401610f4c565b6001600160a01b0385163b61275e5760405162461bcd60e51b815260206004820152601d60248201527f416464726573733a2063616c6c20746f206e6f6e2d636f6e74726163740000006044820152606401610f4c565b600080866001600160a01b0316858760405161277a9190612f6b565b60006040518083038185875af1925050503d80600081146127b7576040519150601f19603f3d011682016040523d82523d6000602084013e6127bc565b606091505b50915091506127cc8282866127d7565b979650505050505050565b606083156127e657508161083a565b8251156127f65782518084602001fd5b8160405162461bcd60e51b8152600401610f4c91906128d5565b82805461281c90612d32565b90600052602060002090601f01602090048101928261283e5760008555612884565b82601f1061285757805160ff1916838001178555612884565b82800160010185558215612884579182015b82811115612884578251825591602001919060010190612869565b50612890929150612894565b5090565b5b808211156128905760008155600101612895565b60005b838110156128c45781810151838201526020016128ac565b83811115611adb5750506000910152565b60208152600082518060208401526128f48160408501602087016128a9565b601f01601f19169190910160400192915050565b60006020828403121561291a57600080fd5b5035919050565b6001600160a01b0381168114610b2557600080fd5b803561205b81612921565b6000806040838503121561295457600080fd5b823561295f81612921565b946020939093013593505050565b60008060006060848603121561298257600080fd5b833561298d81612921565b9250602084013561299d81612921565b929592945050506040919091013590565b6000602082840312156129c057600080fd5b813561083a81612921565b600080600080608085870312156129e157600080fd5b8435935060208501359250604085013591506060850135612a0181612921565b939692955090935050565b8015158114610b2557600080fd5b60008060408385031215612a2d57600080fd5b8235612a3881612921565b91506020830135612a4881612a0c565b809150509250929050565b60008060408385031215612a6657600080fd5b823591506020830135612a4881612921565b634e487b7160e01b600052604160045260246000fd5b60405160a0810167ffffffffffffffff81118282101715612ab157612ab1612a78565b60405290565b6040516060810167ffffffffffffffff81118282101715612ab157612ab1612a78565b600082601f830112612aeb57600080fd5b813567ffffffffffffffff80821115612b0657612b06612a78565b604051601f8301601f19908116603f01168101908282118183101715612b2e57612b2e612a78565b81604052838152866020858801011115612b4757600080fd5b836020870160208301376000602085830101528094505050505092915050565b600060208284031215612b7957600080fd5b813567ffffffffffffffff80821115612b9157600080fd5b9083019060a08286031215612ba557600080fd5b612bad612a8e565b823582811115612bbc57600080fd5b830160608188031215612bce57600080fd5b612bd6612ab7565b8135612be181612921565b8152602082013584811115612bf557600080fd5b612c0189828501612ada565b602083015250604082013584811115612c1957600080fd5b612c2589828501612ada565b604083015250825250612c3a60208401612936565b6020820152612c4b60408401612936565b6040820152612c5c60608401612936565b6060820152612c6d60808401612936565b608082015295945050505050565b600080600060608486031215612c9057600080fd5b833592506020840135612ca281612921565b91506040840135612cb281612921565b809150509250925092565b60008060408385031215612cd057600080fd5b8235612cdb81612921565b91506020830135612a4881612921565b600060208284031215612cfd57600080fd5b5051919050565b634e487b7160e01b600052601160045260246000fd5b60008219821115612d2d57612d2d612d04565b500190565b600181811c90821680612d4657607f821691505b602082108103612d6657634e487b7160e01b600052602260045260246000fd5b50919050565b600082821015612d7e57612d7e612d04565b500390565b6000816000190483118215151615612d9d57612d9d612d04565b500290565b600082612dbf57634e487b7160e01b600052601260045260246000fd5b500490565b600181815b80851115612dff578160001904821115612de557612de5612d04565b80851615612df257918102915b93841c9390800290612dc9565b509250929050565b600082612e1657506001610855565b81612e2357506000610855565b8160018114612e395760028114612e4357612e5f565b6001915050610855565b60ff841115612e5457612e54612d04565b50506001821b610855565b5060208310610133831016604e8410600b8410161715612e82575081810a610855565b612e8c8383612dc4565b8060001904821115612ea057612ea0612d04565b029392505050565b600061083a8383612e07565b600060208284031215612ec657600080fd5b815161083a81612a0c565b600060208284031215612ee357600080fd5b815160ff8116811461083a57600080fd5b600061083a60ff841683612e07565b6020808252602b908201527f496e697469616c697a61626c653a20636f6e7472616374206973206e6f74206960408201526a6e697469616c697a696e6760a81b606082015260800190565b600060208284031215612f6057600080fd5b815161083a81612921565b60008251612f7d8184602087016128a9565b919091019291505056fe4f776e61626c653a2063616c6c6572206973206e6f7420746865206f776e6572a164736f6c634300080e000a",
  "devdoc": {
    "kind": "dev",
    "methods": {
      "allowance(address,address)": {
        "details": "See {IERC20-allowance}."
      },
      "approve(address,uint256)": {
        "details": "See {IERC20-approve}. NOTE: If `amount` is the maximum `uint256`, the allowance is not updated on `transferFrom`. This is semantically equivalent to an infinite approval. Requirements: - `spender` cannot be the zero address."
      },
      "balanceOf(address)": {
        "details": "See {IERC20-balanceOf}."
      },
      "decimals()": {
        "details": "Returns the number of decimals used to get its user representation. For example, if `decimals` equals `2`, a balance of `505` tokens should be displayed to a user as `5.05` (`505 / 10 ** 2`). Tokens usually opt for a value of 18, imitating the relationship between Ether and Wei. This is the value {ERC20} uses, unless this function is overridden; NOTE: This information is only used for _display_ purposes: it in no way affects any of the arithmetic of the contract, including {IERC20-balanceOf} and {IERC20-transfer}."
      },
      "decreaseAllowance(address,uint256)": {
        "details": "Atomically decreases the allowance granted to `spender` by the caller. This is an alternative to {approve} that can be used as a mitigation for problems described in {IERC20-approve}. Emits an {Approval} event indicating the updated allowance. Requirements: - `spender` cannot be the zero address. - `spender` must have allowance for the caller of at least `subtractedValue`."
      },
      "depositToken(address,uint256)": {
        "details": "only works for usdc and weth because approval is only given for those tokens",
        "params": {
          "amount": "amount of token",
          "token": "address of token"
        }
      },
      "increaseAllowance(address,uint256)": {
        "details": "Atomically increases the allowance granted to `spender` by the caller. This is an alternative to {approve} that can be used as a mitigation for problems described in {IERC20-approve}. Emits an {Approval} event indicating the updated allowance. Requirements: - `spender` cannot be the zero address."
      },
      "name()": {
        "details": "Returns the name of the token."
      },
      "owner()": {
        "details": "Returns the address of the current owner."
      },
      "renounceOwnership()": {
        "details": "Leaves the contract without owner. It will not be possible to call `onlyOwner` functions anymore. Can only be called by the current owner. NOTE: Renouncing ownership will leave the contract without an owner, thereby removing any functionality that is only available to the owner."
      },
      "setVault(address,bool)": {
        "params": {
          "_isVault": "true to set, false to unset",
          "vaultAddress": "address of vault (GmxYieldStrategy)"
        }
      },
      "symbol()": {
        "details": "Returns the symbol of the token, usually a shorter version of the name."
      },
      "totalSupply()": {
        "details": "See {IERC20-totalSupply}."
      },
      "transfer(address,uint256)": {
        "details": "See {IERC20-transfer}. Requirements: - `to` cannot be the zero address. - the caller must have a balance of at least `amount`."
      },
      "transferFrom(address,address,uint256)": {
        "details": "See {IERC20-transferFrom}. Emits an {Approval} event indicating the updated allowance. This is not required by the EIP. See the note at the beginning of {ERC20}. NOTE: Does not update the allowance if the current allowance is the maximum `uint256`. Requirements: - `from` and `to` cannot be the zero address. - `from` must have a balance of at least `amount`. - the caller must have allowance for ``from``'s tokens of at least `amount`."
      },
      "transferOwnership(address)": {
        "details": "Transfers ownership of the contract to a new account (`newOwner`). Can only be called by the current owner."
      },
      "updateGMXParams(uint256,uint256,uint256,address)": {
        "params": {
          "_batchingManager": "address of batching manager (which batches deposits to GYS)",
          "_feeBps": "fee value (in terms of BPS) to be charged on WETH rewards",
          "_slippageThreshold": "maximum slippage allowed (in BPS) on converting tokens to GLP",
          "_wethThreshold": "minimum threshold to swap WETH to GLP"
        }
      }
    },
    "version": 1
  },
  "userdoc": {
    "kind": "user",
    "methods": {
      "depositToken(address,uint256)": {
        "notice": "converts input token to sGLP"
      },
      "grantAllowances()": {
        "notice": "grants one time max allowance to various third parties"
      },
      "harvestFees()": {
        "notice": "stakes the rewards from the staked Glp and claims WETH to buy glp"
      },
      "setVault(address,bool)": {
        "notice": "add/remove vaults for allowing to stake using this contract"
      },
      "totalAssets()": {
        "notice": "total assets controlled by this staking manager"
      },
      "updateGMXParams(uint256,uint256,uint256,address)": {
        "notice": "updates several state variables related to external addresses, slippage, fee, threshold, etc."
      },
      "withdrawFees()": {
        "notice": "withdraw accumulated WETH fees"
      }
    },
    "version": 1
  },
  "storageLayout": {
    "storage": [
      {
        "astId": 217,
        "contract": "contracts/yieldStrategy/gmx/GlpStakingManager.sol:GlpStakingManager",
        "label": "_initialized",
        "offset": 0,
        "slot": "0",
        "type": "t_uint8"
      },
      {
        "astId": 220,
        "contract": "contracts/yieldStrategy/gmx/GlpStakingManager.sol:GlpStakingManager",
        "label": "_initializing",
        "offset": 1,
        "slot": "0",
        "type": "t_bool"
      },
      {
        "astId": 1461,
        "contract": "contracts/yieldStrategy/gmx/GlpStakingManager.sol:GlpStakingManager",
        "label": "__gap",
        "offset": 0,
        "slot": "1",
        "type": "t_array(t_uint256)50_storage"
      },
      {
        "astId": 482,
        "contract": "contracts/yieldStrategy/gmx/GlpStakingManager.sol:GlpStakingManager",
        "label": "_balances",
        "offset": 0,
        "slot": "51",
        "type": "t_mapping(t_address,t_uint256)"
      },
      {
        "astId": 488,
        "contract": "contracts/yieldStrategy/gmx/GlpStakingManager.sol:GlpStakingManager",
        "label": "_allowances",
        "offset": 0,
        "slot": "52",
        "type": "t_mapping(t_address,t_mapping(t_address,t_uint256))"
      },
      {
        "astId": 490,
        "contract": "contracts/yieldStrategy/gmx/GlpStakingManager.sol:GlpStakingManager",
        "label": "_totalSupply",
        "offset": 0,
        "slot": "53",
        "type": "t_uint256"
      },
      {
        "astId": 492,
        "contract": "contracts/yieldStrategy/gmx/GlpStakingManager.sol:GlpStakingManager",
        "label": "_name",
        "offset": 0,
        "slot": "54",
        "type": "t_string_storage"
      },
      {
        "astId": 494,
        "contract": "contracts/yieldStrategy/gmx/GlpStakingManager.sol:GlpStakingManager",
        "label": "_symbol",
        "offset": 0,
        "slot": "55",
        "type": "t_string_storage"
      },
      {
        "astId": 1073,
        "contract": "contracts/yieldStrategy/gmx/GlpStakingManager.sol:GlpStakingManager",
        "label": "__gap",
        "offset": 0,
        "slot": "56",
        "type": "t_array(t_uint256)45_storage"
      },
      {
        "astId": 36082,
        "contract": "contracts/yieldStrategy/gmx/GlpStakingManager.sol:GlpStakingManager",
        "label": "asset",
        "offset": 0,
        "slot": "101",
        "type": "t_contract(IERC20Metadata)3718"
      },
      {
        "astId": 97,
        "contract": "contracts/yieldStrategy/gmx/GlpStakingManager.sol:GlpStakingManager",
        "label": "_owner",
        "offset": 0,
        "slot": "102",
        "type": "t_address"
      },
      {
        "astId": 209,
        "contract": "contracts/yieldStrategy/gmx/GlpStakingManager.sol:GlpStakingManager",
        "label": "__gap",
        "offset": 0,
        "slot": "103",
        "type": "t_array(t_uint256)49_storage"
      },
      {
        "astId": 39827,
        "contract": "contracts/yieldStrategy/gmx/GlpStakingManager.sol:GlpStakingManager",
        "label": "_gaps",
        "offset": 0,
        "slot": "152",
        "type": "t_array(t_uint256)100_storage"
      },
      {
        "astId": 39844,
        "contract": "contracts/yieldStrategy/gmx/GlpStakingManager.sol:GlpStakingManager",
        "label": "FEE",
        "offset": 0,
        "slot": "252",
        "type": "t_uint256"
      },
      {
        "astId": 39846,
        "contract": "contracts/yieldStrategy/gmx/GlpStakingManager.sol:GlpStakingManager",
        "label": "protocolFee",
        "offset": 0,
        "slot": "253",
        "type": "t_uint256"
      },
      {
        "astId": 39848,
        "contract": "contracts/yieldStrategy/gmx/GlpStakingManager.sol:GlpStakingManager",
        "label": "wethThreshold",
        "offset": 0,
        "slot": "254",
        "type": "t_uint256"
      },
      {
        "astId": 39850,
        "contract": "contracts/yieldStrategy/gmx/GlpStakingManager.sol:GlpStakingManager",
        "label": "slippageThreshold",
        "offset": 0,
        "slot": "255",
        "type": "t_uint256"
      },
      {
        "astId": 39852,
        "contract": "contracts/yieldStrategy/gmx/GlpStakingManager.sol:GlpStakingManager",
        "label": "feeRecipient",
        "offset": 0,
        "slot": "256",
        "type": "t_address"
      },
      {
        "astId": 39855,
        "contract": "contracts/yieldStrategy/gmx/GlpStakingManager.sol:GlpStakingManager",
        "label": "weth",
        "offset": 0,
        "slot": "257",
        "type": "t_contract(IERC20)3612"
      },
      {
        "astId": 39858,
        "contract": "contracts/yieldStrategy/gmx/GlpStakingManager.sol:GlpStakingManager",
        "label": "usdc",
        "offset": 0,
        "slot": "258",
        "type": "t_contract(IERC20)3612"
      },
      {
        "astId": 39861,
        "contract": "contracts/yieldStrategy/gmx/GlpStakingManager.sol:GlpStakingManager",
        "label": "fsGlp",
        "offset": 0,
        "slot": "259",
        "type": "t_contract(IERC20)3612"
      },
      {
        "astId": 39864,
        "contract": "contracts/yieldStrategy/gmx/GlpStakingManager.sol:GlpStakingManager",
        "label": "gmxVault",
        "offset": 0,
        "slot": "260",
        "type": "t_contract(IVault)32042"
      },
      {
        "astId": 39867,
        "contract": "contracts/yieldStrategy/gmx/GlpStakingManager.sol:GlpStakingManager",
        "label": "glpManager",
        "offset": 0,
        "slot": "261",
        "type": "t_contract(IGlpManager)31297"
      },
      {
        "astId": 39870,
        "contract": "contracts/yieldStrategy/gmx/GlpStakingManager.sol:GlpStakingManager",
        "label": "rewardRouter",
        "offset": 0,
        "slot": "262",
        "type": "t_contract(IRewardRouterV2)31476"
      },
      {
        "astId": 39873,
        "contract": "contracts/yieldStrategy/gmx/GlpStakingManager.sol:GlpStakingManager",
        "label": "batchingManager",
        "offset": 0,
        "slot": "263",
        "type": "t_contract(IGMXBatchingManager)31199"
      },
      {
        "astId": 39877,
        "contract": "contracts/yieldStrategy/gmx/GlpStakingManager.sol:GlpStakingManager",
        "label": "isVault",
        "offset": 0,
        "slot": "264",
        "type": "t_mapping(t_address,t_bool)"
      },
      {
        "astId": 39881,
        "contract": "contracts/yieldStrategy/gmx/GlpStakingManager.sol:GlpStakingManager",
        "label": "_gaps2",
        "offset": 0,
        "slot": "265",
        "type": "t_array(t_uint256)100_storage"
      }
    ],
    "types": {
      "t_address": {
        "encoding": "inplace",
        "label": "address",
        "numberOfBytes": "20"
      },
      "t_array(t_uint256)100_storage": {
        "base": "t_uint256",
        "encoding": "inplace",
        "label": "uint256[100]",
        "numberOfBytes": "3200"
      },
      "t_array(t_uint256)45_storage": {
        "base": "t_uint256",
        "encoding": "inplace",
        "label": "uint256[45]",
        "numberOfBytes": "1440"
      },
      "t_array(t_uint256)49_storage": {
        "base": "t_uint256",
        "encoding": "inplace",
        "label": "uint256[49]",
        "numberOfBytes": "1568"
      },
      "t_array(t_uint256)50_storage": {
        "base": "t_uint256",
        "encoding": "inplace",
        "label": "uint256[50]",
        "numberOfBytes": "1600"
      },
      "t_bool": {
        "encoding": "inplace",
        "label": "bool",
        "numberOfBytes": "1"
      },
      "t_contract(IERC20)3612": {
        "encoding": "inplace",
        "label": "contract IERC20",
        "numberOfBytes": "20"
      },
      "t_contract(IERC20Metadata)3718": {
        "encoding": "inplace",
        "label": "contract IERC20Metadata",
        "numberOfBytes": "20"
      },
      "t_contract(IGMXBatchingManager)31199": {
        "encoding": "inplace",
        "label": "contract IGMXBatchingManager",
        "numberOfBytes": "20"
      },
      "t_contract(IGlpManager)31297": {
        "encoding": "inplace",
        "label": "contract IGlpManager",
        "numberOfBytes": "20"
      },
      "t_contract(IRewardRouterV2)31476": {
        "encoding": "inplace",
        "label": "contract IRewardRouterV2",
        "numberOfBytes": "20"
      },
      "t_contract(IVault)32042": {
        "encoding": "inplace",
        "label": "contract IVault",
        "numberOfBytes": "20"
      },
      "t_mapping(t_address,t_bool)": {
        "encoding": "mapping",
        "key": "t_address",
        "label": "mapping(address => bool)",
        "numberOfBytes": "32",
        "value": "t_bool"
      },
      "t_mapping(t_address,t_mapping(t_address,t_uint256))": {
        "encoding": "mapping",
        "key": "t_address",
        "label": "mapping(address => mapping(address => uint256))",
        "numberOfBytes": "32",
        "value": "t_mapping(t_address,t_uint256)"
      },
      "t_mapping(t_address,t_uint256)": {
        "encoding": "mapping",
        "key": "t_address",
        "label": "mapping(address => uint256)",
        "numberOfBytes": "32",
        "value": "t_uint256"
      },
      "t_string_storage": {
        "encoding": "bytes",
        "label": "string",
        "numberOfBytes": "32"
      },
      "t_uint256": {
        "encoding": "inplace",
        "label": "uint256",
        "numberOfBytes": "32"
      },
      "t_uint8": {
        "encoding": "inplace",
        "label": "uint8",
        "numberOfBytes": "1"
      }
    }
  }
}