{
  "address": "0x40934e8f35e33cE5272605AE075B46d85924E0A9",
  "abi": [
    {
      "inputs": [],
      "name": "CallerNotKeeper",
      "type": "error"
    },
    {
      "inputs": [
        {
          "internalType": "uint256",
          "name": "balance",
          "type": "uint256"
        }
      ],
      "name": "InsufficientShares",
      "type": "error"
    },
    {
      "inputs": [
        {
          "internalType": "uint256",
          "name": "errorCode",
          "type": "uint256"
        }
      ],
      "name": "InvalidInput",
      "type": "error"
    },
    {
      "inputs": [
        {
          "internalType": "bool",
          "name": "currentValue",
          "type": "bool"
        }
      ],
      "name": "InvalidSetDepositPaused",
      "type": "error"
    },
    {
      "inputs": [],
      "name": "ZeroBalance",
      "type": "error"
    },
    {
      "anonymous": false,
      "inputs": [
        {
          "indexed": false,
          "internalType": "uint256",
          "name": "userGlpAmount",
          "type": "uint256"
        },
        {
          "indexed": false,
          "internalType": "uint256",
          "name": "userShareAmount",
          "type": "uint256"
        }
      ],
      "name": "BatchDeposit",
      "type": "event"
    },
    {
      "anonymous": false,
      "inputs": [
        {
          "indexed": false,
          "internalType": "address",
          "name": "token",
          "type": "address"
        },
        {
          "indexed": false,
          "internalType": "address",
          "name": "receiver",
          "type": "address"
        },
        {
          "indexed": false,
          "internalType": "uint256",
          "name": "amount",
          "type": "uint256"
        },
        {
          "indexed": false,
          "internalType": "uint256",
          "name": "glpStaked",
          "type": "uint256"
        }
      ],
      "name": "DepositToken",
      "type": "event"
    },
    {
      "anonymous": false,
      "inputs": [
        {
          "indexed": false,
          "internalType": "uint8",
          "name": "version",
          "type": "uint8"
        }
      ],
      "name": "Initialized",
      "type": "event"
    },
    {
      "anonymous": false,
      "inputs": [
        {
          "indexed": false,
          "internalType": "address",
          "name": "newKeeper",
          "type": "address"
        }
      ],
      "name": "KeeperUpdated",
      "type": "event"
    },
    {
      "anonymous": false,
      "inputs": [
        {
          "indexed": true,
          "internalType": "address",
          "name": "previousOwner",
          "type": "address"
        },
        {
          "indexed": true,
          "internalType": "address",
          "name": "newOwner",
          "type": "address"
        }
      ],
      "name": "OwnershipTransferred",
      "type": "event"
    },
    {
      "anonymous": false,
      "inputs": [
        {
          "indexed": false,
          "internalType": "address",
          "name": "account",
          "type": "address"
        }
      ],
      "name": "Paused",
      "type": "event"
    },
    {
      "anonymous": false,
      "inputs": [
        {
          "indexed": false,
          "internalType": "address",
          "name": "from",
          "type": "address"
        },
        {
          "indexed": false,
          "internalType": "address",
          "name": "receiver",
          "type": "address"
        },
        {
          "indexed": false,
          "internalType": "uint256",
          "name": "claimAmount",
          "type": "uint256"
        }
      ],
      "name": "SharesClaimed",
      "type": "event"
    },
    {
      "anonymous": false,
      "inputs": [
        {
          "indexed": false,
          "internalType": "address",
          "name": "account",
          "type": "address"
        }
      ],
      "name": "Unpaused",
      "type": "event"
    },
    {
      "anonymous": false,
      "inputs": [
        {
          "indexed": false,
          "internalType": "uint256",
          "name": "vaultGlpAmount",
          "type": "uint256"
        }
      ],
      "name": "VaultDeposit",
      "type": "event"
    },
    {
      "inputs": [
        {
          "internalType": "address",
          "name": "receiver",
          "type": "address"
        },
        {
          "internalType": "uint256",
          "name": "amount",
          "type": "uint256"
        }
      ],
      "name": "claim",
      "outputs": [],
      "stateMutability": "nonpayable",
      "type": "function"
    },
    {
      "inputs": [],
      "name": "currentRound",
      "outputs": [
        {
          "internalType": "uint256",
          "name": "",
          "type": "uint256"
        }
      ],
      "stateMutability": "view",
      "type": "function"
    },
    {
      "inputs": [
        {
          "internalType": "address",
          "name": "token",
          "type": "address"
        },
        {
          "internalType": "uint256",
          "name": "amount",
          "type": "uint256"
        },
        {
          "internalType": "address",
          "name": "receiver",
          "type": "address"
        }
      ],
      "name": "depositToken",
      "outputs": [
        {
          "internalType": "uint256",
          "name": "glpStaked",
          "type": "uint256"
        }
      ],
      "stateMutability": "nonpayable",
      "type": "function"
    },
    {
      "inputs": [],
      "name": "executeBatchDeposit",
      "outputs": [],
      "stateMutability": "nonpayable",
      "type": "function"
    },
    {
      "inputs": [
        {
          "internalType": "address",
          "name": "account",
          "type": "address"
        }
      ],
      "name": "glpBalance",
      "outputs": [
        {
          "internalType": "uint256",
          "name": "balance",
          "type": "uint256"
        }
      ],
      "stateMutability": "view",
      "type": "function"
    },
    {
      "inputs": [],
      "name": "glpManager",
      "outputs": [
        {
          "internalType": "contract IGlpManager",
          "name": "",
          "type": "address"
        }
      ],
      "stateMutability": "view",
      "type": "function"
    },
    {
      "inputs": [],
      "name": "gmxVault",
      "outputs": [
        {
          "internalType": "contract IERC4626",
          "name": "",
          "type": "address"
        }
      ],
      "stateMutability": "view",
      "type": "function"
    },
    {
      "inputs": [],
      "name": "grantAllowances",
      "outputs": [],
      "stateMutability": "nonpayable",
      "type": "function"
    },
    {
      "inputs": [
        {
          "internalType": "contract IERC20",
          "name": "_sGlp",
          "type": "address"
        },
        {
          "internalType": "contract IRewardRouterV2",
          "name": "_rewardRouter",
          "type": "address"
        },
        {
          "internalType": "contract IGlpManager",
          "name": "_glpManager",
          "type": "address"
        },
        {
          "internalType": "contract IERC4626",
          "name": "_gmxVault",
          "type": "address"
        },
        {
          "internalType": "address",
          "name": "_keeper",
          "type": "address"
        }
      ],
      "name": "initialize",
      "outputs": [],
      "stateMutability": "nonpayable",
      "type": "function"
    },
    {
      "inputs": [],
      "name": "keeper",
      "outputs": [
        {
          "internalType": "address",
          "name": "",
          "type": "address"
        }
      ],
      "stateMutability": "view",
      "type": "function"
    },
    {
      "inputs": [],
      "name": "owner",
      "outputs": [
        {
          "internalType": "address",
          "name": "",
          "type": "address"
        }
      ],
      "stateMutability": "view",
      "type": "function"
    },
    {
      "inputs": [],
      "name": "pauseDeposit",
      "outputs": [],
      "stateMutability": "nonpayable",
      "type": "function"
    },
    {
      "inputs": [],
      "name": "paused",
      "outputs": [
        {
          "internalType": "bool",
          "name": "",
          "type": "bool"
        }
      ],
      "stateMutability": "view",
      "type": "function"
    },
    {
      "inputs": [],
      "name": "renounceOwnership",
      "outputs": [],
      "stateMutability": "nonpayable",
      "type": "function"
    },
    {
      "inputs": [],
      "name": "rewardRouter",
      "outputs": [
        {
          "internalType": "contract IRewardRouterV2",
          "name": "",
          "type": "address"
        }
      ],
      "stateMutability": "view",
      "type": "function"
    },
    {
      "inputs": [
        {
          "internalType": "uint256",
          "name": "",
          "type": "uint256"
        }
      ],
      "name": "roundDeposits",
      "outputs": [
        {
          "internalType": "uint128",
          "name": "totalGlp",
          "type": "uint128"
        },
        {
          "internalType": "uint128",
          "name": "totalShares",
          "type": "uint128"
        }
      ],
      "stateMutability": "view",
      "type": "function"
    },
    {
      "inputs": [],
      "name": "roundGlpBalance",
      "outputs": [
        {
          "internalType": "uint256",
          "name": "",
          "type": "uint256"
        }
      ],
      "stateMutability": "view",
      "type": "function"
    },
    {
      "inputs": [],
      "name": "sGlp",
      "outputs": [
        {
          "internalType": "contract IERC20",
          "name": "",
          "type": "address"
        }
      ],
      "stateMutability": "view",
      "type": "function"
    },
    {
      "inputs": [
        {
          "internalType": "address",
          "name": "_keeper",
          "type": "address"
        }
      ],
      "name": "setKeeper",
      "outputs": [],
      "stateMutability": "nonpayable",
      "type": "function"
    },
    {
      "inputs": [
        {
          "internalType": "address",
          "name": "newOwner",
          "type": "address"
        }
      ],
      "name": "transferOwnership",
      "outputs": [],
      "stateMutability": "nonpayable",
      "type": "function"
    },
    {
      "inputs": [
        {
          "internalType": "address",
          "name": "account",
          "type": "address"
        }
      ],
      "name": "unclaimedShares",
      "outputs": [
        {
          "internalType": "uint256",
          "name": "shares",
          "type": "uint256"
        }
      ],
      "stateMutability": "view",
      "type": "function"
    },
    {
      "inputs": [],
      "name": "unpauseDeposit",
      "outputs": [],
      "stateMutability": "nonpayable",
      "type": "function"
    },
    {
      "inputs": [
        {
          "internalType": "address",
          "name": "",
          "type": "address"
        }
      ],
      "name": "userDeposits",
      "outputs": [
        {
          "internalType": "uint256",
          "name": "round",
          "type": "uint256"
        },
        {
          "internalType": "uint128",
          "name": "glpBalance",
          "type": "uint128"
        },
        {
          "internalType": "uint128",
          "name": "unclaimedShares",
          "type": "uint128"
        }
      ],
      "stateMutability": "view",
      "type": "function"
    }
  ],
  "transactionHash": "0x618ab83a2e2104ab2a5b07cdbb2e66825dbee5e2970618bd1743cdf5533e2d4e",
  "args": [],
  "numDeployments": 1,
  "solcInputHash": "736696c18621c91e0b50d403a32cf139",
  "bytecode": "0x608060405234801561001057600080fd5b50611855806100206000396000f3fe608060405234801561001057600080fd5b506004361061017d5760003560e01c80638d4cb42b116100e3578063aced16611161008c578063dae115f611610066578063dae115f614610379578063f2fde38b146103cd578063fa6db1bc146103e057600080fd5b8063aced16611461034b578063b3b3453e1461035e578063bf9571f11461037157600080fd5b80639d575582116100bd5780639d575582146102e9578063aad3ec96146102fc578063ab504ad51461030f57600080fd5b80638d4cb42b146102905780638da5cb5b146102a3578063900de26d146102b457600080fd5b80635c975abb11610145578063715018a61161011f578063715018a61461026c578063748747e6146102745780638a19c8bc1461028757600080fd5b80635c975abb146102375780636847de111461024d57806369026e881461026457600080fd5b80630ba36dcd146101825780631459457a146101e7578063180282b3146101fc5780635157ced5146102045780635a3bb9891461020c575b600080fd5b6101bd610190366004611613565b609760205260009081526040902080546001909101546001600160801b0380821691600160801b90041683565b604080519384526001600160801b0392831660208501529116908201526060015b60405180910390f35b6101fa6101f5366004611630565b6103f3565b005b6101fa610482565b6101fa610700565b609b5461021f906001600160a01b031681565b6040516001600160a01b0390911681526020016101de565b60655460ff1660405190151581526020016101de565b610256609a5481565b6040519081526020016101de565b6101fa61073e565b6101fa61077a565b6101fa610282366004611613565b6107e3565b61025660995481565b609e5461021f906001600160a01b031681565b6033546001600160a01b031661021f565b6102566102c2366004611613565b6001600160a01b03166000908152609760205260409020600101546001600160801b031690565b6102566102f73660046116a1565b610891565b6101fa61030a3660046116e3565b610bd4565b61025661031d366004611613565b6001600160a01b0316600090815260976020526040902060010154600160801b90046001600160801b031690565b609f5461021f906001600160a01b031681565b609d5461021f906001600160a01b031681565b6101fa610e02565b6103ad61038736600461170f565b6098602052600090815260409020546001600160801b0380821691600160801b90041682565b604080516001600160801b039384168152929091166020830152016101de565b6101fa6103db366004611613565b610f54565b609c5461021f906001600160a01b031681565b60006103ff600161101c565b90508015610417576000805461ff0019166101001790555b61041f611137565b610427611166565b6104348686868686611195565b801561047a576000805461ff0019169055604051600181527f7f26b83ff96e1f2b6a682f133852f6798a09c465da95921460cefb38474024989060200160405180910390a15b505050505050565b609d546001600160a01b0316600090815260976020526040902060018101546001600160801b0316801580156104b85750609a54155b156104d65760405163334ab3f560e11b815260040160405180910390fd5b801561059c576001820180546001600160801b0319169055609e54609d5460405163a9059cbb60e01b81526001600160a01b0391821660048201526024810184905291169063a9059cbb906044016020604051808303816000875af1158015610543573d6000803e3d6000fd5b505050506040513d601f19601f820116820180604052508101906105679190611728565b506040518181527fabf360404ae6ccd945919fc14edb22686b6941aeee15d786c7047e4a0107eba59060200160405180910390a15b609a54156106e957609d54609a54604051636e553f6560e01b815260048101919091523060248201526000916001600160a01b031690636e553f65906044016020604051808303816000875af11580156105fa573d6000803e3d6000fd5b505050506040513d601f19601f8201168201806040525081019061061e919061174a565b90506040518060400160405280610636609a54611246565b6001600160801b0316815260200161064d83611246565b6001600160801b03908116909152609954600090815260986020908152604091829020845194909101518316600160801b0293909216929092179055609a5490517fadfac771a2d6bdd694f142072e097754baa049f7d0a1bf5d230dd1d6e162394b916106c4918490918252602082015260400190565b60405180910390a16000609a819055506099600081546106e390611779565b90915550505b60655460ff16156106fc576106fc61125c565b5050565b609f546001600160a01b0316336001600160a01b031614610734576040516304e1fa9f60e01b815260040160405180910390fd5b61073c61125c565b565b609f546001600160a01b0316336001600160a01b031614610772576040516304e1fa9f60e01b815260040160405180910390fd5b61073c6112f8565b6033546001600160a01b031633146107d95760405162461bcd60e51b815260206004820181905260248201527f4f776e61626c653a2063616c6c6572206973206e6f7420746865206f776e657260448201526064015b60405180910390fd5b61073c6000611373565b6033546001600160a01b0316331461083d5760405162461bcd60e51b815260206004820181905260248201527f4f776e61626c653a2063616c6c6572206973206e6f7420746865206f776e657260448201526064016107d0565b609f80546001600160a01b0319166001600160a01b0383169081179091556040519081527f0425bcd291db1d48816f2a98edc7ecaf6dd5c64b973d9e4b3b6b750763dc6c2e9060200160405180910390a150565b600061089f60655460ff1690565b156108df5760405162461bcd60e51b815260206004820152601060248201526f14185d5cd8589b194e881c185d5cd95960821b60448201526064016107d0565b6001600160a01b0384166109095760405163b80480b160e01b8152602060048201526024016107d0565b8260000361092d5760405163b80480b160e01b8152602160048201526024016107d0565b6001600160a01b0382166109575760405163b80480b160e01b8152602260048201526024016107d0565b6001600160a01b0384166323b872dd336040516001600160e01b031960e084901b1681526001600160a01b039091166004820152306024820152604481018690526064016020604051808303816000875af11580156109ba573d6000803e3d6000fd5b505050506040513d601f19601f820116820180604052508101906109de9190611728565b506001600160a01b0380831660008181526097602052604090206001810154609d5491936001600160801b039091169291169003610a5c57610a2086866113c5565b9250610a2b83611246565b610a359082611792565b6001830180546001600160801b0319166001600160801b0392909216919091179055610b79565b815460995481108015610a7857506000826001600160801b0316115b15610b0957600081815260986020526040902080546001850154610abb91610ab6916001600160801b0390811691600160801b8104821691166114e9565b611246565b600185018054601090610adf908490600160801b90046001600160801b0316611792565b92506101000a8154816001600160801b0302191690836001600160801b0316021790555060009250505b610b1387876113c5565b60995484559350610b2384611246565b610b2d9083611792565b6001840180546001600160801b0319166001600160801b0392909216919091179055610b5884611246565b6001600160801b0316609a6000828254610b7291906117bd565b9091555050505b604080516001600160a01b03808916825286166020820152908101869052606081018490527fbb01c612a93e37305a5f1f7b8ed63ea61211be444f722915b9dc827c0bdbffcc9060800160405180910390a150509392505050565b6001600160a01b038216610bfe5760405163b80480b160e01b8152601060048201526024016107d0565b80600003610c225760405163b80480b160e01b8152601160048201526024016107d0565b336000908152609760205260409020600181015481546099546001600160801b03600160801b840481169316919081108015610c6757506000826001600160801b0316115b15610cc05760008181526098602052604090208054610ca090610ab6906001600160801b0386811691600160801b8104821691166114e9565b610caa9085611792565b6001860180546001600160801b03191690559350505b50610cca84611246565b6001600160801b0316826001600160801b03161015610d07576040516307f885ff60e21b81526001600160801b03831660048201526024016107d0565b610d1084611246565b610d1a90836117d5565b6001840180546001600160801b03928316600160801b029216919091179055609d5460405163a9059cbb60e01b81526001600160a01b038781166004830152602482018790529091169063a9059cbb906044016020604051808303816000875af1158015610d8c573d6000803e3d6000fd5b505050506040513d601f19601f82011682018060405250810190610db09190611728565b50604080513381526001600160a01b03871660208201529081018590527f5c88b328c5b2ad9ebdf6ff97006b8557bd45f26293da0252d9a34931c684007a906060015b60405180910390a15050505050565b6033546001600160a01b03163314610e5c5760405162461bcd60e51b815260206004820181905260248201527f4f776e61626c653a2063616c6c6572206973206e6f7420746865206f776e657260448201526064016107d0565b609e54609b5460405163095ea7b360e01b81526001600160a01b039182166004820152600019602482015291169063095ea7b3906044016020604051808303816000875af1158015610eb2573d6000803e3d6000fd5b505050506040513d601f19601f82011682018060405250810190610ed69190611728565b50609e54609d5460405163095ea7b360e01b81526001600160a01b039182166004820152600019602482015291169063095ea7b3906044016020604051808303816000875af1158015610f2d573d6000803e3d6000fd5b505050506040513d601f19601f82011682018060405250810190610f519190611728565b50565b6033546001600160a01b03163314610fae5760405162461bcd60e51b815260206004820181905260248201527f4f776e61626c653a2063616c6c6572206973206e6f7420746865206f776e657260448201526064016107d0565b6001600160a01b0381166110135760405162461bcd60e51b815260206004820152602660248201527f4f776e61626c653a206e6577206f776e657220697320746865207a65726f206160448201526564647265737360d01b60648201526084016107d0565b610f5181611373565b60008054610100900460ff16156110aa578160ff16600114801561103f5750303b155b6110a25760405162461bcd60e51b815260206004820152602e60248201527f496e697469616c697a61626c653a20636f6e747261637420697320616c72656160448201526d191e481a5b9a5d1a585b1a5e995960921b60648201526084016107d0565b506000919050565b60005460ff8084169116106111185760405162461bcd60e51b815260206004820152602e60248201527f496e697469616c697a61626c653a20636f6e747261637420697320616c72656160448201526d191e481a5b9a5d1a585b1a5e995960921b60648201526084016107d0565b506000805460ff191660ff92909216919091179055600190565b919050565b600054610100900460ff1661115e5760405162461bcd60e51b81526004016107d0906117fd565b61073c61159b565b600054610100900460ff1661118d5760405162461bcd60e51b81526004016107d0906117fd565b61073c6115cb565b600054610100900460ff166111bc5760405162461bcd60e51b81526004016107d0906117fd565b609e80546001600160a01b03199081166001600160a01b0388811691909117909255609b80548216878416179055609c80548216868416179055609d80548216858416179055609f8054909116918316918217905560016099556040519081527f0425bcd291db1d48816f2a98edc7ecaf6dd5c64b973d9e4b3b6b750763dc6c2e90602001610df3565b806001600160801b038116811461113257600080fd5b60655460ff166112ae5760405162461bcd60e51b815260206004820152601460248201527f5061757361626c653a206e6f742070617573656400000000000000000000000060448201526064016107d0565b6065805460ff191690557f5db9ee0a495bf2e6ff9c91a7834c1ba4fdd244a5e8aa4e537bd38aeae4b073aa335b6040516001600160a01b03909116815260200160405180910390a1565b60655460ff161561133e5760405162461bcd60e51b815260206004820152601060248201526f14185d5cd8589b194e881c185d5cd95960821b60448201526064016107d0565b6065805460ff191660011790557f62e78cea01bee320cd4e420270b5ea74000d11b0c9f74754ebdbfc544b05a2586112db3390565b603380546001600160a01b038381166001600160a01b0319831681179093556040519116919082907f8be0079c531659141344cd1fd0a4f28419497f9722a3daafe3b4186f6b6457e090600090a35050565b609c5460405163095ea7b360e01b81526001600160a01b0391821660048201526024810183905260009184169063095ea7b3906044016020604051808303816000875af115801561141a573d6000803e3d6000fd5b505050506040513d601f19601f8201168201806040525081019061143e9190611728565b50609b546001600160a01b031663364e2311848461146481655666e940f00060646114e9565b6040516001600160e01b031960e086901b1681526001600160a01b03909316600484015260248301919091526044820152600060648201526084016020604051808303816000875af11580156114be573d6000803e3d6000fd5b505050506040513d601f19601f820116820180604052508101906114e2919061174a565b9392505050565b6000808060001985870985870292508281108382030391505080600003611522576000841161151757600080fd5b5082900490506114e2565b80841161152e57600080fd5b6000848688096000868103871696879004966002600389028118808a02820302808a02820302808a02820302808a02820302808a02820302808a02909103029181900381900460010186841190950394909402919094039290920491909117919091029150509392505050565b600054610100900460ff166115c25760405162461bcd60e51b81526004016107d0906117fd565b61073c33611373565b600054610100900460ff166115f25760405162461bcd60e51b81526004016107d0906117fd565b6065805460ff19169055565b6001600160a01b0381168114610f5157600080fd5b60006020828403121561162557600080fd5b81356114e2816115fe565b600080600080600060a0868803121561164857600080fd5b8535611653816115fe565b94506020860135611663816115fe565b93506040860135611673816115fe565b92506060860135611683816115fe565b91506080860135611693816115fe565b809150509295509295909350565b6000806000606084860312156116b657600080fd5b83356116c1816115fe565b92506020840135915060408401356116d8816115fe565b809150509250925092565b600080604083850312156116f657600080fd5b8235611701816115fe565b946020939093013593505050565b60006020828403121561172157600080fd5b5035919050565b60006020828403121561173a57600080fd5b815180151581146114e257600080fd5b60006020828403121561175c57600080fd5b5051919050565b634e487b7160e01b600052601160045260246000fd5b60006001820161178b5761178b611763565b5060010190565b60006001600160801b038083168185168083038211156117b4576117b4611763565b01949350505050565b600082198211156117d0576117d0611763565b500190565b60006001600160801b03838116908316818110156117f5576117f5611763565b039392505050565b6020808252602b908201527f496e697469616c697a61626c653a20636f6e7472616374206973206e6f74206960408201526a6e697469616c697a696e6760a81b60608201526080019056fea164736f6c634300080e000a",
  "devdoc": {
    "kind": "dev",
    "methods": {
      "owner()": {
        "details": "Returns the address of the current owner."
      },
      "paused()": {
        "details": "Returns true if the contract is paused, and false otherwise."
      },
      "renounceOwnership()": {
        "details": "Leaves the contract without owner. It will not be possible to call `onlyOwner` functions anymore. Can only be called by the current owner. NOTE: Renouncing ownership will leave the contract without an owner, thereby removing any functionality that is only available to the owner."
      },
      "transferOwnership(address)": {
        "details": "Transfers ownership of the contract to a new account (`newOwner`). Can only be called by the current owner."
      }
    },
    "version": 1
  },
  "userdoc": {
    "kind": "user",
    "methods": {},
    "version": 1
  },
  "storageLayout": {
    "storage": [
      {
        "astId": 217,
        "contract": "contracts/yieldStrategy/gmx/GMXBatchingManager.sol:GMXBatchingManager",
        "label": "_initialized",
        "offset": 0,
        "slot": "0",
        "type": "t_uint8"
      },
      {
        "astId": 220,
        "contract": "contracts/yieldStrategy/gmx/GMXBatchingManager.sol:GMXBatchingManager",
        "label": "_initializing",
        "offset": 1,
        "slot": "0",
        "type": "t_bool"
      },
      {
        "astId": 1461,
        "contract": "contracts/yieldStrategy/gmx/GMXBatchingManager.sol:GMXBatchingManager",
        "label": "__gap",
        "offset": 0,
        "slot": "1",
        "type": "t_array(t_uint256)50_storage"
      },
      {
        "astId": 97,
        "contract": "contracts/yieldStrategy/gmx/GMXBatchingManager.sol:GMXBatchingManager",
        "label": "_owner",
        "offset": 0,
        "slot": "51",
        "type": "t_address"
      },
      {
        "astId": 209,
        "contract": "contracts/yieldStrategy/gmx/GMXBatchingManager.sol:GMXBatchingManager",
        "label": "__gap",
        "offset": 0,
        "slot": "52",
        "type": "t_array(t_uint256)49_storage"
      },
      {
        "astId": 373,
        "contract": "contracts/yieldStrategy/gmx/GMXBatchingManager.sol:GMXBatchingManager",
        "label": "_paused",
        "offset": 0,
        "slot": "101",
        "type": "t_bool"
      },
      {
        "astId": 462,
        "contract": "contracts/yieldStrategy/gmx/GMXBatchingManager.sol:GMXBatchingManager",
        "label": "__gap",
        "offset": 0,
        "slot": "102",
        "type": "t_array(t_uint256)49_storage"
      },
      {
        "astId": 37453,
        "contract": "contracts/yieldStrategy/gmx/GMXBatchingManager.sol:GMXBatchingManager",
        "label": "userDeposits",
        "offset": 0,
        "slot": "151",
        "type": "t_mapping(t_address,t_struct(UserDeposit)31116_storage)"
      },
      {
        "astId": 37458,
        "contract": "contracts/yieldStrategy/gmx/GMXBatchingManager.sol:GMXBatchingManager",
        "label": "roundDeposits",
        "offset": 0,
        "slot": "152",
        "type": "t_mapping(t_uint256,t_struct(RoundDeposit)31121_storage)"
      },
      {
        "astId": 37472,
        "contract": "contracts/yieldStrategy/gmx/GMXBatchingManager.sol:GMXBatchingManager",
        "label": "currentRound",
        "offset": 0,
        "slot": "153",
        "type": "t_uint256"
      },
      {
        "astId": 37474,
        "contract": "contracts/yieldStrategy/gmx/GMXBatchingManager.sol:GMXBatchingManager",
        "label": "roundGlpBalance",
        "offset": 0,
        "slot": "154",
        "type": "t_uint256"
      },
      {
        "astId": 37477,
        "contract": "contracts/yieldStrategy/gmx/GMXBatchingManager.sol:GMXBatchingManager",
        "label": "rewardRouter",
        "offset": 0,
        "slot": "155",
        "type": "t_contract(IRewardRouterV2)31385"
      },
      {
        "astId": 37480,
        "contract": "contracts/yieldStrategy/gmx/GMXBatchingManager.sol:GMXBatchingManager",
        "label": "glpManager",
        "offset": 0,
        "slot": "156",
        "type": "t_contract(IGlpManager)31250"
      },
      {
        "astId": 37483,
        "contract": "contracts/yieldStrategy/gmx/GMXBatchingManager.sol:GMXBatchingManager",
        "label": "gmxVault",
        "offset": 0,
        "slot": "157",
        "type": "t_contract(IERC4626)30841"
      },
      {
        "astId": 37486,
        "contract": "contracts/yieldStrategy/gmx/GMXBatchingManager.sol:GMXBatchingManager",
        "label": "sGlp",
        "offset": 0,
        "slot": "158",
        "type": "t_contract(IERC20)3612"
      },
      {
        "astId": 37488,
        "contract": "contracts/yieldStrategy/gmx/GMXBatchingManager.sol:GMXBatchingManager",
        "label": "keeper",
        "offset": 0,
        "slot": "159",
        "type": "t_address"
      }
    ],
    "types": {
      "t_address": {
        "encoding": "inplace",
        "label": "address",
        "numberOfBytes": "20"
      },
      "t_array(t_uint256)49_storage": {
        "base": "t_uint256",
        "encoding": "inplace",
        "label": "uint256[49]",
        "numberOfBytes": "1568"
      },
      "t_array(t_uint256)50_storage": {
        "base": "t_uint256",
        "encoding": "inplace",
        "label": "uint256[50]",
        "numberOfBytes": "1600"
      },
      "t_bool": {
        "encoding": "inplace",
        "label": "bool",
        "numberOfBytes": "1"
      },
      "t_contract(IERC20)3612": {
        "encoding": "inplace",
        "label": "contract IERC20",
        "numberOfBytes": "20"
      },
      "t_contract(IERC4626)30841": {
        "encoding": "inplace",
        "label": "contract IERC4626",
        "numberOfBytes": "20"
      },
      "t_contract(IGlpManager)31250": {
        "encoding": "inplace",
        "label": "contract IGlpManager",
        "numberOfBytes": "20"
      },
      "t_contract(IRewardRouterV2)31385": {
        "encoding": "inplace",
        "label": "contract IRewardRouterV2",
        "numberOfBytes": "20"
      },
      "t_mapping(t_address,t_struct(UserDeposit)31116_storage)": {
        "encoding": "mapping",
        "key": "t_address",
        "label": "mapping(address => struct IGMXBatchingManager.UserDeposit)",
        "numberOfBytes": "32",
        "value": "t_struct(UserDeposit)31116_storage"
      },
      "t_mapping(t_uint256,t_struct(RoundDeposit)31121_storage)": {
        "encoding": "mapping",
        "key": "t_uint256",
        "label": "mapping(uint256 => struct IGMXBatchingManager.RoundDeposit)",
        "numberOfBytes": "32",
        "value": "t_struct(RoundDeposit)31121_storage"
      },
      "t_struct(RoundDeposit)31121_storage": {
        "encoding": "inplace",
        "label": "struct IGMXBatchingManager.RoundDeposit",
        "members": [
          {
            "astId": 31118,
            "contract": "contracts/yieldStrategy/gmx/GMXBatchingManager.sol:GMXBatchingManager",
            "label": "totalGlp",
            "offset": 0,
            "slot": "0",
            "type": "t_uint128"
          },
          {
            "astId": 31120,
            "contract": "contracts/yieldStrategy/gmx/GMXBatchingManager.sol:GMXBatchingManager",
            "label": "totalShares",
            "offset": 16,
            "slot": "0",
            "type": "t_uint128"
          }
        ],
        "numberOfBytes": "32"
      },
      "t_struct(UserDeposit)31116_storage": {
        "encoding": "inplace",
        "label": "struct IGMXBatchingManager.UserDeposit",
        "members": [
          {
            "astId": 31111,
            "contract": "contracts/yieldStrategy/gmx/GMXBatchingManager.sol:GMXBatchingManager",
            "label": "round",
            "offset": 0,
            "slot": "0",
            "type": "t_uint256"
          },
          {
            "astId": 31113,
            "contract": "contracts/yieldStrategy/gmx/GMXBatchingManager.sol:GMXBatchingManager",
            "label": "glpBalance",
            "offset": 0,
            "slot": "1",
            "type": "t_uint128"
          },
          {
            "astId": 31115,
            "contract": "contracts/yieldStrategy/gmx/GMXBatchingManager.sol:GMXBatchingManager",
            "label": "unclaimedShares",
            "offset": 16,
            "slot": "1",
            "type": "t_uint128"
          }
        ],
        "numberOfBytes": "64"
      },
      "t_uint128": {
        "encoding": "inplace",
        "label": "uint128",
        "numberOfBytes": "16"
      },
      "t_uint256": {
        "encoding": "inplace",
        "label": "uint256",
        "numberOfBytes": "32"
      },
      "t_uint8": {
        "encoding": "inplace",
        "label": "uint8",
        "numberOfBytes": "1"
      }
    }
  }
}