{
  "address": "0x10aAb5ec5d00547369Db9369FA59d48d432919DA",
  "abi": [
    {
      "inputs": [],
      "name": "NegativePrice",
      "type": "error"
    },
    {
      "inputs": [],
      "name": "OutOfBounds",
      "type": "error"
    },
    {
      "inputs": [],
      "name": "SlippageToleranceBreached",
      "type": "error"
    },
    {
      "inputs": [],
      "name": "ZeroValue",
      "type": "error"
    },
    {
      "anonymous": false,
      "inputs": [
        {
          "indexed": true,
          "internalType": "address",
          "name": "previousOwner",
          "type": "address"
        },
        {
          "indexed": true,
          "internalType": "address",
          "name": "newOwner",
          "type": "address"
        }
      ],
      "name": "OwnershipTransferred",
      "type": "event"
    },
    {
      "inputs": [
        {
          "internalType": "uint256",
          "name": "amount",
          "type": "uint256"
        }
      ],
      "name": "depositUsdc",
      "outputs": [
        {
          "internalType": "uint256",
          "name": "sharesMinted",
          "type": "uint256"
        }
      ],
      "stateMutability": "nonpayable",
      "type": "function"
    },
    {
      "inputs": [
        {
          "internalType": "uint256",
          "name": "amount",
          "type": "uint256"
        }
      ],
      "name": "depositWeth",
      "outputs": [
        {
          "internalType": "uint256",
          "name": "sharesMinted",
          "type": "uint256"
        }
      ],
      "stateMutability": "nonpayable",
      "type": "function"
    },
    {
      "inputs": [
        {
          "internalType": "contract IERC20",
          "name": "_usdc",
          "type": "address"
        },
        {
          "internalType": "contract IERC20",
          "name": "_usdt",
          "type": "address"
        },
        {
          "internalType": "contract IERC20",
          "name": "_weth",
          "type": "address"
        },
        {
          "internalType": "contract IERC20",
          "name": "_lpToken",
          "type": "address"
        },
        {
          "internalType": "contract IERC4626",
          "name": "_vault",
          "type": "address"
        },
        {
          "internalType": "contract ISwapRouter",
          "name": "_swapRouter",
          "type": "address"
        },
        {
          "internalType": "contract ILPPriceGetter",
          "name": "_lpOracle",
          "type": "address"
        },
        {
          "internalType": "contract ICurveStableSwap",
          "name": "_stableSwap",
          "type": "address"
        },
        {
          "internalType": "contract AggregatorV3Interface",
          "name": "_ethOracle",
          "type": "address"
        }
      ],
      "name": "initialize",
      "outputs": [],
      "stateMutability": "nonpayable",
      "type": "function"
    },
    {
      "inputs": [],
      "name": "lpOracle",
      "outputs": [
        {
          "internalType": "contract ILPPriceGetter",
          "name": "",
          "type": "address"
        }
      ],
      "stateMutability": "view",
      "type": "function"
    },
    {
      "inputs": [],
      "name": "lpToken",
      "outputs": [
        {
          "internalType": "contract IERC20",
          "name": "",
          "type": "address"
        }
      ],
      "stateMutability": "view",
      "type": "function"
    },
    {
      "inputs": [],
      "name": "owner",
      "outputs": [
        {
          "internalType": "address",
          "name": "",
          "type": "address"
        }
      ],
      "stateMutability": "view",
      "type": "function"
    },
    {
      "inputs": [],
      "name": "renounceOwnership",
      "outputs": [],
      "stateMutability": "nonpayable",
      "type": "function"
    },
    {
      "inputs": [],
      "name": "stableSwap",
      "outputs": [
        {
          "internalType": "contract ICurveStableSwap",
          "name": "",
          "type": "address"
        }
      ],
      "stateMutability": "view",
      "type": "function"
    },
    {
      "inputs": [],
      "name": "swapRouter",
      "outputs": [
        {
          "internalType": "contract ISwapRouter",
          "name": "",
          "type": "address"
        }
      ],
      "stateMutability": "view",
      "type": "function"
    },
    {
      "inputs": [
        {
          "internalType": "address",
          "name": "newOwner",
          "type": "address"
        }
      ],
      "name": "transferOwnership",
      "outputs": [],
      "stateMutability": "nonpayable",
      "type": "function"
    },
    {
      "inputs": [
        {
          "internalType": "address",
          "name": "newOracle",
          "type": "address"
        }
      ],
      "name": "updateEthOracle",
      "outputs": [],
      "stateMutability": "nonpayable",
      "type": "function"
    },
    {
      "inputs": [
        {
          "internalType": "address",
          "name": "newRouter",
          "type": "address"
        }
      ],
      "name": "updateSwapRouter",
      "outputs": [],
      "stateMutability": "nonpayable",
      "type": "function"
    },
    {
      "inputs": [
        {
          "internalType": "uint256",
          "name": "newTolerance",
          "type": "uint256"
        }
      ],
      "name": "updateTolerance",
      "outputs": [],
      "stateMutability": "nonpayable",
      "type": "function"
    },
    {
      "inputs": [],
      "name": "usdc",
      "outputs": [
        {
          "internalType": "contract IERC20",
          "name": "",
          "type": "address"
        }
      ],
      "stateMutability": "view",
      "type": "function"
    },
    {
      "inputs": [],
      "name": "usdt",
      "outputs": [
        {
          "internalType": "contract IERC20",
          "name": "",
          "type": "address"
        }
      ],
      "stateMutability": "view",
      "type": "function"
    },
    {
      "inputs": [],
      "name": "vault",
      "outputs": [
        {
          "internalType": "contract IERC4626",
          "name": "",
          "type": "address"
        }
      ],
      "stateMutability": "view",
      "type": "function"
    },
    {
      "inputs": [],
      "name": "weth",
      "outputs": [
        {
          "internalType": "contract IERC20",
          "name": "",
          "type": "address"
        }
      ],
      "stateMutability": "view",
      "type": "function"
    }
  ],
  "transactionHash": "0x16c22bc931a72c4c5d8270c567886684aad657d49d801b0b85e7a5c699c1a47e",
  "args": [],
  "numDeployments": 2,
  "solcInputHash": "5679bf49e422be973bffc1396c03dcb7",
  "bytecode": "0x60806040526032606e55612710606f5534801561001b57600080fd5b506114578061002b6000396000f3fe608060405234801561001057600080fd5b506004361061010b5760003560e01c8063715018a6116100a2578063b98b677f11610071578063b98b677f14610214578063c31c9c0714610227578063f2fde38b1461023a578063f5e95acb1461024d578063fbfa77cf1461026057600080fd5b8063715018a6146101d55780638da5cb5b146101dd57806398733df0146101ee5780639e548b7f1461020157600080fd5b80633fc8cef3116100de5780633fc8cef3146101875780635fcbd2851461019a578063690e0dda146101ad5780636c13f8d7146101c057600080fd5b8063062b032f146101105780632357928e146101405780632f48ab7d146101615780633e413bee14610174575b600080fd5b606b54610123906001600160a01b031681565b6040516001600160a01b0390911681526020015b60405180910390f35b61015361014e3660046110e0565b610273565b604051908152602001610137565b606654610123906001600160a01b031681565b606554610123906001600160a01b031681565b606754610123906001600160a01b031681565b606854610123906001600160a01b031681565b6101536101bb3660046110e0565b610648565b6101d36101ce3660046110e0565b6109a9565b005b6101d3610a04565b6033546001600160a01b0316610123565b6101d36101fc36600461110e565b610a3a565b606c54610123906001600160a01b031681565b6101d361022236600461110e565b610aad565b606a54610123906001600160a01b031681565b6101d361024836600461110e565b610b20565b6101d361025b36600461112b565b610bbb565b606954610123906001600160a01b031681565b60008160000361029657604051637c946ed760e01b815260040160405180910390fd5b6065546040516323b872dd60e01b8152336004820152306024820152604481018490526001600160a01b03909116906323b872dd906064016020604051808303816000875af11580156102ed573d6000803e3d6000fd5b505050506040513d601f19601f8201168201806040525081019061031191906111e7565b506065546066546040516bffffffffffffffffffffffff19606093841b81166020830152607d60ea1b60348301529190921b166037820152600090604b0160408051601f1981840301815260a083018252808352306020840152428383015260608301869052600060808401819052606a54925163c04b8d5960e01b8152919450916001600160a01b03169063c04b8d59906103b1908590600401611209565b6020604051808303816000875af11580156103d0573d6000803e3d6000fd5b505050506040513d601f19601f820116820180604052508101906103f4919061129c565b90506000606b60009054906101000a90046001600160a01b03166001600160a01b03166354f0f7d56040518163ffffffff1660e01b8152600401602060405180830381865afa15801561044b573d6000803e3d6000fd5b505050506040513d601f19601f8201168201806040525081019061046f919061129c565b606c54604080516060810182528581526000602082018190528183018190529151634515cef360e01b81529394506001600160a01b0390921692634515cef3926104bd9290916004016112b5565b600060405180830381600087803b1580156104d757600080fd5b505af11580156104eb573d6000803e3d6000fd5b50506068546040516370a0823160e01b8152306004820152600093506001600160a01b0390911691506370a0823190602401602060405180830381865afa15801561053a573d6000803e3d6000fd5b505050506040513d601f19601f8201168201806040525081019061055e919061129c565b9050606f54606e54606f546105739190611303565b61057d908961131a565b61058c9064e8d4a5100061131a565b6105969190611339565b6105a98284670de0b6b3a7640000610eee565b10156105c8576040516397ebf5d960e01b815260040160405180910390fd5b606954604051636e553f6560e01b8152600481018390523360248201526001600160a01b0390911690636e553f65906044016020604051808303816000875af1158015610619573d6000803e3d6000fd5b505050506040513d601f19601f8201168201806040525081019061063d919061129c565b979650505050505050565b60008160000361066b57604051637c946ed760e01b815260040160405180910390fd5b6067546040516323b872dd60e01b8152336004820152306024820152604481018490526001600160a01b03909116906323b872dd906064016020604051808303816000875af11580156106c2573d6000803e3d6000fd5b505050506040513d601f19601f820116820180604052508101906106e691906111e7565b50606b54604080516354f0f7d560e01b815290516000926001600160a01b0316916354f0f7d59160048083019260209291908290030181865afa158015610731573d6000803e3d6000fd5b505050506040513d601f19601f82011682018060405250810190610755919061129c565b606c54604080516060810182526000808252602082018190528183018890529151634515cef360e01b81529394506001600160a01b0390921692634515cef3926107a39290916004016112b5565b600060405180830381600087803b1580156107bd57600080fd5b505af11580156107d1573d6000803e3d6000fd5b50506068546040516370a0823160e01b8152306004820152600093506001600160a01b0390911691506370a0823190602401602060405180830381865afa158015610820573d6000803e3d6000fd5b505050506040513d601f19601f82011682018060405250810190610844919061129c565b9050610890606e54606f546108599190611303565b610863908661131a565b606f54610874906305f5e10061131a565b606d54610889906001600160a01b0316610fa1565b9190610eee565b6108a38284670de0b6b3a7640000610eee565b10156108c2576040516397ebf5d960e01b815260040160405180910390fd5b6069546068546040516370a0823160e01b81523060048201526001600160a01b0392831692636e553f659216906370a0823190602401602060405180830381865afa158015610915573d6000803e3d6000fd5b505050506040513d601f19601f82011682018060405250810190610939919061129c565b6040516001600160e01b031960e084901b16815260048101919091523360248201526044016020604051808303816000875af115801561097d573d6000803e3d6000fd5b505050506040513d601f19601f820116820180604052508101906109a1919061129c565b949350505050565b6033546001600160a01b031633146109dc5760405162461bcd60e51b81526004016109d39061135b565b60405180910390fd5b606f548111156109ff57604051632d0483c560e21b815260040160405180910390fd5b606e55565b6033546001600160a01b03163314610a2e5760405162461bcd60e51b81526004016109d39061135b565b610a386000611034565b565b6033546001600160a01b03163314610a645760405162461bcd60e51b81526004016109d39061135b565b6001600160a01b038116610a8b57604051637c946ed760e01b815260040160405180910390fd5b606d80546001600160a01b0319166001600160a01b0392909216919091179055565b6033546001600160a01b03163314610ad75760405162461bcd60e51b81526004016109d39061135b565b6001600160a01b038116610afe57604051637c946ed760e01b815260040160405180910390fd5b606a80546001600160a01b0319166001600160a01b0392909216919091179055565b6033546001600160a01b03163314610b4a5760405162461bcd60e51b81526004016109d39061135b565b6001600160a01b038116610baf5760405162461bcd60e51b815260206004820152602660248201527f4f776e61626c653a206e6577206f776e657220697320746865207a65726f206160448201526564647265737360d01b60648201526084016109d3565b610bb881611034565b50565b600054610100900460ff16610bd65760005460ff1615610bda565b303b155b610c3d5760405162461bcd60e51b815260206004820152602e60248201527f496e697469616c697a61626c653a20636f6e747261637420697320616c72656160448201526d191e481a5b9a5d1a585b1a5e995960921b60648201526084016109d3565b600054610100900460ff16158015610c5f576000805461ffff19166101011790555b610c67611086565b606580546001600160a01b03199081166001600160a01b038d8116919091179092556066805482168c84161790556067805482168b84169081179091556069805483168a85161790556068805483168b8516179055606b80548316888516179055606c80548316878516908117909155606a805484168a8616179055606d80549093169386169390931790915560405163095ea7b360e01b8152600481019290925260001960248301529063095ea7b3906044016020604051808303816000875af1158015610d3a573d6000803e3d6000fd5b505050506040513d601f19601f82011682018060405250810190610d5e91906111e7565b50606654606c5460405163095ea7b360e01b81526001600160a01b039182166004820152600019602482015291169063095ea7b3906044016020604051808303816000875af1158015610db5573d6000803e3d6000fd5b505050506040513d601f19601f82011682018060405250810190610dd991906111e7565b50606554606a5460405163095ea7b360e01b81526001600160a01b039182166004820152600019602482015291169063095ea7b3906044016020604051808303816000875af1158015610e30573d6000803e3d6000fd5b505050506040513d601f19601f82011682018060405250810190610e5491906111e7565b5060685460695460405163095ea7b360e01b81526001600160a01b039182166004820152600019602482015291169063095ea7b3906044016020604051808303816000875af1158015610eab573d6000803e3d6000fd5b505050506040513d601f19601f82011682018060405250810190610ecf91906111e7565b508015610ee2576000805461ff00191690555b50505050505050505050565b6000808060001985870985870292508281108382030391505080600003610f275760008411610f1c57600080fd5b508290049050610f9a565b808411610f3357600080fd5b6000848688096000868103871696879004966002600389028118808a02820302808a02820302808a02820302808a02820302808a02820302808a02909103029181900381900460010186841190950394909402919094039290920491909117919091029150505b9392505050565b600080826001600160a01b031663feaf968c6040518163ffffffff1660e01b815260040160a060405180830381865afa158015610fe2573d6000803e3d6000fd5b505050506040513d601f19601f8201168201806040525081019061100691906113af565b505050915050600081121561102e576040516330e53b6960e11b815260040160405180910390fd5b92915050565b603380546001600160a01b038381166001600160a01b0319831681179093556040519116919082907f8be0079c531659141344cd1fd0a4f28419497f9722a3daafe3b4186f6b6457e090600090a35050565b600054610100900460ff166110ad5760405162461bcd60e51b81526004016109d3906113ff565b610a38600054610100900460ff166110d75760405162461bcd60e51b81526004016109d3906113ff565b610a3833611034565b6000602082840312156110f257600080fd5b5035919050565b6001600160a01b0381168114610bb857600080fd5b60006020828403121561112057600080fd5b8135610f9a816110f9565b60008060008060008060008060006101208a8c03121561114a57600080fd5b8935611155816110f9565b985060208a0135611165816110f9565b975060408a0135611175816110f9565b965060608a0135611185816110f9565b955060808a0135611195816110f9565b945060a08a01356111a5816110f9565b935060c08a01356111b5816110f9565b925060e08a01356111c5816110f9565b91506101008a01356111d6816110f9565b809150509295985092959850929598565b6000602082840312156111f957600080fd5b81518015158114610f9a57600080fd5b60006020808352835160a08285015280518060c086015260005b8181101561123f5782810184015186820160e001528301611223565b8181111561125157600060e083880101525b50918501516001600160a01b0381166040860152916040860151606086015260608601516080860152608086015160a086015260e0601f19601f830116860101935050505092915050565b6000602082840312156112ae57600080fd5b5051919050565b60808101818460005b60038110156112dd5781518352602092830192909101906001016112be565b5050508260608301529392505050565b634e487b7160e01b600052601160045260246000fd5b600082821015611315576113156112ed565b500390565b6000816000190483118215151615611334576113346112ed565b500290565b60008261135657634e487b7160e01b600052601260045260246000fd5b500490565b6020808252818101527f4f776e61626c653a2063616c6c6572206973206e6f7420746865206f776e6572604082015260600190565b805169ffffffffffffffffffff811681146113aa57600080fd5b919050565b600080600080600060a086880312156113c757600080fd5b6113d086611390565b94506020860151935060408601519250606086015191506113f360808701611390565b90509295509295909350565b6020808252602b908201527f496e697469616c697a61626c653a20636f6e7472616374206973206e6f74206960408201526a6e697469616c697a696e6760a81b60608201526080019056fea164736f6c634300080d000a",
  "devdoc": {
    "kind": "dev",
    "methods": {
      "owner()": {
        "details": "Returns the address of the current owner."
      },
      "renounceOwnership()": {
        "details": "Leaves the contract without owner. It will not be possible to call `onlyOwner` functions anymore. Can only be called by the current owner. NOTE: Renouncing ownership will leave the contract without an owner, thereby removing any functionality that is only available to the owner."
      },
      "transferOwnership(address)": {
        "details": "Transfers ownership of the contract to a new account (`newOwner`). Can only be called by the current owner."
      }
    },
    "stateVariables": {
      "MAX_TOLERANCE": {
        "details": "sum of fees + slippage when swapping usdc to usdt"
      }
    },
    "version": 1
  },
  "userdoc": {
    "kind": "user",
    "methods": {},
    "version": 1
  },
  "storageLayout": {
    "storage": [
      {
        "astId": 217,
        "contract": "contracts/yieldStrategy/VaultPeriphery.sol:VaultPeriphery",
        "label": "_initialized",
        "offset": 0,
        "slot": "0",
        "type": "t_bool"
      },
      {
        "astId": 220,
        "contract": "contracts/yieldStrategy/VaultPeriphery.sol:VaultPeriphery",
        "label": "_initializing",
        "offset": 1,
        "slot": "0",
        "type": "t_bool"
      },
      {
        "astId": 1395,
        "contract": "contracts/yieldStrategy/VaultPeriphery.sol:VaultPeriphery",
        "label": "__gap",
        "offset": 0,
        "slot": "1",
        "type": "t_array(t_uint256)50_storage"
      },
      {
        "astId": 97,
        "contract": "contracts/yieldStrategy/VaultPeriphery.sol:VaultPeriphery",
        "label": "_owner",
        "offset": 0,
        "slot": "51",
        "type": "t_address"
      },
      {
        "astId": 209,
        "contract": "contracts/yieldStrategy/VaultPeriphery.sol:VaultPeriphery",
        "label": "__gap",
        "offset": 0,
        "slot": "52",
        "type": "t_array(t_uint256)49_storage"
      },
      {
        "astId": 31034,
        "contract": "contracts/yieldStrategy/VaultPeriphery.sol:VaultPeriphery",
        "label": "usdc",
        "offset": 0,
        "slot": "101",
        "type": "t_contract(IERC20)3537"
      },
      {
        "astId": 31037,
        "contract": "contracts/yieldStrategy/VaultPeriphery.sol:VaultPeriphery",
        "label": "usdt",
        "offset": 0,
        "slot": "102",
        "type": "t_contract(IERC20)3537"
      },
      {
        "astId": 31040,
        "contract": "contracts/yieldStrategy/VaultPeriphery.sol:VaultPeriphery",
        "label": "weth",
        "offset": 0,
        "slot": "103",
        "type": "t_contract(IERC20)3537"
      },
      {
        "astId": 31043,
        "contract": "contracts/yieldStrategy/VaultPeriphery.sol:VaultPeriphery",
        "label": "lpToken",
        "offset": 0,
        "slot": "104",
        "type": "t_contract(IERC20)3537"
      },
      {
        "astId": 31046,
        "contract": "contracts/yieldStrategy/VaultPeriphery.sol:VaultPeriphery",
        "label": "vault",
        "offset": 0,
        "slot": "105",
        "type": "t_contract(IERC4626)26253"
      },
      {
        "astId": 31049,
        "contract": "contracts/yieldStrategy/VaultPeriphery.sol:VaultPeriphery",
        "label": "swapRouter",
        "offset": 0,
        "slot": "106",
        "type": "t_contract(ISwapRouter)24833"
      },
      {
        "astId": 31052,
        "contract": "contracts/yieldStrategy/VaultPeriphery.sol:VaultPeriphery",
        "label": "lpOracle",
        "offset": 0,
        "slot": "107",
        "type": "t_contract(ILPPriceGetter)26432"
      },
      {
        "astId": 31055,
        "contract": "contracts/yieldStrategy/VaultPeriphery.sol:VaultPeriphery",
        "label": "stableSwap",
        "offset": 0,
        "slot": "108",
        "type": "t_contract(ICurveStableSwap)26424"
      },
      {
        "astId": 31058,
        "contract": "contracts/yieldStrategy/VaultPeriphery.sol:VaultPeriphery",
        "label": "ethOracle",
        "offset": 0,
        "slot": "109",
        "type": "t_contract(AggregatorV3Interface)45"
      },
      {
        "astId": 31062,
        "contract": "contracts/yieldStrategy/VaultPeriphery.sol:VaultPeriphery",
        "label": "MAX_TOLERANCE",
        "offset": 0,
        "slot": "110",
        "type": "t_uint256"
      },
      {
        "astId": 31065,
        "contract": "contracts/yieldStrategy/VaultPeriphery.sol:VaultPeriphery",
        "label": "MAX_BPS",
        "offset": 0,
        "slot": "111",
        "type": "t_uint256"
      }
    ],
    "types": {
      "t_address": {
        "encoding": "inplace",
        "label": "address",
        "numberOfBytes": "20"
      },
      "t_array(t_uint256)49_storage": {
        "base": "t_uint256",
        "encoding": "inplace",
        "label": "uint256[49]",
        "numberOfBytes": "1568"
      },
      "t_array(t_uint256)50_storage": {
        "base": "t_uint256",
        "encoding": "inplace",
        "label": "uint256[50]",
        "numberOfBytes": "1600"
      },
      "t_bool": {
        "encoding": "inplace",
        "label": "bool",
        "numberOfBytes": "1"
      },
      "t_contract(AggregatorV3Interface)45": {
        "encoding": "inplace",
        "label": "contract AggregatorV3Interface",
        "numberOfBytes": "20"
      },
      "t_contract(ICurveStableSwap)26424": {
        "encoding": "inplace",
        "label": "contract ICurveStableSwap",
        "numberOfBytes": "20"
      },
      "t_contract(IERC20)3537": {
        "encoding": "inplace",
        "label": "contract IERC20",
        "numberOfBytes": "20"
      },
      "t_contract(IERC4626)26253": {
        "encoding": "inplace",
        "label": "contract IERC4626",
        "numberOfBytes": "20"
      },
      "t_contract(ILPPriceGetter)26432": {
        "encoding": "inplace",
        "label": "contract ILPPriceGetter",
        "numberOfBytes": "20"
      },
      "t_contract(ISwapRouter)24833": {
        "encoding": "inplace",
        "label": "contract ISwapRouter",
        "numberOfBytes": "20"
      },
      "t_uint256": {
        "encoding": "inplace",
        "label": "uint256",
        "numberOfBytes": "32"
      }
    }
  }
}