{
  "address": "0xB5bCc4B6BE0C2Ff6dB014c1D5D7a000e7Ec7Aa82",
  "abi": [
    {
      "inputs": [
        {
          "internalType": "uint256",
          "name": "depositCap",
          "type": "uint256"
        },
        {
          "internalType": "uint256",
          "name": "depositAmount",
          "type": "uint256"
        }
      ],
      "name": "BV_DepositCap",
      "type": "error"
    },
    {
      "inputs": [],
      "name": "BV_InvalidRebalance",
      "type": "error"
    },
    {
      "inputs": [],
      "name": "BV_NoPositionToRebalance",
      "type": "error"
    },
    {
      "inputs": [
        {
          "internalType": "address",
          "name": "msgSender",
          "type": "address"
        },
        {
          "internalType": "address",
          "name": "authorisedKeeperAddress",
          "type": "address"
        }
      ],
      "name": "BV_OnlyKeeperAllowed",
      "type": "error"
    },
    {
      "inputs": [],
      "name": "ETRS_INVALID_CLOSE",
      "type": "error"
    },
    {
      "inputs": [],
      "name": "GYS_INVALID_SETTER_VALUES",
      "type": "error"
    },
    {
      "anonymous": false,
      "inputs": [
        {
          "indexed": true,
          "internalType": "address",
          "name": "owner",
          "type": "address"
        },
        {
          "indexed": true,
          "internalType": "address",
          "name": "spender",
          "type": "address"
        },
        {
          "indexed": false,
          "internalType": "uint256",
          "name": "value",
          "type": "uint256"
        }
      ],
      "name": "Approval",
      "type": "event"
    },
    {
      "anonymous": false,
      "inputs": [
        {
          "indexed": true,
          "internalType": "address",
          "name": "caller",
          "type": "address"
        },
        {
          "indexed": true,
          "internalType": "address",
          "name": "owner",
          "type": "address"
        },
        {
          "indexed": false,
          "internalType": "uint256",
          "name": "assets",
          "type": "uint256"
        },
        {
          "indexed": false,
          "internalType": "uint256",
          "name": "shares",
          "type": "uint256"
        }
      ],
      "name": "Deposit",
      "type": "event"
    },
    {
      "anonymous": false,
      "inputs": [
        {
          "indexed": false,
          "internalType": "address",
          "name": "stakingManager",
          "type": "address"
        },
        {
          "indexed": false,
          "internalType": "uint256",
          "name": "usdcReedemSlippage",
          "type": "uint256"
        },
        {
          "indexed": false,
          "internalType": "uint240",
          "name": "usdcConversionThreshold",
          "type": "uint240"
        }
      ],
      "name": "GmxParamsUpdated",
      "type": "event"
    },
    {
      "anonymous": false,
      "inputs": [
        {
          "indexed": false,
          "internalType": "uint8",
          "name": "version",
          "type": "uint8"
        }
      ],
      "name": "Initialized",
      "type": "event"
    },
    {
      "anonymous": false,
      "inputs": [
        {
          "indexed": true,
          "internalType": "address",
          "name": "previousOwner",
          "type": "address"
        },
        {
          "indexed": true,
          "internalType": "address",
          "name": "newOwner",
          "type": "address"
        }
      ],
      "name": "OwnershipTransferred",
      "type": "event"
    },
    {
      "anonymous": false,
      "inputs": [
        {
          "indexed": true,
          "internalType": "address",
          "name": "caller",
          "type": "address"
        },
        {
          "indexed": true,
          "internalType": "address",
          "name": "owner",
          "type": "address"
        },
        {
          "indexed": true,
          "internalType": "address",
          "name": "receiver",
          "type": "address"
        },
        {
          "indexed": false,
          "internalType": "address",
          "name": "token",
          "type": "address"
        },
        {
          "indexed": false,
          "internalType": "uint256",
          "name": "sGLPQuantity",
          "type": "uint256"
        },
        {
          "indexed": false,
          "internalType": "uint256",
          "name": "shares",
          "type": "uint256"
        }
      ],
      "name": "TokenWithdrawn",
      "type": "event"
    },
    {
      "anonymous": false,
      "inputs": [
        {
          "indexed": true,
          "internalType": "address",
          "name": "from",
          "type": "address"
        },
        {
          "indexed": true,
          "internalType": "address",
          "name": "to",
          "type": "address"
        },
        {
          "indexed": false,
          "internalType": "uint256",
          "name": "value",
          "type": "uint256"
        }
      ],
      "name": "Transfer",
      "type": "event"
    },
    {
      "anonymous": false,
      "inputs": [
        {
          "indexed": true,
          "internalType": "address",
          "name": "caller",
          "type": "address"
        },
        {
          "indexed": true,
          "internalType": "address",
          "name": "receiver",
          "type": "address"
        },
        {
          "indexed": true,
          "internalType": "address",
          "name": "owner",
          "type": "address"
        },
        {
          "indexed": false,
          "internalType": "uint256",
          "name": "assets",
          "type": "uint256"
        },
        {
          "indexed": false,
          "internalType": "uint256",
          "name": "shares",
          "type": "uint256"
        }
      ],
      "name": "Withdraw",
      "type": "event"
    },
    {
      "inputs": [],
      "name": "MAX_BPS",
      "outputs": [
        {
          "internalType": "uint16",
          "name": "",
          "type": "uint16"
        }
      ],
      "stateMutability": "view",
      "type": "function"
    },
    {
      "inputs": [
        {
          "internalType": "address",
          "name": "owner",
          "type": "address"
        },
        {
          "internalType": "address",
          "name": "spender",
          "type": "address"
        }
      ],
      "name": "allowance",
      "outputs": [
        {
          "internalType": "uint256",
          "name": "",
          "type": "uint256"
        }
      ],
      "stateMutability": "view",
      "type": "function"
    },
    {
      "inputs": [
        {
          "internalType": "address",
          "name": "spender",
          "type": "address"
        },
        {
          "internalType": "uint256",
          "name": "amount",
          "type": "uint256"
        }
      ],
      "name": "approve",
      "outputs": [
        {
          "internalType": "bool",
          "name": "",
          "type": "bool"
        }
      ],
      "stateMutability": "nonpayable",
      "type": "function"
    },
    {
      "inputs": [],
      "name": "asset",
      "outputs": [
        {
          "internalType": "contract IERC20Metadata",
          "name": "",
          "type": "address"
        }
      ],
      "stateMutability": "view",
      "type": "function"
    },
    {
      "inputs": [
        {
          "internalType": "address",
          "name": "account",
          "type": "address"
        }
      ],
      "name": "balanceOf",
      "outputs": [
        {
          "internalType": "uint256",
          "name": "",
          "type": "uint256"
        }
      ],
      "stateMutability": "view",
      "type": "function"
    },
    {
      "inputs": [],
      "name": "baseLiquidity",
      "outputs": [
        {
          "internalType": "uint128",
          "name": "",
          "type": "uint128"
        }
      ],
      "stateMutability": "view",
      "type": "function"
    },
    {
      "inputs": [],
      "name": "baseTickLower",
      "outputs": [
        {
          "internalType": "int24",
          "name": "",
          "type": "int24"
        }
      ],
      "stateMutability": "view",
      "type": "function"
    },
    {
      "inputs": [],
      "name": "baseTickUpper",
      "outputs": [
        {
          "internalType": "int24",
          "name": "",
          "type": "int24"
        }
      ],
      "stateMutability": "view",
      "type": "function"
    },
    {
      "inputs": [],
      "name": "closePositionSlippageSqrtToleranceBps",
      "outputs": [
        {
          "internalType": "uint16",
          "name": "",
          "type": "uint16"
        }
      ],
      "stateMutability": "view",
      "type": "function"
    },
    {
      "inputs": [],
      "name": "closeTokenPosition",
      "outputs": [],
      "stateMutability": "nonpayable",
      "type": "function"
    },
    {
      "inputs": [
        {
          "internalType": "uint256",
          "name": "shares",
          "type": "uint256"
        }
      ],
      "name": "convertToAssets",
      "outputs": [
        {
          "internalType": "uint256",
          "name": "",
          "type": "uint256"
        }
      ],
      "stateMutability": "view",
      "type": "function"
    },
    {
      "inputs": [
        {
          "internalType": "uint256",
          "name": "assets",
          "type": "uint256"
        }
      ],
      "name": "convertToShares",
      "outputs": [
        {
          "internalType": "uint256",
          "name": "",
          "type": "uint256"
        }
      ],
      "stateMutability": "view",
      "type": "function"
    },
    {
      "inputs": [],
      "name": "decimals",
      "outputs": [
        {
          "internalType": "uint8",
          "name": "",
          "type": "uint8"
        }
      ],
      "stateMutability": "view",
      "type": "function"
    },
    {
      "inputs": [
        {
          "internalType": "address",
          "name": "spender",
          "type": "address"
        },
        {
          "internalType": "uint256",
          "name": "subtractedValue",
          "type": "uint256"
        }
      ],
      "name": "decreaseAllowance",
      "outputs": [
        {
          "internalType": "bool",
          "name": "",
          "type": "bool"
        }
      ],
      "stateMutability": "nonpayable",
      "type": "function"
    },
    {
      "inputs": [
        {
          "internalType": "uint256",
          "name": "amount",
          "type": "uint256"
        },
        {
          "internalType": "address",
          "name": "to",
          "type": "address"
        }
      ],
      "name": "deposit",
      "outputs": [
        {
          "internalType": "uint256",
          "name": "shares",
          "type": "uint256"
        }
      ],
      "stateMutability": "nonpayable",
      "type": "function"
    },
    {
      "inputs": [],
      "name": "depositCap",
      "outputs": [
        {
          "internalType": "uint256",
          "name": "",
          "type": "uint256"
        }
      ],
      "stateMutability": "view",
      "type": "function"
    },
    {
      "inputs": [],
      "name": "ethPoolId",
      "outputs": [
        {
          "internalType": "uint32",
          "name": "",
          "type": "uint32"
        }
      ],
      "stateMutability": "view",
      "type": "function"
    },
    {
      "inputs": [
        {
          "internalType": "bytes32",
          "name": "slot",
          "type": "bytes32"
        }
      ],
      "name": "extsload",
      "outputs": [
        {
          "internalType": "bytes32",
          "name": "val",
          "type": "bytes32"
        }
      ],
      "stateMutability": "view",
      "type": "function"
    },
    {
      "inputs": [
        {
          "internalType": "bytes32[]",
          "name": "slots",
          "type": "bytes32[]"
        }
      ],
      "name": "extsload",
      "outputs": [
        {
          "internalType": "bytes32[]",
          "name": "",
          "type": "bytes32[]"
        }
      ],
      "stateMutability": "view",
      "type": "function"
    },
    {
      "inputs": [
        {
          "internalType": "uint256",
          "name": "assetAmount",
          "type": "uint256"
        }
      ],
      "name": "getMarketValue",
      "outputs": [
        {
          "internalType": "uint256",
          "name": "marketValue",
          "type": "uint256"
        }
      ],
      "stateMutability": "view",
      "type": "function"
    },
    {
      "inputs": [],
      "name": "getPriceX128",
      "outputs": [
        {
          "internalType": "uint256",
          "name": "priceX128",
          "type": "uint256"
        }
      ],
      "stateMutability": "view",
      "type": "function"
    },
    {
      "inputs": [],
      "name": "getVaultMarketValue",
      "outputs": [
        {
          "internalType": "int256",
          "name": "vaultMarketValue",
          "type": "int256"
        }
      ],
      "stateMutability": "view",
      "type": "function"
    },
    {
      "inputs": [],
      "name": "grantAllowances",
      "outputs": [],
      "stateMutability": "nonpayable",
      "type": "function"
    },
    {
      "inputs": [
        {
          "internalType": "address",
          "name": "spender",
          "type": "address"
        },
        {
          "internalType": "uint256",
          "name": "addedValue",
          "type": "uint256"
        }
      ],
      "name": "increaseAllowance",
      "outputs": [
        {
          "internalType": "bool",
          "name": "",
          "type": "bool"
        }
      ],
      "stateMutability": "nonpayable",
      "type": "function"
    },
    {
      "inputs": [
        {
          "components": [
            {
              "components": [
                {
                  "components": [
                    {
                      "components": [
                        {
                          "internalType": "contract IERC20Metadata",
                          "name": "asset",
                          "type": "address"
                        },
                        {
                          "internalType": "string",
                          "name": "name",
                          "type": "string"
                        },
                        {
                          "internalType": "string",
                          "name": "symbol",
                          "type": "string"
                        }
                      ],
                      "internalType": "struct RageERC4626.RageERC4626InitParams",
                      "name": "rageErc4626InitParams",
                      "type": "tuple"
                    },
                    {
                      "internalType": "uint32",
                      "name": "ethPoolId",
                      "type": "uint32"
                    },
                    {
                      "internalType": "address",
                      "name": "swapSimulator",
                      "type": "address"
                    },
                    {
                      "internalType": "address",
                      "name": "rageClearingHouse",
                      "type": "address"
                    },
                    {
                      "internalType": "address",
                      "name": "clearingHouseLens",
                      "type": "address"
                    },
                    {
                      "internalType": "address",
                      "name": "rageCollateralToken",
                      "type": "address"
                    },
                    {
                      "internalType": "address",
                      "name": "rageSettlementToken",
                      "type": "address"
                    }
                  ],
                  "internalType": "struct BaseVault.BaseVaultInitParams",
                  "name": "baseVaultInitParams",
                  "type": "tuple"
                },
                {
                  "internalType": "uint16",
                  "name": "closePositionSlippageSqrtToleranceBps",
                  "type": "uint16"
                },
                {
                  "internalType": "uint16",
                  "name": "resetPositionThresholdBps",
                  "type": "uint16"
                },
                {
                  "internalType": "uint64",
                  "name": "minNotionalPositionToCloseThreshold",
                  "type": "uint64"
                }
              ],
              "internalType": "struct EightyTwentyRangeStrategyVault.EightyTwentyRangeStrategyVaultInitParams",
              "name": "eightyTwentyRangeStrategyVaultInitParams",
              "type": "tuple"
            },
            {
              "internalType": "contract IRewardRouterV2",
              "name": "rewardRouter",
              "type": "address"
            }
          ],
          "internalType": "struct GMXYieldStrategy.GMXYieldStrategyInitParams",
          "name": "gmxYieldStrategyInitParams",
          "type": "tuple"
        }
      ],
      "name": "initialize",
      "outputs": [],
      "stateMutability": "nonpayable",
      "type": "function"
    },
    {
      "inputs": [],
      "name": "isReset",
      "outputs": [
        {
          "internalType": "bool",
          "name": "",
          "type": "bool"
        }
      ],
      "stateMutability": "view",
      "type": "function"
    },
    {
      "inputs": [
        {
          "internalType": "int256",
          "name": "vaultMarketValue",
          "type": "int256"
        }
      ],
      "name": "isValidRebalance",
      "outputs": [
        {
          "internalType": "bool",
          "name": "isValid",
          "type": "bool"
        }
      ],
      "stateMutability": "view",
      "type": "function"
    },
    {
      "inputs": [],
      "name": "keeper",
      "outputs": [
        {
          "internalType": "address",
          "name": "",
          "type": "address"
        }
      ],
      "stateMutability": "view",
      "type": "function"
    },
    {
      "inputs": [],
      "name": "lastRebalanceTS",
      "outputs": [
        {
          "internalType": "uint64",
          "name": "",
          "type": "uint64"
        }
      ],
      "stateMutability": "view",
      "type": "function"
    },
    {
      "inputs": [
        {
          "internalType": "address",
          "name": "",
          "type": "address"
        }
      ],
      "name": "maxDeposit",
      "outputs": [
        {
          "internalType": "uint256",
          "name": "",
          "type": "uint256"
        }
      ],
      "stateMutability": "view",
      "type": "function"
    },
    {
      "inputs": [
        {
          "internalType": "address",
          "name": "",
          "type": "address"
        }
      ],
      "name": "maxMint",
      "outputs": [
        {
          "internalType": "uint256",
          "name": "",
          "type": "uint256"
        }
      ],
      "stateMutability": "view",
      "type": "function"
    },
    {
      "inputs": [
        {
          "internalType": "address",
          "name": "owner",
          "type": "address"
        }
      ],
      "name": "maxRedeem",
      "outputs": [
        {
          "internalType": "uint256",
          "name": "",
          "type": "uint256"
        }
      ],
      "stateMutability": "view",
      "type": "function"
    },
    {
      "inputs": [
        {
          "internalType": "address",
          "name": "owner",
          "type": "address"
        }
      ],
      "name": "maxWithdraw",
      "outputs": [
        {
          "internalType": "uint256",
          "name": "",
          "type": "uint256"
        }
      ],
      "stateMutability": "view",
      "type": "function"
    },
    {
      "inputs": [],
      "name": "minNotionalPositionToCloseThreshold",
      "outputs": [
        {
          "internalType": "uint64",
          "name": "",
          "type": "uint64"
        }
      ],
      "stateMutability": "view",
      "type": "function"
    },
    {
      "inputs": [
        {
          "internalType": "uint256",
          "name": "shares",
          "type": "uint256"
        },
        {
          "internalType": "address",
          "name": "to",
          "type": "address"
        }
      ],
      "name": "mint",
      "outputs": [
        {
          "internalType": "uint256",
          "name": "amount",
          "type": "uint256"
        }
      ],
      "stateMutability": "nonpayable",
      "type": "function"
    },
    {
      "inputs": [],
      "name": "name",
      "outputs": [
        {
          "internalType": "string",
          "name": "",
          "type": "string"
        }
      ],
      "stateMutability": "view",
      "type": "function"
    },
    {
      "inputs": [],
      "name": "owner",
      "outputs": [
        {
          "internalType": "address",
          "name": "",
          "type": "address"
        }
      ],
      "stateMutability": "view",
      "type": "function"
    },
    {
      "inputs": [
        {
          "internalType": "uint256",
          "name": "assets",
          "type": "uint256"
        }
      ],
      "name": "previewDeposit",
      "outputs": [
        {
          "internalType": "uint256",
          "name": "",
          "type": "uint256"
        }
      ],
      "stateMutability": "view",
      "type": "function"
    },
    {
      "inputs": [
        {
          "internalType": "uint256",
          "name": "shares",
          "type": "uint256"
        }
      ],
      "name": "previewMint",
      "outputs": [
        {
          "internalType": "uint256",
          "name": "",
          "type": "uint256"
        }
      ],
      "stateMutability": "view",
      "type": "function"
    },
    {
      "inputs": [
        {
          "internalType": "uint256",
          "name": "shares",
          "type": "uint256"
        }
      ],
      "name": "previewRedeem",
      "outputs": [
        {
          "internalType": "uint256",
          "name": "",
          "type": "uint256"
        }
      ],
      "stateMutability": "view",
      "type": "function"
    },
    {
      "inputs": [
        {
          "internalType": "uint256",
          "name": "assets",
          "type": "uint256"
        }
      ],
      "name": "previewWithdraw",
      "outputs": [
        {
          "internalType": "uint256",
          "name": "",
          "type": "uint256"
        }
      ],
      "stateMutability": "view",
      "type": "function"
    },
    {
      "inputs": [],
      "name": "rageAccountNo",
      "outputs": [
        {
          "internalType": "uint256",
          "name": "",
          "type": "uint256"
        }
      ],
      "stateMutability": "view",
      "type": "function"
    },
    {
      "inputs": [],
      "name": "rageClearingHouse",
      "outputs": [
        {
          "internalType": "contract IClearingHouse",
          "name": "",
          "type": "address"
        }
      ],
      "stateMutability": "view",
      "type": "function"
    },
    {
      "inputs": [],
      "name": "rageVPool",
      "outputs": [
        {
          "internalType": "contract IUniswapV3Pool",
          "name": "",
          "type": "address"
        }
      ],
      "stateMutability": "view",
      "type": "function"
    },
    {
      "inputs": [],
      "name": "rebalance",
      "outputs": [],
      "stateMutability": "nonpayable",
      "type": "function"
    },
    {
      "inputs": [],
      "name": "rebalancePriceThresholdBps",
      "outputs": [
        {
          "internalType": "uint16",
          "name": "",
          "type": "uint16"
        }
      ],
      "stateMutability": "view",
      "type": "function"
    },
    {
      "inputs": [],
      "name": "rebalanceTimeThreshold",
      "outputs": [
        {
          "internalType": "uint32",
          "name": "",
          "type": "uint32"
        }
      ],
      "stateMutability": "view",
      "type": "function"
    },
    {
      "inputs": [
        {
          "internalType": "uint256",
          "name": "shares",
          "type": "uint256"
        },
        {
          "internalType": "address",
          "name": "to",
          "type": "address"
        },
        {
          "internalType": "address",
          "name": "from",
          "type": "address"
        }
      ],
      "name": "redeem",
      "outputs": [
        {
          "internalType": "uint256",
          "name": "amount",
          "type": "uint256"
        }
      ],
      "stateMutability": "nonpayable",
      "type": "function"
    },
    {
      "inputs": [
        {
          "internalType": "contract IERC20",
          "name": "token",
          "type": "address"
        },
        {
          "internalType": "uint256",
          "name": "shares",
          "type": "uint256"
        },
        {
          "internalType": "uint256",
          "name": "minTokenOut",
          "type": "uint256"
        },
        {
          "internalType": "address",
          "name": "from",
          "type": "address"
        },
        {
          "internalType": "address",
          "name": "receiver",
          "type": "address"
        }
      ],
      "name": "redeemToken",
      "outputs": [],
      "stateMutability": "nonpayable",
      "type": "function"
    },
    {
      "inputs": [],
      "name": "renounceOwnership",
      "outputs": [],
      "stateMutability": "nonpayable",
      "type": "function"
    },
    {
      "inputs": [
        {
          "internalType": "uint16",
          "name": "_closePositionSlippageSqrtToleranceBps",
          "type": "uint16"
        },
        {
          "internalType": "uint16",
          "name": "_resetPositionThresholdBps",
          "type": "uint16"
        },
        {
          "internalType": "uint64",
          "name": "_minNotionalPositionToCloseThreshold",
          "type": "uint64"
        }
      ],
      "name": "setEightTwentyParams",
      "outputs": [],
      "stateMutability": "nonpayable",
      "type": "function"
    },
    {
      "inputs": [],
      "name": "swapSimulator",
      "outputs": [
        {
          "internalType": "contract ISwapSimulator",
          "name": "",
          "type": "address"
        }
      ],
      "stateMutability": "view",
      "type": "function"
    },
    {
      "inputs": [],
      "name": "symbol",
      "outputs": [
        {
          "internalType": "string",
          "name": "",
          "type": "string"
        }
      ],
      "stateMutability": "view",
      "type": "function"
    },
    {
      "inputs": [],
      "name": "totalAssets",
      "outputs": [
        {
          "internalType": "uint256",
          "name": "",
          "type": "uint256"
        }
      ],
      "stateMutability": "view",
      "type": "function"
    },
    {
      "inputs": [],
      "name": "totalSupply",
      "outputs": [
        {
          "internalType": "uint256",
          "name": "",
          "type": "uint256"
        }
      ],
      "stateMutability": "view",
      "type": "function"
    },
    {
      "inputs": [
        {
          "internalType": "address",
          "name": "to",
          "type": "address"
        },
        {
          "internalType": "uint256",
          "name": "amount",
          "type": "uint256"
        }
      ],
      "name": "transfer",
      "outputs": [
        {
          "internalType": "bool",
          "name": "",
          "type": "bool"
        }
      ],
      "stateMutability": "nonpayable",
      "type": "function"
    },
    {
      "inputs": [
        {
          "internalType": "address",
          "name": "from",
          "type": "address"
        },
        {
          "internalType": "address",
          "name": "to",
          "type": "address"
        },
        {
          "internalType": "uint256",
          "name": "amount",
          "type": "uint256"
        }
      ],
      "name": "transferFrom",
      "outputs": [
        {
          "internalType": "bool",
          "name": "",
          "type": "bool"
        }
      ],
      "stateMutability": "nonpayable",
      "type": "function"
    },
    {
      "inputs": [
        {
          "internalType": "address",
          "name": "newOwner",
          "type": "address"
        }
      ],
      "name": "transferOwnership",
      "outputs": [],
      "stateMutability": "nonpayable",
      "type": "function"
    },
    {
      "inputs": [
        {
          "internalType": "uint256",
          "name": "newDepositCap",
          "type": "uint256"
        },
        {
          "internalType": "address",
          "name": "newKeeperAddress",
          "type": "address"
        },
        {
          "internalType": "uint32",
          "name": "_rebalanceTimeThreshold",
          "type": "uint32"
        },
        {
          "internalType": "uint16",
          "name": "_rebalancePriceThresholdBps",
          "type": "uint16"
        }
      ],
      "name": "updateBaseParams",
      "outputs": [],
      "stateMutability": "nonpayable",
      "type": "function"
    },
    {
      "inputs": [
        {
          "internalType": "address",
          "name": "_stakingManager",
          "type": "address"
        },
        {
          "internalType": "uint16",
          "name": "_usdcReedemSlippage",
          "type": "uint16"
        },
        {
          "internalType": "uint240",
          "name": "_usdcConversionThreshold",
          "type": "uint240"
        }
      ],
      "name": "updateGMXParams",
      "outputs": [],
      "stateMutability": "nonpayable",
      "type": "function"
    },
    {
      "inputs": [],
      "name": "usdcConversionThreshold",
      "outputs": [
        {
          "internalType": "uint240",
          "name": "",
          "type": "uint240"
        }
      ],
      "stateMutability": "view",
      "type": "function"
    },
    {
      "inputs": [],
      "name": "usdcReedemSlippage",
      "outputs": [
        {
          "internalType": "uint16",
          "name": "",
          "type": "uint16"
        }
      ],
      "stateMutability": "view",
      "type": "function"
    },
    {
      "inputs": [
        {
          "internalType": "uint256",
          "name": "amount",
          "type": "uint256"
        },
        {
          "internalType": "address",
          "name": "to",
          "type": "address"
        },
        {
          "internalType": "address",
          "name": "from",
          "type": "address"
        }
      ],
      "name": "withdraw",
      "outputs": [
        {
          "internalType": "uint256",
          "name": "shares",
          "type": "uint256"
        }
      ],
      "stateMutability": "nonpayable",
      "type": "function"
    },
    {
      "inputs": [
        {
          "internalType": "contract IERC20",
          "name": "token",
          "type": "address"
        },
        {
          "internalType": "uint256",
          "name": "_sGLP",
          "type": "uint256"
        },
        {
          "internalType": "uint256",
          "name": "minTokenOut",
          "type": "uint256"
        },
        {
          "internalType": "address",
          "name": "from",
          "type": "address"
        },
        {
          "internalType": "address",
          "name": "receiver",
          "type": "address"
        }
      ],
      "name": "withdrawToken",
      "outputs": [],
      "stateMutability": "nonpayable",
      "type": "function"
    },
    {
      "inputs": [],
      "name": "R",
      "type": "error"
    },
    {
      "inputs": [],
      "name": "T",
      "type": "error"
    },
    {
      "anonymous": false,
      "inputs": [
        {
          "indexed": false,
          "internalType": "uint256",
          "name": "newDepositCap",
          "type": "uint256"
        },
        {
          "indexed": false,
          "internalType": "address",
          "name": "newKeeperAddress",
          "type": "address"
        },
        {
          "indexed": false,
          "internalType": "uint32",
          "name": "rebalanceTimeThreshold",
          "type": "uint32"
        },
        {
          "indexed": false,
          "internalType": "uint16",
          "name": "rebalancePriceThresholdBps",
          "type": "uint16"
        }
      ],
      "name": "BaseParamsUpdated",
      "type": "event"
    },
    {
      "anonymous": false,
      "inputs": [
        {
          "indexed": false,
          "internalType": "uint256",
          "name": "crvSlippageTolerance",
          "type": "uint256"
        }
      ],
      "name": "CrvSwapFailedDueToSlippage",
      "type": "event"
    },
    {
      "anonymous": false,
      "inputs": [
        {
          "indexed": false,
          "internalType": "uint256",
          "name": "feeBps",
          "type": "uint256"
        },
        {
          "indexed": false,
          "internalType": "uint256",
          "name": "stablecoinSlippage",
          "type": "uint256"
        },
        {
          "indexed": false,
          "internalType": "uint256",
          "name": "crvHarvestThreshold",
          "type": "uint256"
        },
        {
          "indexed": false,
          "internalType": "uint256",
          "name": "crvSlippageTolerance",
          "type": "uint256"
        },
        {
          "indexed": true,
          "internalType": "address",
          "name": "crvOracle",
          "type": "address"
        }
      ],
      "name": "CurveParamsUpdated",
      "type": "event"
    },
    {
      "anonymous": false,
      "inputs": [
        {
          "indexed": false,
          "internalType": "uint16",
          "name": "closePositionSlippageSqrtToleranceBps",
          "type": "uint16"
        },
        {
          "indexed": false,
          "internalType": "uint16",
          "name": "resetPositionThresholdBps",
          "type": "uint16"
        },
        {
          "indexed": false,
          "internalType": "uint64",
          "name": "minNotionalPositionToCloseThreshold",
          "type": "uint64"
        }
      ],
      "name": "EightyTwentyParamsUpdated",
      "type": "event"
    },
    {
      "anonymous": false,
      "inputs": [
        {
          "indexed": false,
          "internalType": "uint256",
          "name": "fee",
          "type": "uint256"
        }
      ],
      "name": "FeesUpdated",
      "type": "event"
    },
    {
      "anonymous": false,
      "inputs": [
        {
          "indexed": false,
          "internalType": "uint256",
          "name": "total",
          "type": "uint256"
        }
      ],
      "name": "FeesWithdrawn",
      "type": "event"
    },
    {
      "anonymous": false,
      "inputs": [
        {
          "indexed": false,
          "internalType": "uint256",
          "name": "crvAmount",
          "type": "uint256"
        }
      ],
      "name": "Harvested",
      "type": "event"
    },
    {
      "anonymous": false,
      "inputs": [],
      "name": "Rebalance",
      "type": "event"
    },
    {
      "anonymous": false,
      "inputs": [
        {
          "indexed": false,
          "internalType": "uint256",
          "name": "amount",
          "type": "uint256"
        },
        {
          "indexed": true,
          "internalType": "address",
          "name": "depositor",
          "type": "address"
        }
      ],
      "name": "Staked",
      "type": "event"
    },
    {
      "anonymous": false,
      "inputs": [
        {
          "indexed": false,
          "internalType": "uint256",
          "name": "lpPrice",
          "type": "uint256"
        }
      ],
      "name": "StateInfo",
      "type": "event"
    },
    {
      "anonymous": false,
      "inputs": [],
      "name": "TokenPositionClosed",
      "type": "event"
    },
    {
      "inputs": [],
      "name": "CYS_NEGATIVE_CRV_PRICE",
      "type": "error"
    }
  ],
  "transactionHash": "0xf31e58dd1573b10c0bf62a8d407c1318c9b6b5ccbfc464eb20e5e6a2245dc37d",
  "args": [],
  "numDeployments": 1,
  "solcInputHash": "7529bff7d4b041a5e32b81fabd5ea9d2",
  "bytecode": "0x608060405234801561001057600080fd5b506159d180620000216000396000f3fe608060405234801561001057600080fd5b50600436106103d05760003560e01c80637999e84e116101ff578063bf9571f11161011a578063dd62ed3e116100ad578063f2fde38b1161007c578063f2fde38b146108fa578063fcb777ef1461090d578063fd967f4714610920578063ff9281531461092957600080fd5b8063dd62ed3e1461088a578063e6648853146108c3578063ee3a98ff146108cc578063ef8b30f7146108e757600080fd5b8063d4406e89116100e9578063d4406e8914610837578063d905777e1461084e578063dbd035ff14610861578063dbd5edc71461088157600080fd5b8063bf9571f1146107f6578063c63d75b6146107fe578063c6e6f59214610811578063ce96cb771461082457600080fd5b8063a457c2d711610192578063b460af9411610161578063b460af94146107a9578063b6cdc2d5146107bc578063b81aecd9146107d0578063ba087652146107e357600080fd5b8063a457c2d71461075d578063a9059cbb14610770578063aced166114610783578063b3d7f6b91461079657600080fd5b806394bf804d116101ce57806394bf804d1461072057806395d89b4114610733578063999693281461073b57806399a26af91461074e57600080fd5b80637999e84e146106f75780637d7c2a1c146106ff5780638d315d7b146107075780638da5cb5b1461070f57600080fd5b80633f6be822116102ef57806357b082fc116102825780636e553f65116102515780636e553f651461068157806370a0823114610694578063715018a6146106bd57806376533b92146106c557600080fd5b806357b082fc1461061d5780635f63e06614610631578063620bc225146106445780636a8db81d1461066c57600080fd5b80635053145f116102be5780635053145f146105b9578063554070bc146105e457806356501144146105f75780635657b90d1461060a57600080fd5b80633f6be82214610553578063402d267d146105675780634afe813e1461057a5780634cdad506146105a657600080fd5b80631e2eaeaf11610367578063313ce56711610336578063313ce567146104fe57806338d52e0f1461050d57806339509351146105385780633d672a451461054b57600080fd5b80631e2eaeaf146104b157806323b872dd146104c357806324ffe6c2146104d65780632717d25b146104eb57600080fd5b806309a68a92116103a357806309a68a921461043b5780630a28a4771461046257806318160ddd146104755780631aa3dfbb1461047d57600080fd5b806301e1d114146103d557806306fdde03146103f057806307a2d13a14610405578063095ea7b314610418575b600080fd5b6103dd61093c565b6040519081526020015b60405180910390f35b6103f86109c1565b6040516103e79190614c77565b6103dd610413366004614caa565b610a53565b61042b610426366004614ce3565b610a88565b60405190151581526020016103e7565b60a15461044f90600160b81b900460020b81565b60405160029190910b81526020016103e7565b6103dd610470366004614caa565b610aa2565b6035546103dd565b60a25461049890600160a81b900467ffffffffffffffff1681565b60405167ffffffffffffffff90911681526020016103e7565b6103dd6104bf366004614caa565b5490565b61042b6104d1366004614d0f565b610aba565b6104e96104e4366004614d50565b610ade565b005b6104e96104f9366004614dc1565b610d25565b604051601281526020016103e7565b606554610520906001600160a01b031681565b6040516001600160a01b0390911681526020016103e7565b61042b610546366004614ce3565b610e40565b6103dd610e7a565b60a0546104989067ffffffffffffffff1681565b6103dd610575366004614e16565b610f96565b60a05461059190600160501b900463ffffffff1681565b60405163ffffffff90911681526020016103e7565b6103dd6105b4366004614caa565b610fad565b60a2546105cc906001600160801b031681565b6040516001600160801b0390911681526020016103e7565b6103dd6105f2366004614caa565b610fcf565b6104e9610605366004614e47565b610fe8565b6104e9610618366004614d50565b6110e6565b60a25461042b90600160801b900460ff1681565b609a54610520906001600160a01b031681565b60a05461065990600160401b900461ffff1681565b60405161ffff90911681526020016103e7565b60a25461065990600160881b900461ffff1681565b6103dd61068f366004614e96565b6112d7565b6103dd6106a2366004614e16565b6001600160a01b031660009081526033602052604090205490565b6104e96112eb565b610107546106df906201000090046001600160f01b031681565b6040516001600160f01b0390911681526020016103e7565b6104e961133f565b6104e9611416565b6103dd6114e9565b6066546001600160a01b0316610520565b6103dd61072e366004614e96565b61157a565b6103f861158e565b6104e96107493660046150a3565b61159d565b610107546106599061ffff1681565b61042b61076b366004614ce3565b611614565b61042b61077e366004614ce3565b6116a6565b60a154610520906001600160a01b031681565b6103dd6107a4366004614caa565b6116b4565b6103dd6107b7366004615211565b6116db565b60a15461044f90600160a01b900460020b81565b61042b6107de366004614caa565b6117d6565b6103dd6107f1366004615211565b6117ef565b6104e9611938565b6103dd61080c366004614e16565b611a80565b6103dd61081f366004614caa565b611a8f565b6103dd610832366004614e16565b611ab7565b609c5461059190600160a01b900463ffffffff1681565b6103dd61085c366004614e16565b611ad9565b61087461086f366004615248565b611b00565b6040516103e791906152ee565b6103dd609f5481565b6103dd610898366004615332565b6001600160a01b03918216600090815260346020908152604080832093909416825291909152205490565b6103dd609d5481565b609e546105209064010000000090046001600160a01b031681565b6103dd6108f5366004614caa565b611b2e565b6104e9610908366004614e16565b611b39565b609954610520906001600160a01b031681565b61065961271081565b6104e9610937366004615360565b611bef565b6000610946611cd3565b6065546040516370a0823160e01b81523060048201526001600160a01b03909116906370a0823190602401602060405180830381865afa15801561098e573d6000803e3d6000fd5b505050506040513d601f19601f820116820180604052508101906109b291906153a3565b6109bc91906153d2565b905090565b6060603680546109d0906153ea565b80601f01602080910402602001604051908101604052809291908181526020018280546109fc906153ea565b8015610a495780601f10610a1e57610100808354040283529160200191610a49565b820191906000526020600020905b815481529060010190602001808311610a2c57829003601f168201915b5050505050905090565b600080610a5f60355490565b90508015610a7f57610a7a610a7261093c565b849083611d41565b610a81565b825b9392505050565b600033610a96818585611d60565b60019150505b92915050565b600080610aae83611e85565b509050610a8181611e9a565b600033610ac8858285611ec2565b610ad3858585611f54565b506001949350505050565b610ae6612122565b6000610af185610a53565b9050600080610aff83611e85565b915091506000610b0e83611e9a565b905082600003610b535760405162461bcd60e51b815260206004820152600b60248201526a5a45524f5f41535345545360a81b60448201526064015b60405180910390fd5b336001600160a01b03871614610ba6576001600160a01b03861660009081526034602090815260408083203384529091529020546000198114610ba457610ba48733610b9f8585615424565b611d60565b505b610baf8261212a565b610bb98382612133565b610bc3868261214d565b60655461010a5460405163095ea7b360e01b81526001600160a01b0391821660048201526024810186905291169063095ea7b3906044016020604051808303816000875af1158015610c19573d6000803e3d6000fd5b505050506040513d601f19601f82011682018060405250810190610c3d919061543b565b5061010b546040516303cea95560e21b81526001600160a01b038b8116600483015260248201869052604482018a9052878116606483015290911690630f3aa554906084016020604051808303816000875af1158015610ca1573d6000803e3d6000fd5b505050506040513d601f19601f82011682018060405250810190610cc591906153a3565b50604080516001600160a01b038b81168252602082018690529181018390528187169188169033907fb1487fc3cb6151cd411ec1ee8f3c8d87141376d8deb36f3d5d597b7ee117450a9060600160405180910390a4505050505050505050565b6066546001600160a01b03163314610d6d5760405162461bcd60e51b815260206004820181905260248201526000805160206159a58339815191526044820152606401610b4a565b6001600160a01b03831615801590610d8a575061271061ffff8316105b15610dc95761ffff8216620100006001600160f01b03831602176101075561010c80546001600160a01b0319166001600160a01b038516179055610de2565b604051638a4b893760e01b815260040160405180910390fd5b604080516001600160a01b038516815261ffff841660208201526001600160f01b038316918101919091527f5051898c1d1dd86f8ddd55eb56a9f5249cf39f767c9498b9c8cf8cfa50a24cd1906060015b60405180910390a1505050565b3360008181526034602090815260408083206001600160a01b0387168452909152812054909190610a969082908690610b9f9087906153d2565b61010a5460405163019c8a3b60e11b81526000600482018190529182916001600160a01b0390911690630339147690602401602060405180830381865afa158015610ec9573d6000803e3d6000fd5b505050506040513d601f19601f82011682018060405250810190610eed91906153a3565b9050600061010860009054906101000a90046001600160a01b03166001600160a01b03166318160ddd6040518163ffffffff1660e01b8152600401602060405180830381865afa158015610f45573d6000803e3d6000fd5b505050506040513d601f19601f82011682018060405250810190610f6991906153a3565b9050610f8f600160801b610f878369d3c21bcecceda100000061545d565b849190612298565b9250505090565b6000610fa061093c565b609f54610a9c9190615424565b600080610fb983610a53565b90506000610fc682611e85565b50949350505050565b6000610a9c610fdc610e7a565b8390600160801b612298565b6066546001600160a01b031633146110305760405162461bcd60e51b815260206004820181905260248201526000805160206159a58339815191526044820152606401610b4a565b60a180546001600160a01b0319166001600160a01b038516908117909155609f85905560a080546dffffffffffff00000000000000001916600160501b63ffffffff861690810269ffff0000000000000000191691909117600160401b61ffff86169081029190911790925560408051888152602081019490945283015260608201527f69a94cb0b737928b3387da2d3d2a8d288ec329d009d2b769142dd314cc026ecd9060800160405180910390a150505050565b6110ee612122565b6000806110fa86611e85565b91509150600061110983611e9a565b90506111148261212a565b336001600160a01b03861614611162576001600160a01b03851660009081526034602090815260408083203384529091529020546000198114611160576111608633610b9f8585615424565b505b61116c8382612133565b611176858261214d565b60655461010a5460405163095ea7b360e01b81526001600160a01b0391821660048201526024810186905291169063095ea7b3906044016020604051808303816000875af11580156111cc573d6000803e3d6000fd5b505050506040513d601f19601f820116820180604052508101906111f0919061543b565b5061010b546040516303cea95560e21b81526001600160a01b038a811660048301526024820186905260448201899052868116606483015290911690630f3aa554906084016020604051808303816000875af1158015611254573d6000803e3d6000fd5b505050506040513d601f19601f8201168201806040525081019061127891906153a3565b50604080516001600160a01b038a81168252602082018690529181018390528186169187169033907fb1487fc3cb6151cd411ec1ee8f3c8d87141376d8deb36f3d5d597b7ee117450a9060600160405180910390a45050505050505050565b60006112e1612122565b610a81838361234a565b6066546001600160a01b031633146113335760405162461bcd60e51b815260206004820181905260248201526000805160206159a58339815191526044820152606401610b4a565b61133d6000612407565b565b60a1546001600160a01b0316331461137f5760a1546040516369958c7360e01b81523360048201526001600160a01b039091166024820152604401610b4a565b609854609d54609c5460405163e9b7c36760e01b81526004810192909252600160a01b900463ffffffff1660248201526000916001600160a01b03169063e9b7c36790604401606060405180830381865afa1580156113e2573d6000803e3d6000fd5b505050506040513d601f19601f82011682018060405250810190611406919061547c565b5091505061141381612459565b50565b60a1546001600160a01b031633146114565760a1546040516369958c7360e01b81523360048201526001600160a01b039091166024820152604401610b4a565b60006114606114e9565b905061146b816117d6565b61148857604051636fa1adc360e01b815260040160405180910390fd5b600061149261253e565b91505061149f81836126d6565b60a0805467ffffffffffffffff19164267ffffffffffffffff161790556040517ff57243a1fddfdc9fa2c7de26cc3503b1b94cfd4368d2b82d0970bfbb2fbce3a490600090a15050565b609a54609d54604051631c7a838360e31b815260048101919091526000916001600160a01b03169063e3d41c1890602401602060405180830381865afa158015611537573d6000803e3d6000fd5b505050506040513d601f19601f8201168201806040525081019061155b91906153a3565b905061157061156b6105f261093c565b612811565b6109bc90826154aa565b6000611584612122565b610a818383612855565b6060603780546109d0906153ea565b60006115a960016128d5565b905080156115c1576000805461ff0019166101001790555b6115ca826129f0565b8015611610576000805461ff0019169055604051600181527f7f26b83ff96e1f2b6a682f133852f6798a09c465da95921460cefb38474024989060200160405180910390a15b5050565b3360008181526034602090815260408083206001600160a01b0387168452909152812054909190838110156116995760405162461bcd60e51b815260206004820152602560248201527f45524332303a2064656372656173656420616c6c6f77616e63652062656c6f77604482015264207a65726f60d81b6064820152608401610b4a565b610ad38286868403611d60565b600033610a96818585611f54565b6000806116c060355490565b90508015610a7f57610a7a6116d361093c565b849083612bd0565b60006116e5612122565b6000806116f186611e85565b915091506116fe82611e9a565b92506117098161212a565b336001600160a01b03851614611757576001600160a01b03841660009081526034602090815260408083203384529091529020546000198114611755576117558533610b9f8785615424565b505b6117618284612133565b61176b848461214d565b60408051838152602081018590526001600160a01b03808716929088169133917ffbde797d201c681b91056529119e0b02407c7bb96a4a2c75c01fc9667232c8db910160405180910390a46065546117cd906001600160a01b03168684612bfe565b50509392505050565b60006117e0612c61565b80610a9c5750610a9c82612c8f565b60006117f9612122565b600061180485610a53565b9050600061181182611e85565b9093509050600061182184611e9a565b9050836000036118615760405162461bcd60e51b815260206004820152600b60248201526a5a45524f5f41535345545360a81b6044820152606401610b4a565b336001600160a01b038616146118af576001600160a01b038516600090815260346020908152604080832033845290915290205460001981146118ad576118ad8633610b9f8585615424565b505b6118b88261212a565b6118c28482612133565b6118cc858261214d565b60408051858152602081018390526001600160a01b03808816929089169133917ffbde797d201c681b91056529119e0b02407c7bb96a4a2c75c01fc9667232c8db910160405180910390a460655461192e906001600160a01b03168786612bfe565b5050509392505050565b6066546001600160a01b031633146119805760405162461bcd60e51b815260206004820181905260248201526000805160206159a58339815191526044820152606401610b4a565b611988612da3565b60655461010c5460405163095ea7b360e01b81526001600160a01b039182166004820152600019602482015291169063095ea7b3906044016020604051808303816000875af11580156119df573d6000803e3d6000fd5b505050506040513d601f19601f82011682018060405250810190611a03919061543b565b50609b5461010c5460405163095ea7b360e01b81526001600160a01b039182166004820152600019602482015291169063095ea7b3906044015b6020604051808303816000875af1158015611a5c573d6000803e3d6000fd5b505050506040513d601f19601f82011682018060405250810190611413919061543b565b6000610a9c61081f6000610f96565b600080611a9b60355490565b90508015610a7f57610a7a81611aaf61093c565b859190611d41565b6001600160a01b038116600090815260336020526040812054610a9c90610fad565b6000610a9c610470610413846001600160a01b031660009081526033602052604090205490565b606060208251028201602001602083015b81811015611b26578051548152602001611b11565b509192915050565b6000610a9c82611a8f565b6066546001600160a01b03163314611b815760405162461bcd60e51b815260206004820181905260248201526000805160206159a58339815191526044820152606401610b4a565b6001600160a01b038116611be65760405162461bcd60e51b815260206004820152602660248201527f4f776e61626c653a206e6577206f776e657220697320746865207a65726f206160448201526564647265737360d01b6064820152608401610b4a565b61141381612407565b6066546001600160a01b03163314611c375760405162461bcd60e51b815260206004820181905260248201526000805160206159a58339815191526044820152606401610b4a565b60a2805463ffffffff60881b1916600160881b61ffff86811691820261ffff60981b191692909217600160981b9286169283021767ffffffffffffffff60a81b1916600160a81b67ffffffffffffffff861690810291909117909355604080519182526020820192909252908101919091527f4a9bdb3bab9a7cff0ea02e1428a3901c565a962f3b99b7d8d2b02787ca4f93f990606001610e33565b61010c5460405163ce96cb7760e01b81523060048201526000916001600160a01b03169063ce96cb7790602401602060405180830381865afa158015611d1d573d6000803e3d6000fd5b505050506040513d601f19601f820116820180604052508101906109bc91906153a3565b828202811515841585830485141716611d5957600080fd5b0492915050565b6001600160a01b038316611dc25760405162461bcd60e51b8152602060048201526024808201527f45524332303a20617070726f76652066726f6d20746865207a65726f206164646044820152637265737360e01b6064820152608401610b4a565b6001600160a01b038216611e235760405162461bcd60e51b815260206004820152602260248201527f45524332303a20617070726f766520746f20746865207a65726f206164647265604482015261737360f01b6064820152608401610b4a565b6001600160a01b0383811660008181526034602090815260408083209487168084529482529182902085905590518481527f8c5be1e5ebec7d5bd14f71427d1e84f3dd0314c0f7b2291e5b200ac8c7c3b92591015b60405180910390a3505050565b600080611e9183612e5a565b91509150915091565b600080611ea660355490565b90508015610a7f57610a7a81611eba61093c565b859190612bd0565b6001600160a01b038381166000908152603460209081526040808320938616835292905220546000198114611f4e5781811015611f415760405162461bcd60e51b815260206004820152601d60248201527f45524332303a20696e73756666696369656e7420616c6c6f77616e63650000006044820152606401610b4a565b611f4e8484848403611d60565b50505050565b6001600160a01b038316611fb85760405162461bcd60e51b815260206004820152602560248201527f45524332303a207472616e736665722066726f6d20746865207a65726f206164604482015264647265737360d81b6064820152608401610b4a565b6001600160a01b03821661201a5760405162461bcd60e51b815260206004820152602360248201527f45524332303a207472616e7366657220746f20746865207a65726f206164647260448201526265737360e81b6064820152608401610b4a565b6001600160a01b038316600090815260336020526040902054818110156120925760405162461bcd60e51b815260206004820152602660248201527f45524332303a207472616e7366657220616d6f756e7420657863656564732062604482015265616c616e636560d01b6064820152608401610b4a565b6001600160a01b038085166000908152603360205260408082208585039055918516815290812080548492906120c99084906153d2565b92505081905550826001600160a01b0316846001600160a01b03167fddf252ad1be2c89b69c2b068fc378daa952ba7f163c4a11628f55a4df523b3ef8460405161211591815260200190565b60405180910390a3611f4e565b61161061253e565b61141381612ef3565b61214461213e61093c565b83612f04565b6116108261301e565b6001600160a01b0382166121ad5760405162461bcd60e51b815260206004820152602160248201527f45524332303a206275726e2066726f6d20746865207a65726f206164647265736044820152607360f81b6064820152608401610b4a565b6001600160a01b038216600090815260336020526040902054818110156122215760405162461bcd60e51b815260206004820152602260248201527f45524332303a206275726e20616d6f756e7420657863656564732062616c616e604482015261636560f01b6064820152608401610b4a565b6001600160a01b0383166000908152603360205260408120838303905560358054849290612250908490615424565b90915550506040518281526000906001600160a01b038516907fddf252ad1be2c89b69c2b068fc378daa952ba7f163c4a11628f55a4df523b3ef90602001611e78565b505050565b60008080600019858709858702925082811083820303915050806000036122d157600084116122c657600080fd5b508290049050610a81565b8084116122dd57600080fd5b6000848688096000868103871696879004966002600389028118808a02820302808a02820302808a02820302808a02820302808a02820302808a02909103029181900381900460010186841190950394909402919094039290920491909117919091029150509392505050565b600061235583611b2e565b9050806000036123955760405162461bcd60e51b815260206004820152600b60248201526a5a45524f5f53484152455360a81b6044820152606401610b4a565b6065546123ad906001600160a01b031633308661309c565b6123b782826130d4565b60408051848152602081018390526001600160a01b0384169133917fdcbc1c05240f31ff3ad067ef1ee35ce4997762752e3a095284754544f4c709d7910160405180910390a3610a9c83826131b3565b606680546001600160a01b038381166001600160a01b0319831681179093556040519116919082907f8be0079c531659141344cd1fd0a4f28419497f9722a3daafe3b4186f6b6457e090600090a35050565b60a254600160801b900460ff1661248357604051632f0c3e3160e11b815260040160405180910390fd5b600061248e826154eb565b9050600061249a61320b565b905060006124a883836132d7565b60a254909150600160a81b900467ffffffffffffffff168111156125015760006124e3848460a260119054906101000a900461ffff1661330e565b5090508084036124fb5760a2805460ff60801b191690555b5061250f565b60a2805460ff60801b191690555b6040517f9a94a63b02012d6753ed863b962aceb756429b4265fc327391dd05fb24d4502b90600090a150505050565b609854609d54609c5460405163e9b7c36760e01b81526004810192909252600160a01b900463ffffffff16602482015260009182916001600160a01b039091169063e9b7c36790604401606060405180830381865afa1580156125a5573d6000803e3d6000fd5b505050506040513d601f19601f820116820180604052508101906125c9919061547c565b50609854609d54609e54604051630ad444cb60e21b8152600481019290925263ffffffff1660248201529193506001600160a01b03169150632b51132c90604401602060405180830381865afa158015612627573d6000803e3d6000fd5b505050506040513d601f19601f8201168201806040525081019061264b91906153a3565b915060006126576114e9565b9050612663838261337c565b6065546040516370a0823160e01b81523060048201526126d1916001600160a01b0316906370a0823190602401602060405180830381865afa1580156126ad573d6000803e3d6000fd5b505050506040513d601f19601f8201168201806040525081019061141391906153a3565b509091565b6126df8161364c565b60a28054911515600160801b0260ff60801b1990921691909117905560006127068261371c565b905060005b60028160ff1610156127f557818160ff166002811061272c5761272c615507565b602002015160400151600f0b156127f557609a54609d54609c546001600160a01b039092169163c7505c159190600160a01b900463ffffffff168560ff86166002811061277b5761277b615507565b60200201516040518463ffffffff1660e01b815260040161279e93929190615555565b60408051808303816000875af11580156127bc573d6000803e3d6000fd5b505050506040513d601f19601f820116820180604052508101906127e091906155ef565b505080806127ed90615613565b91505061270b565b5060a254600160801b900460ff16156122935761229383612459565b6000600160ff1b82106128515760405162461bcd60e51b81526020600482015260086024820152674f766572666c6f7760c01b6044820152606401610b4a565b5090565b6000612860836116b4565b60655490915061287b906001600160a01b031633308461309c565b61288582846130d4565b60408051828152602081018590526001600160a01b0384169133917fdcbc1c05240f31ff3ad067ef1ee35ce4997762752e3a095284754544f4c709d7910160405180910390a3610a9c81846131b3565b60008054610100900460ff1615612963578160ff1660011480156128f85750303b155b61295b5760405162461bcd60e51b815260206004820152602e60248201527f496e697469616c697a61626c653a20636f6e747261637420697320616c72656160448201526d191e481a5b9a5d1a585b1a5e995960921b6064820152608401610b4a565b506000919050565b60005460ff8084169116106129d15760405162461bcd60e51b815260206004820152602e60248201527f496e697469616c697a61626c653a20636f6e747261637420697320616c72656160448201526d191e481a5b9a5d1a585b1a5e995960921b6064820152608401610b4a565b506000805460ff191660ff92909216919091179055600190565b919050565b600054610100900460ff16612a175760405162461bcd60e51b8152600401610b4a90615632565b8051612a229061392a565b60208181015161010b80546001600160a01b0319166001600160a01b0392831617905560655460408051633c5103f760e11b8152905191909216926378a207ee92600480820193918290030181865afa158015612a83573d6000803e3d6000fd5b505050506040513d601f19601f82011682018060405250810190612aa7919061567d565b61010880546001600160a01b0319166001600160a01b039283161790556065546040805162af394d60e81b81529051919092169163af394d009160048083019260209291908290030181865afa158015612b05573d6000803e3d6000fd5b505050506040513d601f19601f82011682018060405250810190612b29919061567d565b61010980546001600160a01b0319166001600160a01b0392831617905560655460408051633e9b6c6f60e21b81529051919092169163fa6db1bc9160048083019260209291908290030181865afa158015612b88573d6000803e3d6000fd5b505050506040513d601f19601f82011682018060405250810190612bac919061567d565b61010a80546001600160a01b0319166001600160a01b039290921691909117905550565b828202811515841585830485141716612be857600080fd5b6001826001830304018115150290509392505050565b6040516001600160a01b03831660248201526044810182905261229390849063a9059cbb60e01b906064015b60408051601f198184030181529190526020810180516001600160e01b03166001600160e01b031990931692909217909152613a0f565b60a05460009063ffffffff600160501b82041690612c899067ffffffffffffffff1642615424565b11905090565b609e54609c54609a5460009273253E6cE50085F75FB04ced3b0FF35fe04C4490339263757d5fd6926001600160a01b03640100000000909304831692612ce89291169063ffffffff600160a01b909104811690613ae116565b60a05460a15460405160e086901b6001600160e01b03191681526001600160a01b03909416600485015263ffffffff9092166024840152600160401b900461ffff166044830152600160a01b8104600290810b6064840152600160b81b909104900b608482015260a401602060405180830381865af4158015612d6f573d6000803e3d6000fd5b505050506040513d601f19601f82011682018060405250810190612d93919061543b565b9050806129eb57610a9c8261364c565b609c54609a5460405163095ea7b360e01b81526001600160a01b039182166004820152600019602482015291169063095ea7b3906044016020604051808303816000875af1158015612df9573d6000803e3d6000fd5b505050506040513d601f19601f82011682018060405250810190612e1d919061543b565b50609b54609a5460405163095ea7b360e01b81526001600160a01b039182166004820152600019602482015291169063095ea7b390604401611a3d565b60008073253E6cE50085F75FB04ced3b0FF35fe04C449033632780ee3130612e8061093c565b6040516001600160e01b031960e085901b1681526001600160a01b0390921660048301526024820152604481018690526064016040805180830381865af4158015612ecf573d6000803e3d6000fd5b505050506040513d601f19601f82011682018060405250810190611e9191906155ef565b801561141357612293816000613b81565b6000612f1283836001613c71565b90508060400151612f229061569a565b60a28054600090612f3d9084906001600160801b03166156c9565b82546101009290920a6001600160801b0381810219909316918316021790915560a254166000039050612f7257600160a08201525b609a54609d54609c5460405163c7505c1560e01b81526001600160a01b039093169263c7505c1592612fb9929091600160a01b90910463ffffffff16908690600401615555565b60408051808303816000875af1158015612fd7573d6000803e3d6000fd5b505050506040513d601f19601f82011682018060405250810190612ffb91906155ef565b5050600061300b61156b84610fcf565b9050611f4e613019826154eb565b613ce2565b61010c54604051632d182be560e21b815260048101839052306024820181905260448201526001600160a01b039091169063b460af94906064015b6020604051808303816000875af1158015613078573d6000803e3d6000fd5b505050506040513d601f19601f8201168201806040525081019061161091906153a3565b6040516001600160a01b0380851660248301528316604482015260648101829052611f4e9085906323b872dd60e01b90608401612c2a565b6001600160a01b03821661312a5760405162461bcd60e51b815260206004820152601f60248201527f45524332303a206d696e7420746f20746865207a65726f2061646472657373006044820152606401610b4a565b806035600082825461313c91906153d2565b90915550506001600160a01b038216600090815260336020526040812080548392906131699084906153d2565b90915550506040518181526001600160a01b038316906000907fddf252ad1be2c89b69c2b068fc378daa952ba7f163c4a11628f55a4df523b3ef9060200160405180910390a35050565b6131bc82613fb5565b6131cd6131c761093c565b83613fed565b609f546131d861093c565b111561161057609f546131e961093c565b6040516301b25d0360e41b815260048101929092526024820152604401610b4a565b609e54609c54609a5460009273253E6cE50085F75FB04ced3b0FF35fe04C4490339263e54c8fd8926001600160a01b036401000000009093048316926132649291169063ffffffff600160a01b909104811690613ae116565b6040516001600160e01b031960e085901b1681526001600160a01b03909216600483015263ffffffff166024820152604401602060405180830381865af41580156132b3573d6000803e3d6000fd5b505050506040513d601f19601f820116820180604052508101906109bc919061567d565b6000610a816133096001600160a01b0384166c0100000000000000000000000061330287838361423d565b919061423d565b61427f565b6000806000808613156133505761334961334461332d866127106156f1565b6001600160a01b0388169061ffff16612710612298565b61428a565b9050613365565b61336261334461332d86612710615717565b90505b61336f8682613b81565b9097909650945050505050565b609a54609d54604051631c7a838360e31b815260048101919091526000916001600160a01b03169063e3d41c1890602401602060405180830381865afa1580156133ca573d6000803e3d6000fd5b505050506040513d601f19601f820116820180604052508101906133ee91906153a3565b9050600081131561348157609a54609d546001600160a01b0390911690639cd1be589061341d84600019615732565b6040516001600160e01b031960e085901b16815260048101929092526024820152604401600060405180830381600087803b15801561345b57600080fd5b505af115801561346f573d6000803e3d6000fd5b5050505061347c816142ce565b613522565b60008112156135225760006134a061349b83600019615732565b61430a565b9050801561352057609a54609d546001600160a01b0390911690639cd1be58906134c984612811565b6040516001600160e01b031960e085901b16815260048101929092526024820152604401600060405180830381600087803b15801561350757600080fd5b505af115801561351b573d6000803e3d6000fd5b505050505b505b6000831561364057609b546040805163313ce56760e01b8152905161362f926001600160a01b03169163313ce5679160048083019260209291908290030181865afa158015613575573d6000803e3d6000fd5b505050506040513d601f19601f8201168201806040525081019061359991906157b7565b6135a490600a6158be565b609c60009054906101000a90046001600160a01b03166001600160a01b031663313ce5676040518163ffffffff1660e01b8152600401602060405180830381865afa1580156135f7573d6000803e3d6000fd5b505050506040513d601f19601f8201168201806040525081019061361b91906157b7565b61362690600a6158be565b61330287612811565b61363990846158cd565b9050613643565b50815b611f4e81613ce2565b609a54609d54609c54604051633524324160e11b81526004810192909252600160a01b900463ffffffff16602482015260009182916001600160a01b0390911690636a48648290604401602060405180830381865afa1580156136b3573d6000803e3d6000fd5b505050506040513d601f19601f820116820180604052508101906136d791906153a3565b905060006136ec826136e761320b565b6132d7565b60a25490915061371490600160981b900461ffff1661271061370d8761427f565b9190612298565b109392505050565b613724614b49565b60a2546000906001600160801b0316156137a25760a15460a25461377a91600160a01b8104600290810b92600160b81b909204900b9061376c906001600160801b03166144f5565b6137759061569a565b61453e565b828260ff166002811061378f5761378f615507565b60200201528061379e81615613565b9150505b60006137ac61320b565b604051630ad6ed5b60e41b81526001600160a01b038216600482015260248101869052620c3500604482015290915060009073253E6cE50085F75FB04ced3b0FF35fe04C4490339063ad6ed5b090606401606060405180830381865af415801561381a573d6000803e3d6000fd5b505050506040513d601f19601f8201168201806040525081019061383e919061591e565b60a1805465ffffffffffff60a01b1916600160b81b62ffffff9485160262ffffff60a01b191617600160a01b94909316939093029190911790915560a2549091506001600160801b0316158061389d575060a254600160801b900460ff165b156138c75760a280546fffffffffffffffffffffffffffffffff19166001600160801b0383161790555b60a15460a2546138fb91600160a01b8104600290810b92600160b81b909204900b90613775906001600160801b03166144f5565b848460ff166002811061391057613910615507565b60200201528261391f81615613565b935050505050919050565b600054610100900460ff166139515760405162461bcd60e51b8152600401610b4a90615632565b805161395c906145b6565b60208181015160a2805460408086015160608088015163ffffffff60881b19909416600160881b61ffff97881690810261ffff60981b191691909117600160981b979093169687029290921767ffffffffffffffff60a81b1916600160a81b67ffffffffffffffff90951694850217909455815190815294850193909352918301919091527f4a9bdb3bab9a7cff0ea02e1428a3901c565a962f3b99b7d8d2b02787ca4f93f9910160405180910390a150565b6000613a64826040518060400160405280602081526020017f5361666545524332303a206c6f772d6c6576656c2063616c6c206661696c6564815250856001600160a01b03166147a99092919063ffffffff16565b8051909150156122935780806020019051810190613a82919061543b565b6122935760405162461bcd60e51b815260206004820152602a60248201527f5361666545524332303a204552433230206f7065726174696f6e20646964206e6044820152691bdd081cdd58d8d9595960b21b6064820152608401610b4a565b600080836001600160a01b0316631e2eaeaf613b056003613b01876147b8565b0190565b6040518263ffffffff1660e01b8152600401613b2391815260200190565b602060405180830381865afa158015613b40573d6000803e3d6000fd5b505050506040513d601f19601f82011682018060405250810190613b6491906153a3565b9050613b7963ffffffff60b083901c166147d2565b949350505050565b6040805160a0810182528381526001600160a01b0383811660208301908152600083850181815260016060860190815260808601838152609a54609d54609c5499516383d778eb60e01b81526004810191909152600160a01b90990463ffffffff1660248a0152875160448a015294518616606489015291511515608488015251151560a487015251151560c48601529384939291909116906383d778eb9060e40160408051808303816000875af1158015613c41573d6000803e3d6000fd5b505050506040513d601f19601f82011682018060405250810190613c6591906155ef565b90969095509350505050565b613c79614b76565b60a254600090613ca290613c9d9086908890613302906001600160801b0316612811565b6147da565b90508215613cb657613cb38161569a565b90505b60a154613cd990600160a01b8104600290810b91600160b81b9004900b8361453e565b95945050505050565b6000613df3609c60009054906101000a90046001600160a01b03166001600160a01b031663313ce5676040518163ffffffff1660e01b8152600401602060405180830381865afa158015613d3a573d6000803e3d6000fd5b505050506040513d601f19601f82011682018060405250810190613d5e91906157b7565b613d6990600a6158be565b609b60009054906101000a90046001600160a01b03166001600160a01b031663313ce5676040518163ffffffff1660e01b8152600401602060405180830381865afa158015613dbc573d6000803e3d6000fd5b505050506040513d601f19601f82011682018060405250810190613de091906157b7565b613deb90600a6158be565b84919061423d565b90506000613e008261427f565b90506000821315613eec57609c546040516340c10f1960e01b8152306004820152602481018390526001600160a01b03909116906340c10f1990604401600060405180830381600087803b158015613e5757600080fd5b505af1158015613e6b573d6000803e3d6000fd5b5050609a54609d54609e54604051637d2efe0760e01b8152600481019290925263ffffffff166024820152604481018590526001600160a01b039091169250637d2efe0791506064015b600060405180830381600087803b158015613ecf57600080fd5b505af1158015613ee3573d6000803e3d6000fd5b50505050505050565b600082121561229357609a54609d54609e546001600160a01b0390921691637d2efe07919063ffffffff16613f20856154eb565b6040516001600160e01b031960e086901b168152600481019390935263ffffffff9190911660248301526044820152606401600060405180830381600087803b158015613f6c57600080fd5b505af1158015613f80573d6000803e3d6000fd5b5050609c54604051630852cd8d60e31b8152600481018590526001600160a01b0390911692506342966c689150602401613eb5565b61010c54604051636e553f6560e01b8152600481018390523060248201526001600160a01b0390911690636e553f6590604401613059565b6000613ffb61156b83610fcf565b905061400681613ce2565b61400e614b76565b60a2546001600160801b031615801561402657508284145b1561414d57600061403561320b565b604051630ad6ed5b60e41b81526001600160a01b038216600482015260248101859052620c3500604482015290915073253E6cE50085F75FB04ced3b0FF35fe04C4490339063ad6ed5b090606401606060405180830381865af41580156140a0573d6000803e3d6000fd5b505050506040513d601f19601f820116820180604052508101906140c4919061591e565b60a280546fffffffffffffffffffffffffffffffff19166001600160801b0392909216918217905560a1805465ffffffffffff60a01b1916600160b81b62ffffff948516810262ffffff60a01b191691909117600160a01b9590941685029390931790819055614145938104600290810b93909104900b90613775906144f5565b9150506141ac565b61416261415a8486615424565b846000613c71565b604081015160a2805492935090916000906141879084906001600160801b0316615966565b92506101000a8154816001600160801b0302191690836001600160801b031602179055505b609a54609d54609c5460405163c7505c1560e01b81526001600160a01b039093169263c7505c15926141f3929091600160a01b90910463ffffffff16908690600401615555565b60408051808303816000875af1158015614211573d6000803e3d6000fd5b505050506040513d601f19601f8201168201806040525081019061423591906155ef565b505050505050565b600061426b61426660008612614253578561425f565b61425f86600019615732565b8585612298565b614819565b90506000841215610a8157613b79816154eb565b6000610a9c8261482b565b806001600160a01b03811681146129eb5760405162461bcd60e51b81526020600482015260086024820152674f766572666c6f7760c01b6044820152606401610b4a565b61010c54609b546040516319c5aef560e11b81526001600160a01b0391821660048201526024810184905291169063338b5dea90604401613059565b610107546000906201000090046001600160f01b031682101561432f57506000919050565b6000614349600160801b614341610e7a565b859190612298565b61010c54604051632d182be560e21b815260048101839052306024820181905260448201529192506001600160a01b03169063b460af94906064016020604051808303816000875af11580156143a3573d6000803e3d6000fd5b505050506040513d601f19601f820116820180604052508101906143c791906153a3565b5061010b54609b54610107546001600160a01b0392831692630f3aa554921690849061440b906143fd9061ffff16612710615717565b889061ffff16612710612298565b6040516001600160e01b031960e086901b1681526001600160a01b039093166004840152602483019190915260448201523060648201526084016020604051808303816000875af1158015614464573d6000803e3d6000fd5b505050506040513d601f19601f8201168201806040525081019061448891906153a3565b50609b546040516370a0823160e01b81523060048201526001600160a01b03909116906370a0823190602401602060405180830381865afa1580156144d1573d6000803e3d6000fd5b505050506040513d601f19601f82011682018060405250810190610a8191906153a3565b60006001607f1b826001600160801b0316106128515760405162461bcd60e51b81526020600482015260086024820152674f766572666c6f7760c01b6044820152606401610b4a565b614546614b76565b6040518061010001604052808560020b81526020018460020b815260200183600f0b815260200160006001600160a01b03168152602001600061ffff168152602001600015158152602001600060028111156145a4576145a461551d565b81526000602090910152949350505050565b600054610100900460ff166145dd5760405162461bcd60e51b8152600401610b4a90615632565b6145e5614842565b80516145f090614871565b602081810151609c805463ffffffff60a01b1916600160a01b63ffffffff909316929092029190911790556080820151609880546001600160a01b03199081166001600160a01b03938416179091556040808501516099805484169185169190911790556060850151609a805490931693169283179091558051639dca362f60e01b815290519192639dca362f9260048381019382900301816000875af115801561469f573d6000803e3d6000fd5b505050506040513d601f19601f820116820180604052508101906146c391906153a3565b609d5560c0810151609b80546001600160a01b03199081166001600160a01b039384161790915560a0830151609c80549092169083161790819055609a5461471d921690600160a01b900463ffffffff9081169061488816565b609e80546001600160a01b039283166401000000000277ffffffffffffffffffffffffffffffffffffffff000000001990911617905560a0820151614766911663ffffffff1690565b609e805463ffffffff191663ffffffff929092169190911790555060a080546dffffffffffff000000000000000019166c01518001f40000000000000000179055565b6060613b798484600085614907565b63ffffffff81166000908152606460205260408120610a9c565b600081610a9c565b80600f81900b81146129eb5760405162461bcd60e51b81526020600482015260086024820152674f766572666c6f7760c01b6044820152606401610b4a565b6000600160ff1b821061285157600080fd5b60008082136128515761483d826154eb565b610a9c565b600054610100900460ff166148695760405162461bcd60e51b8152600401610b4a90615632565b61133d614a38565b611413816000015182602001518360400151614a68565b600080836001600160a01b0316631e2eaeaf6148a86001613b01876147b8565b6040518263ffffffff1660e01b81526004016148c691815260200190565b602060405180830381865afa1580156148e3573d6000803e3d6000fd5b505050506040513d601f19601f82011682018060405250810190613b7991906153a3565b6060824710156149685760405162461bcd60e51b815260206004820152602660248201527f416464726573733a20696e73756666696369656e742062616c616e636520666f6044820152651c8818d85b1b60d21b6064820152608401610b4a565b6001600160a01b0385163b6149bf5760405162461bcd60e51b815260206004820152601d60248201527f416464726573733a2063616c6c20746f206e6f6e2d636f6e74726163740000006044820152606401610b4a565b600080866001600160a01b031685876040516149db9190615988565b60006040518083038185875af1925050503d8060008114614a18576040519150601f19603f3d011682016040523d82523d6000602084013e614a1d565b606091505b5091509150614a2d828286614a96565b979650505050505050565b600054610100900460ff16614a5f5760405162461bcd60e51b8152600401610b4a90615632565b61133d33612407565b614a728282614acf565b5050606580546001600160a01b0319166001600160a01b0392909216919091179055565b60608315614aa5575081610a81565b825115614ab55782518084602001fd5b8160405162461bcd60e51b8152600401610b4a9190614c77565b600054610100900460ff16614af65760405162461bcd60e51b8152600401610b4a90615632565b6116108282600054610100900460ff16614b225760405162461bcd60e51b8152600401610b4a90615632565b8151614b35906036906020850190614bbb565b508051612293906037906020840190614bbb565b60405180604001604052806002905b614b60614b76565b815260200190600190039081614b585790505090565b6040805161010081018252600080825260208201819052918101829052606081018290526080810182905260a081018290529060c08201908152600060209091015290565b828054614bc7906153ea565b90600052602060002090601f016020900481019282614be95760008555614c2f565b82601f10614c0257805160ff1916838001178555614c2f565b82800160010185558215614c2f579182015b82811115614c2f578251825591602001919060010190614c14565b506128519291505b808211156128515760008155600101614c37565b60005b83811015614c66578181015183820152602001614c4e565b83811115611f4e5750506000910152565b6020815260008251806020840152614c96816040850160208701614c4b565b601f01601f19169190910160400192915050565b600060208284031215614cbc57600080fd5b5035919050565b6001600160a01b038116811461141357600080fd5b80356129eb81614cc3565b60008060408385031215614cf657600080fd5b8235614d0181614cc3565b946020939093013593505050565b600080600060608486031215614d2457600080fd5b8335614d2f81614cc3565b92506020840135614d3f81614cc3565b929592945050506040919091013590565b600080600080600060a08688031215614d6857600080fd5b8535614d7381614cc3565b945060208601359350604086013592506060860135614d9181614cc3565b91506080860135614da181614cc3565b809150509295509295909350565b803561ffff811681146129eb57600080fd5b600080600060608486031215614dd657600080fd5b8335614de181614cc3565b9250614def60208501614daf565b915060408401356001600160f01b0381168114614e0b57600080fd5b809150509250925092565b600060208284031215614e2857600080fd5b8135610a8181614cc3565b803563ffffffff811681146129eb57600080fd5b60008060008060808587031215614e5d57600080fd5b843593506020850135614e6f81614cc3565b9250614e7d60408601614e33565b9150614e8b60608601614daf565b905092959194509250565b60008060408385031215614ea957600080fd5b823591506020830135614ebb81614cc3565b809150509250929050565b634e487b7160e01b600052604160045260246000fd5b6040805190810167ffffffffffffffff81118282101715614eff57614eff614ec6565b60405290565b6040516080810167ffffffffffffffff81118282101715614eff57614eff614ec6565b60405160e0810167ffffffffffffffff81118282101715614eff57614eff614ec6565b604051601f8201601f1916810167ffffffffffffffff81118282101715614f7457614f74614ec6565b604052919050565b600082601f830112614f8d57600080fd5b813567ffffffffffffffff811115614fa757614fa7614ec6565b614fba601f8201601f1916602001614f4b565b818152846020838601011115614fcf57600080fd5b816020850160208301376000918101602001919091529392505050565b600060608284031215614ffe57600080fd5b6040516060810167ffffffffffffffff828210818311171561502257615022614ec6565b816040528293508435915061503682614cc3565b9082526020840135908082111561504c57600080fd5b61505886838701614f7c565b6020840152604085013591508082111561507157600080fd5b5061507e85828601614f7c565b6040830152505092915050565b803567ffffffffffffffff811681146129eb57600080fd5b600060208083850312156150b657600080fd5b823567ffffffffffffffff808211156150ce57600080fd5b90840190604082870312156150e257600080fd5b6150ea614edc565b8235828111156150f957600080fd5b83016080818903121561510b57600080fd5b615113614f05565b81358481111561512257600080fd5b820160e0818b03121561513457600080fd5b61513c614f28565b81358681111561514b57600080fd5b6151578c828501614fec565b825250615165888301614e33565b8882015261517560408301614cd8565b604082015261518660608301614cd8565b606082015261519760808301614cd8565b60808201526151a860a08301614cd8565b60a08201526151b960c08301614cd8565b60c08201528252506151cc828701614daf565b868201526151dc60408301614daf565b60408201526151ed6060830161508b565b6060820152825250615200838501614cd8565b848201528094505050505092915050565b60008060006060848603121561522657600080fd5b83359250602084013561523881614cc3565b91506040840135614e0b81614cc3565b6000602080838503121561525b57600080fd5b823567ffffffffffffffff8082111561527357600080fd5b818501915085601f83011261528757600080fd5b81358181111561529957615299614ec6565b8060051b91506152aa848301614f4b565b81815291830184019184810190888411156152c457600080fd5b938501935b838510156152e2578435825293850193908501906152c9565b98975050505050505050565b6020808252825182820181905260009190848201906040850190845b818110156153265783518352928401929184019160010161530a565b50909695505050505050565b6000806040838503121561534557600080fd5b823561535081614cc3565b91506020830135614ebb81614cc3565b60008060006060848603121561537557600080fd5b61537e84614daf565b925061538c60208501614daf565b915061539a6040850161508b565b90509250925092565b6000602082840312156153b557600080fd5b5051919050565b634e487b7160e01b600052601160045260246000fd5b600082198211156153e5576153e56153bc565b500190565b600181811c908216806153fe57607f821691505b60208210810361541e57634e487b7160e01b600052602260045260246000fd5b50919050565b600082821015615436576154366153bc565b500390565b60006020828403121561544d57600080fd5b81518015158114610a8157600080fd5b6000816000190483118215151615615477576154776153bc565b500290565b60008060006060848603121561549157600080fd5b8351925060208401519150604084015190509250925092565b600080821280156001600160ff1b03849003851316156154cc576154cc6153bc565b600160ff1b83900384128116156154e5576154e56153bc565b50500190565b6000600160ff1b8201615500576155006153bc565b5060000390565b634e487b7160e01b600052603260045260246000fd5b634e487b7160e01b600052602160045260246000fd5b6003811061555157634e487b7160e01b600052602160045260246000fd5b9052565b60006101408201905084825263ffffffff84166020830152825160020b6040830152602083015160020b60608301526040830151600f0b608083015260608301516155ab60a08401826001600160a01b03169052565b50608083015161ffff1660c08381019190915260a0840151151560e08401528301516155db610100840182615533565b5060e0830151801515610120840152610fc6565b6000806040838503121561560257600080fd5b505080516020909101519092909150565b600060ff821660ff8103615629576156296153bc565b60010192915050565b6020808252602b908201527f496e697469616c697a61626c653a20636f6e7472616374206973206e6f74206960408201526a6e697469616c697a696e6760a81b606082015260800190565b60006020828403121561568f57600080fd5b8151610a8181614cc3565b600081600f0b6f7fffffffffffffffffffffffffffffff1981036156c0576156c06153bc565b60000392915050565b60006001600160801b03838116908316818110156156e9576156e96153bc565b039392505050565b600061ffff80831681851680830382111561570e5761570e6153bc565b01949350505050565b600061ffff838116908316818110156156e9576156e96153bc565b60006001600160ff1b0381841382841380821686840486111615615758576157586153bc565b600160ff1b6000871282811687830589121615615777576157776153bc565b60008712925087820587128484161615615793576157936153bc565b878505871281841616156157a9576157a96153bc565b505050929093029392505050565b6000602082840312156157c957600080fd5b815160ff81168114610a8157600080fd5b600181815b808511156158155781600019048211156157fb576157fb6153bc565b8085161561580857918102915b93841c93908002906157df565b509250929050565b60008261582c57506001610a9c565b8161583957506000610a9c565b816001811461584f576002811461585957615875565b6001915050610a9c565b60ff84111561586a5761586a6153bc565b50506001821b610a9c565b5060208310610133831016604e8410600b8410161715615898575081810a610a9c565b6158a283836157da565b80600019048211156158b6576158b66153bc565b029392505050565b6000610a8160ff84168361581d565b60008083128015600160ff1b8501841216156158eb576158eb6153bc565b6001600160ff1b0384018313811615615906576159066153bc565b50500390565b8051600281900b81146129eb57600080fd5b60008060006060848603121561593357600080fd5b61593c8461590c565b925061594a6020850161590c565b915060408401516001600160801b0381168114614e0b57600080fd5b60006001600160801b0380831681851680830382111561570e5761570e6153bc565b6000825161599a818460208701614c4b565b919091019291505056fe4f776e61626c653a2063616c6c6572206973206e6f7420746865206f776e6572a164736f6c634300080e000a",
  "deployedBytecode": "0x608060405234801561001057600080fd5b50600436106103d05760003560e01c80637999e84e116101ff578063bf9571f11161011a578063dd62ed3e116100ad578063f2fde38b1161007c578063f2fde38b146108fa578063fcb777ef1461090d578063fd967f4714610920578063ff9281531461092957600080fd5b8063dd62ed3e1461088a578063e6648853146108c3578063ee3a98ff146108cc578063ef8b30f7146108e757600080fd5b8063d4406e89116100e9578063d4406e8914610837578063d905777e1461084e578063dbd035ff14610861578063dbd5edc71461088157600080fd5b8063bf9571f1146107f6578063c63d75b6146107fe578063c6e6f59214610811578063ce96cb771461082457600080fd5b8063a457c2d711610192578063b460af9411610161578063b460af94146107a9578063b6cdc2d5146107bc578063b81aecd9146107d0578063ba087652146107e357600080fd5b8063a457c2d71461075d578063a9059cbb14610770578063aced166114610783578063b3d7f6b91461079657600080fd5b806394bf804d116101ce57806394bf804d1461072057806395d89b4114610733578063999693281461073b57806399a26af91461074e57600080fd5b80637999e84e146106f75780637d7c2a1c146106ff5780638d315d7b146107075780638da5cb5b1461070f57600080fd5b80633f6be822116102ef57806357b082fc116102825780636e553f65116102515780636e553f651461068157806370a0823114610694578063715018a6146106bd57806376533b92146106c557600080fd5b806357b082fc1461061d5780635f63e06614610631578063620bc225146106445780636a8db81d1461066c57600080fd5b80635053145f116102be5780635053145f146105b9578063554070bc146105e457806356501144146105f75780635657b90d1461060a57600080fd5b80633f6be82214610553578063402d267d146105675780634afe813e1461057a5780634cdad506146105a657600080fd5b80631e2eaeaf11610367578063313ce56711610336578063313ce567146104fe57806338d52e0f1461050d57806339509351146105385780633d672a451461054b57600080fd5b80631e2eaeaf146104b157806323b872dd146104c357806324ffe6c2146104d65780632717d25b146104eb57600080fd5b806309a68a92116103a357806309a68a921461043b5780630a28a4771461046257806318160ddd146104755780631aa3dfbb1461047d57600080fd5b806301e1d114146103d557806306fdde03146103f057806307a2d13a14610405578063095ea7b314610418575b600080fd5b6103dd61093c565b6040519081526020015b60405180910390f35b6103f86109c1565b6040516103e79190614c77565b6103dd610413366004614caa565b610a53565b61042b610426366004614ce3565b610a88565b60405190151581526020016103e7565b60a15461044f90600160b81b900460020b81565b60405160029190910b81526020016103e7565b6103dd610470366004614caa565b610aa2565b6035546103dd565b60a25461049890600160a81b900467ffffffffffffffff1681565b60405167ffffffffffffffff90911681526020016103e7565b6103dd6104bf366004614caa565b5490565b61042b6104d1366004614d0f565b610aba565b6104e96104e4366004614d50565b610ade565b005b6104e96104f9366004614dc1565b610d25565b604051601281526020016103e7565b606554610520906001600160a01b031681565b6040516001600160a01b0390911681526020016103e7565b61042b610546366004614ce3565b610e40565b6103dd610e7a565b60a0546104989067ffffffffffffffff1681565b6103dd610575366004614e16565b610f96565b60a05461059190600160501b900463ffffffff1681565b60405163ffffffff90911681526020016103e7565b6103dd6105b4366004614caa565b610fad565b60a2546105cc906001600160801b031681565b6040516001600160801b0390911681526020016103e7565b6103dd6105f2366004614caa565b610fcf565b6104e9610605366004614e47565b610fe8565b6104e9610618366004614d50565b6110e6565b60a25461042b90600160801b900460ff1681565b609a54610520906001600160a01b031681565b60a05461065990600160401b900461ffff1681565b60405161ffff90911681526020016103e7565b60a25461065990600160881b900461ffff1681565b6103dd61068f366004614e96565b6112d7565b6103dd6106a2366004614e16565b6001600160a01b031660009081526033602052604090205490565b6104e96112eb565b610107546106df906201000090046001600160f01b031681565b6040516001600160f01b0390911681526020016103e7565b6104e961133f565b6104e9611416565b6103dd6114e9565b6066546001600160a01b0316610520565b6103dd61072e366004614e96565b61157a565b6103f861158e565b6104e96107493660046150a3565b61159d565b610107546106599061ffff1681565b61042b61076b366004614ce3565b611614565b61042b61077e366004614ce3565b6116a6565b60a154610520906001600160a01b031681565b6103dd6107a4366004614caa565b6116b4565b6103dd6107b7366004615211565b6116db565b60a15461044f90600160a01b900460020b81565b61042b6107de366004614caa565b6117d6565b6103dd6107f1366004615211565b6117ef565b6104e9611938565b6103dd61080c366004614e16565b611a80565b6103dd61081f366004614caa565b611a8f565b6103dd610832366004614e16565b611ab7565b609c5461059190600160a01b900463ffffffff1681565b6103dd61085c366004614e16565b611ad9565b61087461086f366004615248565b611b00565b6040516103e791906152ee565b6103dd609f5481565b6103dd610898366004615332565b6001600160a01b03918216600090815260346020908152604080832093909416825291909152205490565b6103dd609d5481565b609e546105209064010000000090046001600160a01b031681565b6103dd6108f5366004614caa565b611b2e565b6104e9610908366004614e16565b611b39565b609954610520906001600160a01b031681565b61065961271081565b6104e9610937366004615360565b611bef565b6000610946611cd3565b6065546040516370a0823160e01b81523060048201526001600160a01b03909116906370a0823190602401602060405180830381865afa15801561098e573d6000803e3d6000fd5b505050506040513d601f19601f820116820180604052508101906109b291906153a3565b6109bc91906153d2565b905090565b6060603680546109d0906153ea565b80601f01602080910402602001604051908101604052809291908181526020018280546109fc906153ea565b8015610a495780601f10610a1e57610100808354040283529160200191610a49565b820191906000526020600020905b815481529060010190602001808311610a2c57829003601f168201915b5050505050905090565b600080610a5f60355490565b90508015610a7f57610a7a610a7261093c565b849083611d41565b610a81565b825b9392505050565b600033610a96818585611d60565b60019150505b92915050565b600080610aae83611e85565b509050610a8181611e9a565b600033610ac8858285611ec2565b610ad3858585611f54565b506001949350505050565b610ae6612122565b6000610af185610a53565b9050600080610aff83611e85565b915091506000610b0e83611e9a565b905082600003610b535760405162461bcd60e51b815260206004820152600b60248201526a5a45524f5f41535345545360a81b60448201526064015b60405180910390fd5b336001600160a01b03871614610ba6576001600160a01b03861660009081526034602090815260408083203384529091529020546000198114610ba457610ba48733610b9f8585615424565b611d60565b505b610baf8261212a565b610bb98382612133565b610bc3868261214d565b60655461010a5460405163095ea7b360e01b81526001600160a01b0391821660048201526024810186905291169063095ea7b3906044016020604051808303816000875af1158015610c19573d6000803e3d6000fd5b505050506040513d601f19601f82011682018060405250810190610c3d919061543b565b5061010b546040516303cea95560e21b81526001600160a01b038b8116600483015260248201869052604482018a9052878116606483015290911690630f3aa554906084016020604051808303816000875af1158015610ca1573d6000803e3d6000fd5b505050506040513d601f19601f82011682018060405250810190610cc591906153a3565b50604080516001600160a01b038b81168252602082018690529181018390528187169188169033907fb1487fc3cb6151cd411ec1ee8f3c8d87141376d8deb36f3d5d597b7ee117450a9060600160405180910390a4505050505050505050565b6066546001600160a01b03163314610d6d5760405162461bcd60e51b815260206004820181905260248201526000805160206159a58339815191526044820152606401610b4a565b6001600160a01b03831615801590610d8a575061271061ffff8316105b15610dc95761ffff8216620100006001600160f01b03831602176101075561010c80546001600160a01b0319166001600160a01b038516179055610de2565b604051638a4b893760e01b815260040160405180910390fd5b604080516001600160a01b038516815261ffff841660208201526001600160f01b038316918101919091527f5051898c1d1dd86f8ddd55eb56a9f5249cf39f767c9498b9c8cf8cfa50a24cd1906060015b60405180910390a1505050565b3360008181526034602090815260408083206001600160a01b0387168452909152812054909190610a969082908690610b9f9087906153d2565b61010a5460405163019c8a3b60e11b81526000600482018190529182916001600160a01b0390911690630339147690602401602060405180830381865afa158015610ec9573d6000803e3d6000fd5b505050506040513d601f19601f82011682018060405250810190610eed91906153a3565b9050600061010860009054906101000a90046001600160a01b03166001600160a01b03166318160ddd6040518163ffffffff1660e01b8152600401602060405180830381865afa158015610f45573d6000803e3d6000fd5b505050506040513d601f19601f82011682018060405250810190610f6991906153a3565b9050610f8f600160801b610f878369d3c21bcecceda100000061545d565b849190612298565b9250505090565b6000610fa061093c565b609f54610a9c9190615424565b600080610fb983610a53565b90506000610fc682611e85565b50949350505050565b6000610a9c610fdc610e7a565b8390600160801b612298565b6066546001600160a01b031633146110305760405162461bcd60e51b815260206004820181905260248201526000805160206159a58339815191526044820152606401610b4a565b60a180546001600160a01b0319166001600160a01b038516908117909155609f85905560a080546dffffffffffff00000000000000001916600160501b63ffffffff861690810269ffff0000000000000000191691909117600160401b61ffff86169081029190911790925560408051888152602081019490945283015260608201527f69a94cb0b737928b3387da2d3d2a8d288ec329d009d2b769142dd314cc026ecd9060800160405180910390a150505050565b6110ee612122565b6000806110fa86611e85565b91509150600061110983611e9a565b90506111148261212a565b336001600160a01b03861614611162576001600160a01b03851660009081526034602090815260408083203384529091529020546000198114611160576111608633610b9f8585615424565b505b61116c8382612133565b611176858261214d565b60655461010a5460405163095ea7b360e01b81526001600160a01b0391821660048201526024810186905291169063095ea7b3906044016020604051808303816000875af11580156111cc573d6000803e3d6000fd5b505050506040513d601f19601f820116820180604052508101906111f0919061543b565b5061010b546040516303cea95560e21b81526001600160a01b038a811660048301526024820186905260448201899052868116606483015290911690630f3aa554906084016020604051808303816000875af1158015611254573d6000803e3d6000fd5b505050506040513d601f19601f8201168201806040525081019061127891906153a3565b50604080516001600160a01b038a81168252602082018690529181018390528186169187169033907fb1487fc3cb6151cd411ec1ee8f3c8d87141376d8deb36f3d5d597b7ee117450a9060600160405180910390a45050505050505050565b60006112e1612122565b610a81838361234a565b6066546001600160a01b031633146113335760405162461bcd60e51b815260206004820181905260248201526000805160206159a58339815191526044820152606401610b4a565b61133d6000612407565b565b60a1546001600160a01b0316331461137f5760a1546040516369958c7360e01b81523360048201526001600160a01b039091166024820152604401610b4a565b609854609d54609c5460405163e9b7c36760e01b81526004810192909252600160a01b900463ffffffff1660248201526000916001600160a01b03169063e9b7c36790604401606060405180830381865afa1580156113e2573d6000803e3d6000fd5b505050506040513d601f19601f82011682018060405250810190611406919061547c565b5091505061141381612459565b50565b60a1546001600160a01b031633146114565760a1546040516369958c7360e01b81523360048201526001600160a01b039091166024820152604401610b4a565b60006114606114e9565b905061146b816117d6565b61148857604051636fa1adc360e01b815260040160405180910390fd5b600061149261253e565b91505061149f81836126d6565b60a0805467ffffffffffffffff19164267ffffffffffffffff161790556040517ff57243a1fddfdc9fa2c7de26cc3503b1b94cfd4368d2b82d0970bfbb2fbce3a490600090a15050565b609a54609d54604051631c7a838360e31b815260048101919091526000916001600160a01b03169063e3d41c1890602401602060405180830381865afa158015611537573d6000803e3d6000fd5b505050506040513d601f19601f8201168201806040525081019061155b91906153a3565b905061157061156b6105f261093c565b612811565b6109bc90826154aa565b6000611584612122565b610a818383612855565b6060603780546109d0906153ea565b60006115a960016128d5565b905080156115c1576000805461ff0019166101001790555b6115ca826129f0565b8015611610576000805461ff0019169055604051600181527f7f26b83ff96e1f2b6a682f133852f6798a09c465da95921460cefb38474024989060200160405180910390a15b5050565b3360008181526034602090815260408083206001600160a01b0387168452909152812054909190838110156116995760405162461bcd60e51b815260206004820152602560248201527f45524332303a2064656372656173656420616c6c6f77616e63652062656c6f77604482015264207a65726f60d81b6064820152608401610b4a565b610ad38286868403611d60565b600033610a96818585611f54565b6000806116c060355490565b90508015610a7f57610a7a6116d361093c565b849083612bd0565b60006116e5612122565b6000806116f186611e85565b915091506116fe82611e9a565b92506117098161212a565b336001600160a01b03851614611757576001600160a01b03841660009081526034602090815260408083203384529091529020546000198114611755576117558533610b9f8785615424565b505b6117618284612133565b61176b848461214d565b60408051838152602081018590526001600160a01b03808716929088169133917ffbde797d201c681b91056529119e0b02407c7bb96a4a2c75c01fc9667232c8db910160405180910390a46065546117cd906001600160a01b03168684612bfe565b50509392505050565b60006117e0612c61565b80610a9c5750610a9c82612c8f565b60006117f9612122565b600061180485610a53565b9050600061181182611e85565b9093509050600061182184611e9a565b9050836000036118615760405162461bcd60e51b815260206004820152600b60248201526a5a45524f5f41535345545360a81b6044820152606401610b4a565b336001600160a01b038616146118af576001600160a01b038516600090815260346020908152604080832033845290915290205460001981146118ad576118ad8633610b9f8585615424565b505b6118b88261212a565b6118c28482612133565b6118cc858261214d565b60408051858152602081018390526001600160a01b03808816929089169133917ffbde797d201c681b91056529119e0b02407c7bb96a4a2c75c01fc9667232c8db910160405180910390a460655461192e906001600160a01b03168786612bfe565b5050509392505050565b6066546001600160a01b031633146119805760405162461bcd60e51b815260206004820181905260248201526000805160206159a58339815191526044820152606401610b4a565b611988612da3565b60655461010c5460405163095ea7b360e01b81526001600160a01b039182166004820152600019602482015291169063095ea7b3906044016020604051808303816000875af11580156119df573d6000803e3d6000fd5b505050506040513d601f19601f82011682018060405250810190611a03919061543b565b50609b5461010c5460405163095ea7b360e01b81526001600160a01b039182166004820152600019602482015291169063095ea7b3906044015b6020604051808303816000875af1158015611a5c573d6000803e3d6000fd5b505050506040513d601f19601f82011682018060405250810190611413919061543b565b6000610a9c61081f6000610f96565b600080611a9b60355490565b90508015610a7f57610a7a81611aaf61093c565b859190611d41565b6001600160a01b038116600090815260336020526040812054610a9c90610fad565b6000610a9c610470610413846001600160a01b031660009081526033602052604090205490565b606060208251028201602001602083015b81811015611b26578051548152602001611b11565b509192915050565b6000610a9c82611a8f565b6066546001600160a01b03163314611b815760405162461bcd60e51b815260206004820181905260248201526000805160206159a58339815191526044820152606401610b4a565b6001600160a01b038116611be65760405162461bcd60e51b815260206004820152602660248201527f4f776e61626c653a206e6577206f776e657220697320746865207a65726f206160448201526564647265737360d01b6064820152608401610b4a565b61141381612407565b6066546001600160a01b03163314611c375760405162461bcd60e51b815260206004820181905260248201526000805160206159a58339815191526044820152606401610b4a565b60a2805463ffffffff60881b1916600160881b61ffff86811691820261ffff60981b191692909217600160981b9286169283021767ffffffffffffffff60a81b1916600160a81b67ffffffffffffffff861690810291909117909355604080519182526020820192909252908101919091527f4a9bdb3bab9a7cff0ea02e1428a3901c565a962f3b99b7d8d2b02787ca4f93f990606001610e33565b61010c5460405163ce96cb7760e01b81523060048201526000916001600160a01b03169063ce96cb7790602401602060405180830381865afa158015611d1d573d6000803e3d6000fd5b505050506040513d601f19601f820116820180604052508101906109bc91906153a3565b828202811515841585830485141716611d5957600080fd5b0492915050565b6001600160a01b038316611dc25760405162461bcd60e51b8152602060048201526024808201527f45524332303a20617070726f76652066726f6d20746865207a65726f206164646044820152637265737360e01b6064820152608401610b4a565b6001600160a01b038216611e235760405162461bcd60e51b815260206004820152602260248201527f45524332303a20617070726f766520746f20746865207a65726f206164647265604482015261737360f01b6064820152608401610b4a565b6001600160a01b0383811660008181526034602090815260408083209487168084529482529182902085905590518481527f8c5be1e5ebec7d5bd14f71427d1e84f3dd0314c0f7b2291e5b200ac8c7c3b92591015b60405180910390a3505050565b600080611e9183612e5a565b91509150915091565b600080611ea660355490565b90508015610a7f57610a7a81611eba61093c565b859190612bd0565b6001600160a01b038381166000908152603460209081526040808320938616835292905220546000198114611f4e5781811015611f415760405162461bcd60e51b815260206004820152601d60248201527f45524332303a20696e73756666696369656e7420616c6c6f77616e63650000006044820152606401610b4a565b611f4e8484848403611d60565b50505050565b6001600160a01b038316611fb85760405162461bcd60e51b815260206004820152602560248201527f45524332303a207472616e736665722066726f6d20746865207a65726f206164604482015264647265737360d81b6064820152608401610b4a565b6001600160a01b03821661201a5760405162461bcd60e51b815260206004820152602360248201527f45524332303a207472616e7366657220746f20746865207a65726f206164647260448201526265737360e81b6064820152608401610b4a565b6001600160a01b038316600090815260336020526040902054818110156120925760405162461bcd60e51b815260206004820152602660248201527f45524332303a207472616e7366657220616d6f756e7420657863656564732062604482015265616c616e636560d01b6064820152608401610b4a565b6001600160a01b038085166000908152603360205260408082208585039055918516815290812080548492906120c99084906153d2565b92505081905550826001600160a01b0316846001600160a01b03167fddf252ad1be2c89b69c2b068fc378daa952ba7f163c4a11628f55a4df523b3ef8460405161211591815260200190565b60405180910390a3611f4e565b61161061253e565b61141381612ef3565b61214461213e61093c565b83612f04565b6116108261301e565b6001600160a01b0382166121ad5760405162461bcd60e51b815260206004820152602160248201527f45524332303a206275726e2066726f6d20746865207a65726f206164647265736044820152607360f81b6064820152608401610b4a565b6001600160a01b038216600090815260336020526040902054818110156122215760405162461bcd60e51b815260206004820152602260248201527f45524332303a206275726e20616d6f756e7420657863656564732062616c616e604482015261636560f01b6064820152608401610b4a565b6001600160a01b0383166000908152603360205260408120838303905560358054849290612250908490615424565b90915550506040518281526000906001600160a01b038516907fddf252ad1be2c89b69c2b068fc378daa952ba7f163c4a11628f55a4df523b3ef90602001611e78565b505050565b60008080600019858709858702925082811083820303915050806000036122d157600084116122c657600080fd5b508290049050610a81565b8084116122dd57600080fd5b6000848688096000868103871696879004966002600389028118808a02820302808a02820302808a02820302808a02820302808a02820302808a02909103029181900381900460010186841190950394909402919094039290920491909117919091029150509392505050565b600061235583611b2e565b9050806000036123955760405162461bcd60e51b815260206004820152600b60248201526a5a45524f5f53484152455360a81b6044820152606401610b4a565b6065546123ad906001600160a01b031633308661309c565b6123b782826130d4565b60408051848152602081018390526001600160a01b0384169133917fdcbc1c05240f31ff3ad067ef1ee35ce4997762752e3a095284754544f4c709d7910160405180910390a3610a9c83826131b3565b606680546001600160a01b038381166001600160a01b0319831681179093556040519116919082907f8be0079c531659141344cd1fd0a4f28419497f9722a3daafe3b4186f6b6457e090600090a35050565b60a254600160801b900460ff1661248357604051632f0c3e3160e11b815260040160405180910390fd5b600061248e826154eb565b9050600061249a61320b565b905060006124a883836132d7565b60a254909150600160a81b900467ffffffffffffffff168111156125015760006124e3848460a260119054906101000a900461ffff1661330e565b5090508084036124fb5760a2805460ff60801b191690555b5061250f565b60a2805460ff60801b191690555b6040517f9a94a63b02012d6753ed863b962aceb756429b4265fc327391dd05fb24d4502b90600090a150505050565b609854609d54609c5460405163e9b7c36760e01b81526004810192909252600160a01b900463ffffffff16602482015260009182916001600160a01b039091169063e9b7c36790604401606060405180830381865afa1580156125a5573d6000803e3d6000fd5b505050506040513d601f19601f820116820180604052508101906125c9919061547c565b50609854609d54609e54604051630ad444cb60e21b8152600481019290925263ffffffff1660248201529193506001600160a01b03169150632b51132c90604401602060405180830381865afa158015612627573d6000803e3d6000fd5b505050506040513d601f19601f8201168201806040525081019061264b91906153a3565b915060006126576114e9565b9050612663838261337c565b6065546040516370a0823160e01b81523060048201526126d1916001600160a01b0316906370a0823190602401602060405180830381865afa1580156126ad573d6000803e3d6000fd5b505050506040513d601f19601f8201168201806040525081019061141391906153a3565b509091565b6126df8161364c565b60a28054911515600160801b0260ff60801b1990921691909117905560006127068261371c565b905060005b60028160ff1610156127f557818160ff166002811061272c5761272c615507565b602002015160400151600f0b156127f557609a54609d54609c546001600160a01b039092169163c7505c159190600160a01b900463ffffffff168560ff86166002811061277b5761277b615507565b60200201516040518463ffffffff1660e01b815260040161279e93929190615555565b60408051808303816000875af11580156127bc573d6000803e3d6000fd5b505050506040513d601f19601f820116820180604052508101906127e091906155ef565b505080806127ed90615613565b91505061270b565b5060a254600160801b900460ff16156122935761229383612459565b6000600160ff1b82106128515760405162461bcd60e51b81526020600482015260086024820152674f766572666c6f7760c01b6044820152606401610b4a565b5090565b6000612860836116b4565b60655490915061287b906001600160a01b031633308461309c565b61288582846130d4565b60408051828152602081018590526001600160a01b0384169133917fdcbc1c05240f31ff3ad067ef1ee35ce4997762752e3a095284754544f4c709d7910160405180910390a3610a9c81846131b3565b60008054610100900460ff1615612963578160ff1660011480156128f85750303b155b61295b5760405162461bcd60e51b815260206004820152602e60248201527f496e697469616c697a61626c653a20636f6e747261637420697320616c72656160448201526d191e481a5b9a5d1a585b1a5e995960921b6064820152608401610b4a565b506000919050565b60005460ff8084169116106129d15760405162461bcd60e51b815260206004820152602e60248201527f496e697469616c697a61626c653a20636f6e747261637420697320616c72656160448201526d191e481a5b9a5d1a585b1a5e995960921b6064820152608401610b4a565b506000805460ff191660ff92909216919091179055600190565b919050565b600054610100900460ff16612a175760405162461bcd60e51b8152600401610b4a90615632565b8051612a229061392a565b60208181015161010b80546001600160a01b0319166001600160a01b0392831617905560655460408051633c5103f760e11b8152905191909216926378a207ee92600480820193918290030181865afa158015612a83573d6000803e3d6000fd5b505050506040513d601f19601f82011682018060405250810190612aa7919061567d565b61010880546001600160a01b0319166001600160a01b039283161790556065546040805162af394d60e81b81529051919092169163af394d009160048083019260209291908290030181865afa158015612b05573d6000803e3d6000fd5b505050506040513d601f19601f82011682018060405250810190612b29919061567d565b61010980546001600160a01b0319166001600160a01b0392831617905560655460408051633e9b6c6f60e21b81529051919092169163fa6db1bc9160048083019260209291908290030181865afa158015612b88573d6000803e3d6000fd5b505050506040513d601f19601f82011682018060405250810190612bac919061567d565b61010a80546001600160a01b0319166001600160a01b039290921691909117905550565b828202811515841585830485141716612be857600080fd5b6001826001830304018115150290509392505050565b6040516001600160a01b03831660248201526044810182905261229390849063a9059cbb60e01b906064015b60408051601f198184030181529190526020810180516001600160e01b03166001600160e01b031990931692909217909152613a0f565b60a05460009063ffffffff600160501b82041690612c899067ffffffffffffffff1642615424565b11905090565b609e54609c54609a5460009273__$9842325bb1826b70c2ef476a1c714a02a7$__9263757d5fd6926001600160a01b03640100000000909304831692612ce89291169063ffffffff600160a01b909104811690613ae116565b60a05460a15460405160e086901b6001600160e01b03191681526001600160a01b03909416600485015263ffffffff9092166024840152600160401b900461ffff166044830152600160a01b8104600290810b6064840152600160b81b909104900b608482015260a401602060405180830381865af4158015612d6f573d6000803e3d6000fd5b505050506040513d601f19601f82011682018060405250810190612d93919061543b565b9050806129eb57610a9c8261364c565b609c54609a5460405163095ea7b360e01b81526001600160a01b039182166004820152600019602482015291169063095ea7b3906044016020604051808303816000875af1158015612df9573d6000803e3d6000fd5b505050506040513d601f19601f82011682018060405250810190612e1d919061543b565b50609b54609a5460405163095ea7b360e01b81526001600160a01b039182166004820152600019602482015291169063095ea7b390604401611a3d565b60008073__$9842325bb1826b70c2ef476a1c714a02a7$__632780ee3130612e8061093c565b6040516001600160e01b031960e085901b1681526001600160a01b0390921660048301526024820152604481018690526064016040805180830381865af4158015612ecf573d6000803e3d6000fd5b505050506040513d601f19601f82011682018060405250810190611e9191906155ef565b801561141357612293816000613b81565b6000612f1283836001613c71565b90508060400151612f229061569a565b60a28054600090612f3d9084906001600160801b03166156c9565b82546101009290920a6001600160801b0381810219909316918316021790915560a254166000039050612f7257600160a08201525b609a54609d54609c5460405163c7505c1560e01b81526001600160a01b039093169263c7505c1592612fb9929091600160a01b90910463ffffffff16908690600401615555565b60408051808303816000875af1158015612fd7573d6000803e3d6000fd5b505050506040513d601f19601f82011682018060405250810190612ffb91906155ef565b5050600061300b61156b84610fcf565b9050611f4e613019826154eb565b613ce2565b61010c54604051632d182be560e21b815260048101839052306024820181905260448201526001600160a01b039091169063b460af94906064015b6020604051808303816000875af1158015613078573d6000803e3d6000fd5b505050506040513d601f19601f8201168201806040525081019061161091906153a3565b6040516001600160a01b0380851660248301528316604482015260648101829052611f4e9085906323b872dd60e01b90608401612c2a565b6001600160a01b03821661312a5760405162461bcd60e51b815260206004820152601f60248201527f45524332303a206d696e7420746f20746865207a65726f2061646472657373006044820152606401610b4a565b806035600082825461313c91906153d2565b90915550506001600160a01b038216600090815260336020526040812080548392906131699084906153d2565b90915550506040518181526001600160a01b038316906000907fddf252ad1be2c89b69c2b068fc378daa952ba7f163c4a11628f55a4df523b3ef9060200160405180910390a35050565b6131bc82613fb5565b6131cd6131c761093c565b83613fed565b609f546131d861093c565b111561161057609f546131e961093c565b6040516301b25d0360e41b815260048101929092526024820152604401610b4a565b609e54609c54609a5460009273__$9842325bb1826b70c2ef476a1c714a02a7$__9263e54c8fd8926001600160a01b036401000000009093048316926132649291169063ffffffff600160a01b909104811690613ae116565b6040516001600160e01b031960e085901b1681526001600160a01b03909216600483015263ffffffff166024820152604401602060405180830381865af41580156132b3573d6000803e3d6000fd5b505050506040513d601f19601f820116820180604052508101906109bc919061567d565b6000610a816133096001600160a01b0384166c0100000000000000000000000061330287838361423d565b919061423d565b61427f565b6000806000808613156133505761334961334461332d866127106156f1565b6001600160a01b0388169061ffff16612710612298565b61428a565b9050613365565b61336261334461332d86612710615717565b90505b61336f8682613b81565b9097909650945050505050565b609a54609d54604051631c7a838360e31b815260048101919091526000916001600160a01b03169063e3d41c1890602401602060405180830381865afa1580156133ca573d6000803e3d6000fd5b505050506040513d601f19601f820116820180604052508101906133ee91906153a3565b9050600081131561348157609a54609d546001600160a01b0390911690639cd1be589061341d84600019615732565b6040516001600160e01b031960e085901b16815260048101929092526024820152604401600060405180830381600087803b15801561345b57600080fd5b505af115801561346f573d6000803e3d6000fd5b5050505061347c816142ce565b613522565b60008112156135225760006134a061349b83600019615732565b61430a565b9050801561352057609a54609d546001600160a01b0390911690639cd1be58906134c984612811565b6040516001600160e01b031960e085901b16815260048101929092526024820152604401600060405180830381600087803b15801561350757600080fd5b505af115801561351b573d6000803e3d6000fd5b505050505b505b6000831561364057609b546040805163313ce56760e01b8152905161362f926001600160a01b03169163313ce5679160048083019260209291908290030181865afa158015613575573d6000803e3d6000fd5b505050506040513d601f19601f8201168201806040525081019061359991906157b7565b6135a490600a6158be565b609c60009054906101000a90046001600160a01b03166001600160a01b031663313ce5676040518163ffffffff1660e01b8152600401602060405180830381865afa1580156135f7573d6000803e3d6000fd5b505050506040513d601f19601f8201168201806040525081019061361b91906157b7565b61362690600a6158be565b61330287612811565b61363990846158cd565b9050613643565b50815b611f4e81613ce2565b609a54609d54609c54604051633524324160e11b81526004810192909252600160a01b900463ffffffff16602482015260009182916001600160a01b0390911690636a48648290604401602060405180830381865afa1580156136b3573d6000803e3d6000fd5b505050506040513d601f19601f820116820180604052508101906136d791906153a3565b905060006136ec826136e761320b565b6132d7565b60a25490915061371490600160981b900461ffff1661271061370d8761427f565b9190612298565b109392505050565b613724614b49565b60a2546000906001600160801b0316156137a25760a15460a25461377a91600160a01b8104600290810b92600160b81b909204900b9061376c906001600160801b03166144f5565b6137759061569a565b61453e565b828260ff166002811061378f5761378f615507565b60200201528061379e81615613565b9150505b60006137ac61320b565b604051630ad6ed5b60e41b81526001600160a01b038216600482015260248101869052620c3500604482015290915060009073__$9842325bb1826b70c2ef476a1c714a02a7$__9063ad6ed5b090606401606060405180830381865af415801561381a573d6000803e3d6000fd5b505050506040513d601f19601f8201168201806040525081019061383e919061591e565b60a1805465ffffffffffff60a01b1916600160b81b62ffffff9485160262ffffff60a01b191617600160a01b94909316939093029190911790915560a2549091506001600160801b0316158061389d575060a254600160801b900460ff165b156138c75760a280546fffffffffffffffffffffffffffffffff19166001600160801b0383161790555b60a15460a2546138fb91600160a01b8104600290810b92600160b81b909204900b90613775906001600160801b03166144f5565b848460ff166002811061391057613910615507565b60200201528261391f81615613565b935050505050919050565b600054610100900460ff166139515760405162461bcd60e51b8152600401610b4a90615632565b805161395c906145b6565b60208181015160a2805460408086015160608088015163ffffffff60881b19909416600160881b61ffff97881690810261ffff60981b191691909117600160981b979093169687029290921767ffffffffffffffff60a81b1916600160a81b67ffffffffffffffff90951694850217909455815190815294850193909352918301919091527f4a9bdb3bab9a7cff0ea02e1428a3901c565a962f3b99b7d8d2b02787ca4f93f9910160405180910390a150565b6000613a64826040518060400160405280602081526020017f5361666545524332303a206c6f772d6c6576656c2063616c6c206661696c6564815250856001600160a01b03166147a99092919063ffffffff16565b8051909150156122935780806020019051810190613a82919061543b565b6122935760405162461bcd60e51b815260206004820152602a60248201527f5361666545524332303a204552433230206f7065726174696f6e20646964206e6044820152691bdd081cdd58d8d9595960b21b6064820152608401610b4a565b600080836001600160a01b0316631e2eaeaf613b056003613b01876147b8565b0190565b6040518263ffffffff1660e01b8152600401613b2391815260200190565b602060405180830381865afa158015613b40573d6000803e3d6000fd5b505050506040513d601f19601f82011682018060405250810190613b6491906153a3565b9050613b7963ffffffff60b083901c166147d2565b949350505050565b6040805160a0810182528381526001600160a01b0383811660208301908152600083850181815260016060860190815260808601838152609a54609d54609c5499516383d778eb60e01b81526004810191909152600160a01b90990463ffffffff1660248a0152875160448a015294518616606489015291511515608488015251151560a487015251151560c48601529384939291909116906383d778eb9060e40160408051808303816000875af1158015613c41573d6000803e3d6000fd5b505050506040513d601f19601f82011682018060405250810190613c6591906155ef565b90969095509350505050565b613c79614b76565b60a254600090613ca290613c9d9086908890613302906001600160801b0316612811565b6147da565b90508215613cb657613cb38161569a565b90505b60a154613cd990600160a01b8104600290810b91600160b81b9004900b8361453e565b95945050505050565b6000613df3609c60009054906101000a90046001600160a01b03166001600160a01b031663313ce5676040518163ffffffff1660e01b8152600401602060405180830381865afa158015613d3a573d6000803e3d6000fd5b505050506040513d601f19601f82011682018060405250810190613d5e91906157b7565b613d6990600a6158be565b609b60009054906101000a90046001600160a01b03166001600160a01b031663313ce5676040518163ffffffff1660e01b8152600401602060405180830381865afa158015613dbc573d6000803e3d6000fd5b505050506040513d601f19601f82011682018060405250810190613de091906157b7565b613deb90600a6158be565b84919061423d565b90506000613e008261427f565b90506000821315613eec57609c546040516340c10f1960e01b8152306004820152602481018390526001600160a01b03909116906340c10f1990604401600060405180830381600087803b158015613e5757600080fd5b505af1158015613e6b573d6000803e3d6000fd5b5050609a54609d54609e54604051637d2efe0760e01b8152600481019290925263ffffffff166024820152604481018590526001600160a01b039091169250637d2efe0791506064015b600060405180830381600087803b158015613ecf57600080fd5b505af1158015613ee3573d6000803e3d6000fd5b50505050505050565b600082121561229357609a54609d54609e546001600160a01b0390921691637d2efe07919063ffffffff16613f20856154eb565b6040516001600160e01b031960e086901b168152600481019390935263ffffffff9190911660248301526044820152606401600060405180830381600087803b158015613f6c57600080fd5b505af1158015613f80573d6000803e3d6000fd5b5050609c54604051630852cd8d60e31b8152600481018590526001600160a01b0390911692506342966c689150602401613eb5565b61010c54604051636e553f6560e01b8152600481018390523060248201526001600160a01b0390911690636e553f6590604401613059565b6000613ffb61156b83610fcf565b905061400681613ce2565b61400e614b76565b60a2546001600160801b031615801561402657508284145b1561414d57600061403561320b565b604051630ad6ed5b60e41b81526001600160a01b038216600482015260248101859052620c3500604482015290915073__$9842325bb1826b70c2ef476a1c714a02a7$__9063ad6ed5b090606401606060405180830381865af41580156140a0573d6000803e3d6000fd5b505050506040513d601f19601f820116820180604052508101906140c4919061591e565b60a280546fffffffffffffffffffffffffffffffff19166001600160801b0392909216918217905560a1805465ffffffffffff60a01b1916600160b81b62ffffff948516810262ffffff60a01b191691909117600160a01b9590941685029390931790819055614145938104600290810b93909104900b90613775906144f5565b9150506141ac565b61416261415a8486615424565b846000613c71565b604081015160a2805492935090916000906141879084906001600160801b0316615966565b92506101000a8154816001600160801b0302191690836001600160801b031602179055505b609a54609d54609c5460405163c7505c1560e01b81526001600160a01b039093169263c7505c15926141f3929091600160a01b90910463ffffffff16908690600401615555565b60408051808303816000875af1158015614211573d6000803e3d6000fd5b505050506040513d601f19601f8201168201806040525081019061423591906155ef565b505050505050565b600061426b61426660008612614253578561425f565b61425f86600019615732565b8585612298565b614819565b90506000841215610a8157613b79816154eb565b6000610a9c8261482b565b806001600160a01b03811681146129eb5760405162461bcd60e51b81526020600482015260086024820152674f766572666c6f7760c01b6044820152606401610b4a565b61010c54609b546040516319c5aef560e11b81526001600160a01b0391821660048201526024810184905291169063338b5dea90604401613059565b610107546000906201000090046001600160f01b031682101561432f57506000919050565b6000614349600160801b614341610e7a565b859190612298565b61010c54604051632d182be560e21b815260048101839052306024820181905260448201529192506001600160a01b03169063b460af94906064016020604051808303816000875af11580156143a3573d6000803e3d6000fd5b505050506040513d601f19601f820116820180604052508101906143c791906153a3565b5061010b54609b54610107546001600160a01b0392831692630f3aa554921690849061440b906143fd9061ffff16612710615717565b889061ffff16612710612298565b6040516001600160e01b031960e086901b1681526001600160a01b039093166004840152602483019190915260448201523060648201526084016020604051808303816000875af1158015614464573d6000803e3d6000fd5b505050506040513d601f19601f8201168201806040525081019061448891906153a3565b50609b546040516370a0823160e01b81523060048201526001600160a01b03909116906370a0823190602401602060405180830381865afa1580156144d1573d6000803e3d6000fd5b505050506040513d601f19601f82011682018060405250810190610a8191906153a3565b60006001607f1b826001600160801b0316106128515760405162461bcd60e51b81526020600482015260086024820152674f766572666c6f7760c01b6044820152606401610b4a565b614546614b76565b6040518061010001604052808560020b81526020018460020b815260200183600f0b815260200160006001600160a01b03168152602001600061ffff168152602001600015158152602001600060028111156145a4576145a461551d565b81526000602090910152949350505050565b600054610100900460ff166145dd5760405162461bcd60e51b8152600401610b4a90615632565b6145e5614842565b80516145f090614871565b602081810151609c805463ffffffff60a01b1916600160a01b63ffffffff909316929092029190911790556080820151609880546001600160a01b03199081166001600160a01b03938416179091556040808501516099805484169185169190911790556060850151609a805490931693169283179091558051639dca362f60e01b815290519192639dca362f9260048381019382900301816000875af115801561469f573d6000803e3d6000fd5b505050506040513d601f19601f820116820180604052508101906146c391906153a3565b609d5560c0810151609b80546001600160a01b03199081166001600160a01b039384161790915560a0830151609c80549092169083161790819055609a5461471d921690600160a01b900463ffffffff9081169061488816565b609e80546001600160a01b039283166401000000000277ffffffffffffffffffffffffffffffffffffffff000000001990911617905560a0820151614766911663ffffffff1690565b609e805463ffffffff191663ffffffff929092169190911790555060a080546dffffffffffff000000000000000019166c01518001f40000000000000000179055565b6060613b798484600085614907565b63ffffffff81166000908152606460205260408120610a9c565b600081610a9c565b80600f81900b81146129eb5760405162461bcd60e51b81526020600482015260086024820152674f766572666c6f7760c01b6044820152606401610b4a565b6000600160ff1b821061285157600080fd5b60008082136128515761483d826154eb565b610a9c565b600054610100900460ff166148695760405162461bcd60e51b8152600401610b4a90615632565b61133d614a38565b611413816000015182602001518360400151614a68565b600080836001600160a01b0316631e2eaeaf6148a86001613b01876147b8565b6040518263ffffffff1660e01b81526004016148c691815260200190565b602060405180830381865afa1580156148e3573d6000803e3d6000fd5b505050506040513d601f19601f82011682018060405250810190613b7991906153a3565b6060824710156149685760405162461bcd60e51b815260206004820152602660248201527f416464726573733a20696e73756666696369656e742062616c616e636520666f6044820152651c8818d85b1b60d21b6064820152608401610b4a565b6001600160a01b0385163b6149bf5760405162461bcd60e51b815260206004820152601d60248201527f416464726573733a2063616c6c20746f206e6f6e2d636f6e74726163740000006044820152606401610b4a565b600080866001600160a01b031685876040516149db9190615988565b60006040518083038185875af1925050503d8060008114614a18576040519150601f19603f3d011682016040523d82523d6000602084013e614a1d565b606091505b5091509150614a2d828286614a96565b979650505050505050565b600054610100900460ff16614a5f5760405162461bcd60e51b8152600401610b4a90615632565b61133d33612407565b614a728282614acf565b5050606580546001600160a01b0319166001600160a01b0392909216919091179055565b60608315614aa5575081610a81565b825115614ab55782518084602001fd5b8160405162461bcd60e51b8152600401610b4a9190614c77565b600054610100900460ff16614af65760405162461bcd60e51b8152600401610b4a90615632565b6116108282600054610100900460ff16614b225760405162461bcd60e51b8152600401610b4a90615632565b8151614b35906036906020850190614bbb565b508051612293906037906020840190614bbb565b60405180604001604052806002905b614b60614b76565b815260200190600190039081614b585790505090565b6040805161010081018252600080825260208201819052918101829052606081018290526080810182905260a081018290529060c08201908152600060209091015290565b828054614bc7906153ea565b90600052602060002090601f016020900481019282614be95760008555614c2f565b82601f10614c0257805160ff1916838001178555614c2f565b82800160010185558215614c2f579182015b82811115614c2f578251825591602001919060010190614c14565b506128519291505b808211156128515760008155600101614c37565b60005b83811015614c66578181015183820152602001614c4e565b83811115611f4e5750506000910152565b6020815260008251806020840152614c96816040850160208701614c4b565b601f01601f19169190910160400192915050565b600060208284031215614cbc57600080fd5b5035919050565b6001600160a01b038116811461141357600080fd5b80356129eb81614cc3565b60008060408385031215614cf657600080fd5b8235614d0181614cc3565b946020939093013593505050565b600080600060608486031215614d2457600080fd5b8335614d2f81614cc3565b92506020840135614d3f81614cc3565b929592945050506040919091013590565b600080600080600060a08688031215614d6857600080fd5b8535614d7381614cc3565b945060208601359350604086013592506060860135614d9181614cc3565b91506080860135614da181614cc3565b809150509295509295909350565b803561ffff811681146129eb57600080fd5b600080600060608486031215614dd657600080fd5b8335614de181614cc3565b9250614def60208501614daf565b915060408401356001600160f01b0381168114614e0b57600080fd5b809150509250925092565b600060208284031215614e2857600080fd5b8135610a8181614cc3565b803563ffffffff811681146129eb57600080fd5b60008060008060808587031215614e5d57600080fd5b843593506020850135614e6f81614cc3565b9250614e7d60408601614e33565b9150614e8b60608601614daf565b905092959194509250565b60008060408385031215614ea957600080fd5b823591506020830135614ebb81614cc3565b809150509250929050565b634e487b7160e01b600052604160045260246000fd5b6040805190810167ffffffffffffffff81118282101715614eff57614eff614ec6565b60405290565b6040516080810167ffffffffffffffff81118282101715614eff57614eff614ec6565b60405160e0810167ffffffffffffffff81118282101715614eff57614eff614ec6565b604051601f8201601f1916810167ffffffffffffffff81118282101715614f7457614f74614ec6565b604052919050565b600082601f830112614f8d57600080fd5b813567ffffffffffffffff811115614fa757614fa7614ec6565b614fba601f8201601f1916602001614f4b565b818152846020838601011115614fcf57600080fd5b816020850160208301376000918101602001919091529392505050565b600060608284031215614ffe57600080fd5b6040516060810167ffffffffffffffff828210818311171561502257615022614ec6565b816040528293508435915061503682614cc3565b9082526020840135908082111561504c57600080fd5b61505886838701614f7c565b6020840152604085013591508082111561507157600080fd5b5061507e85828601614f7c565b6040830152505092915050565b803567ffffffffffffffff811681146129eb57600080fd5b600060208083850312156150b657600080fd5b823567ffffffffffffffff808211156150ce57600080fd5b90840190604082870312156150e257600080fd5b6150ea614edc565b8235828111156150f957600080fd5b83016080818903121561510b57600080fd5b615113614f05565b81358481111561512257600080fd5b820160e0818b03121561513457600080fd5b61513c614f28565b81358681111561514b57600080fd5b6151578c828501614fec565b825250615165888301614e33565b8882015261517560408301614cd8565b604082015261518660608301614cd8565b606082015261519760808301614cd8565b60808201526151a860a08301614cd8565b60a08201526151b960c08301614cd8565b60c08201528252506151cc828701614daf565b868201526151dc60408301614daf565b60408201526151ed6060830161508b565b6060820152825250615200838501614cd8565b848201528094505050505092915050565b60008060006060848603121561522657600080fd5b83359250602084013561523881614cc3565b91506040840135614e0b81614cc3565b6000602080838503121561525b57600080fd5b823567ffffffffffffffff8082111561527357600080fd5b818501915085601f83011261528757600080fd5b81358181111561529957615299614ec6565b8060051b91506152aa848301614f4b565b81815291830184019184810190888411156152c457600080fd5b938501935b838510156152e2578435825293850193908501906152c9565b98975050505050505050565b6020808252825182820181905260009190848201906040850190845b818110156153265783518352928401929184019160010161530a565b50909695505050505050565b6000806040838503121561534557600080fd5b823561535081614cc3565b91506020830135614ebb81614cc3565b60008060006060848603121561537557600080fd5b61537e84614daf565b925061538c60208501614daf565b915061539a6040850161508b565b90509250925092565b6000602082840312156153b557600080fd5b5051919050565b634e487b7160e01b600052601160045260246000fd5b600082198211156153e5576153e56153bc565b500190565b600181811c908216806153fe57607f821691505b60208210810361541e57634e487b7160e01b600052602260045260246000fd5b50919050565b600082821015615436576154366153bc565b500390565b60006020828403121561544d57600080fd5b81518015158114610a8157600080fd5b6000816000190483118215151615615477576154776153bc565b500290565b60008060006060848603121561549157600080fd5b8351925060208401519150604084015190509250925092565b600080821280156001600160ff1b03849003851316156154cc576154cc6153bc565b600160ff1b83900384128116156154e5576154e56153bc565b50500190565b6000600160ff1b8201615500576155006153bc565b5060000390565b634e487b7160e01b600052603260045260246000fd5b634e487b7160e01b600052602160045260246000fd5b6003811061555157634e487b7160e01b600052602160045260246000fd5b9052565b60006101408201905084825263ffffffff84166020830152825160020b6040830152602083015160020b60608301526040830151600f0b608083015260608301516155ab60a08401826001600160a01b03169052565b50608083015161ffff1660c08381019190915260a0840151151560e08401528301516155db610100840182615533565b5060e0830151801515610120840152610fc6565b6000806040838503121561560257600080fd5b505080516020909101519092909150565b600060ff821660ff8103615629576156296153bc565b60010192915050565b6020808252602b908201527f496e697469616c697a61626c653a20636f6e7472616374206973206e6f74206960408201526a6e697469616c697a696e6760a81b606082015260800190565b60006020828403121561568f57600080fd5b8151610a8181614cc3565b600081600f0b6f7fffffffffffffffffffffffffffffff1981036156c0576156c06153bc565b60000392915050565b60006001600160801b03838116908316818110156156e9576156e96153bc565b039392505050565b600061ffff80831681851680830382111561570e5761570e6153bc565b01949350505050565b600061ffff838116908316818110156156e9576156e96153bc565b60006001600160ff1b0381841382841380821686840486111615615758576157586153bc565b600160ff1b6000871282811687830589121615615777576157776153bc565b60008712925087820587128484161615615793576157936153bc565b878505871281841616156157a9576157a96153bc565b505050929093029392505050565b6000602082840312156157c957600080fd5b815160ff81168114610a8157600080fd5b600181815b808511156158155781600019048211156157fb576157fb6153bc565b8085161561580857918102915b93841c93908002906157df565b509250929050565b60008261582c57506001610a9c565b8161583957506000610a9c565b816001811461584f576002811461585957615875565b6001915050610a9c565b60ff84111561586a5761586a6153bc565b50506001821b610a9c565b5060208310610133831016604e8410600b8410161715615898575081810a610a9c565b6158a283836157da565b80600019048211156158b6576158b66153bc565b029392505050565b6000610a8160ff84168361581d565b60008083128015600160ff1b8501841216156158eb576158eb6153bc565b6001600160ff1b0384018313811615615906576159066153bc565b50500390565b8051600281900b81146129eb57600080fd5b60008060006060848603121561593357600080fd5b61593c8461590c565b925061594a6020850161590c565b915060408401516001600160801b0381168114614e0b57600080fd5b60006001600160801b0380831681851680830382111561570e5761570e6153bc565b6000825161599a818460208701614c4b565b919091019291505056fe4f776e61626c653a2063616c6c6572206973206e6f7420746865206f776e6572a164736f6c634300080e000a",
  "libraries": {
    "Logic": "0x253E6cE50085F75FB04ced3b0FF35fe04C449033"
  },
  "devdoc": {
    "kind": "dev",
    "methods": {
      "allowance(address,address)": {
        "details": "See {IERC20-allowance}."
      },
      "approve(address,uint256)": {
        "details": "See {IERC20-approve}. NOTE: If `amount` is the maximum `uint256`, the allowance is not updated on `transferFrom`. This is semantically equivalent to an infinite approval. Requirements: - `spender` cannot be the zero address."
      },
      "balanceOf(address)": {
        "details": "See {IERC20-balanceOf}."
      },
      "decimals()": {
        "details": "Returns the number of decimals used to get its user representation. For example, if `decimals` equals `2`, a balance of `505` tokens should be displayed to a user as `5.05` (`505 / 10 ** 2`). Tokens usually opt for a value of 18, imitating the relationship between Ether and Wei. This is the value {ERC20} uses, unless this function is overridden; NOTE: This information is only used for _display_ purposes: it in no way affects any of the arithmetic of the contract, including {IERC20-balanceOf} and {IERC20-transfer}."
      },
      "decreaseAllowance(address,uint256)": {
        "details": "Atomically decreases the allowance granted to `spender` by the caller. This is an alternative to {approve} that can be used as a mitigation for problems described in {IERC20-approve}. Emits an {Approval} event indicating the updated allowance. Requirements: - `spender` cannot be the zero address. - `spender` must have allowance for the caller of at least `subtractedValue`."
      },
      "extsload(bytes32)": {
        "params": {
          "slot": "to read from."
        },
        "returns": {
          "val": "stored at the slot."
        }
      },
      "extsload(bytes32[])": {
        "params": {
          "slots": "to read from."
        },
        "returns": {
          "_0": "values stored at the slots."
        }
      },
      "getMarketValue(uint256)": {
        "params": {
          "assetAmount": "amount of asset tokens"
        }
      },
      "increaseAllowance(address,uint256)": {
        "details": "Atomically increases the allowance granted to `spender` by the caller. This is an alternative to {approve} that can be used as a mitigation for problems described in {IERC20-approve}. Emits an {Approval} event indicating the updated allowance. Requirements: - `spender` cannot be the zero address."
      },
      "name()": {
        "details": "Returns the name of the token."
      },
      "owner()": {
        "details": "Returns the address of the current owner."
      },
      "redeemToken(address,uint256,uint256,address,address)": {
        "params": {
          "minTokenOut": "minimum amount of token required",
          "receiver": "address of the receiver",
          "shares": "amount of shares to redeem",
          "token": "address of required output token"
        }
      },
      "renounceOwnership()": {
        "details": "Leaves the contract without owner. It will not be possible to call `onlyOwner` functions anymore. Can only be called by the current owner. NOTE: Renouncing ownership will leave the contract without an owner, thereby removing any functionality that is only available to the owner."
      },
      "symbol()": {
        "details": "Returns the symbol of the token, usually a shorter version of the name."
      },
      "totalSupply()": {
        "details": "See {IERC20-totalSupply}."
      },
      "transfer(address,uint256)": {
        "details": "See {IERC20-transfer}. Requirements: - `to` cannot be the zero address. - the caller must have a balance of at least `amount`."
      },
      "transferFrom(address,address,uint256)": {
        "details": "See {IERC20-transferFrom}. Emits an {Approval} event indicating the updated allowance. This is not required by the EIP. See the note at the beginning of {ERC20}. NOTE: Does not update the allowance if the current allowance is the maximum `uint256`. Requirements: - `from` and `to` cannot be the zero address. - `from` must have a balance of at least `amount`. - the caller must have allowance for ``from``'s tokens of at least `amount`."
      },
      "transferOwnership(address)": {
        "details": "Transfers ownership of the contract to a new account (`newOwner`). Can only be called by the current owner."
      },
      "updateGMXParams(address,uint16,uint240)": {
        "params": {
          "_stakingManager": "address of staking manager (which compounds rewards)",
          "_usdcConversionThreshold": "threshold value for swapping asset to settlementToken",
          "_usdcReedemSlippage": "max slippage for _convertAssetToSettlementToken"
        }
      },
      "withdrawToken(address,uint256,uint256,address,address)": {
        "params": {
          "_sGLP": "amount of sGLP(asset) to withdraw",
          "minTokenOut": "minimum amount of token required",
          "receiver": "address of the receiver",
          "token": "address of required output token"
        }
      }
    },
    "version": 1
  },
  "userdoc": {
    "kind": "user",
    "methods": {
      "closeTokenPosition()": {
        "notice": "closes remaining token position (To be used when reset condition is hit)"
      },
      "extsload(bytes32)": {
        "notice": "Returns a value from the storage."
      },
      "extsload(bytes32[])": {
        "notice": "Returns multiple values from storage."
      },
      "getMarketValue(uint256)": {
        "notice": "compute notional value for given amount of LP tokens"
      },
      "getPriceX128()": {
        "notice": "gives x128 price of 1 ASSET token in USDC unit (10**6)"
      },
      "getVaultMarketValue()": {
        "notice": "Returns account market value of vault in USDC (settlement token)"
      },
      "grantAllowances()": {
        "notice": "grants one time max allowance to various third parties"
      },
      "rebalance()": {
        "notice": "Rebalance the vault assets"
      },
      "redeemToken(address,uint256,uint256,address,address)": {
        "notice": "allows to redeem shares for tokens available on gmx"
      },
      "totalAssets()": {
        "notice": "returns the total vault asset balance + staked balance"
      },
      "updateGMXParams(address,uint16,uint240)": {
        "notice": "updates several state variables related to external addresses, slippage, fee, threshold, etc."
      },
      "withdrawToken(address,uint256,uint256,address,address)": {
        "notice": "allows to withdraw amount for tokens available on gmx"
      }
    },
    "version": 1
  },
  "storageLayout": {
    "storage": [
      {
        "astId": 217,
        "contract": "contracts/yieldStrategy/gmx/GMXYieldStrategy.sol:GMXYieldStrategy",
        "label": "_initialized",
        "offset": 0,
        "slot": "0",
        "type": "t_uint8"
      },
      {
        "astId": 220,
        "contract": "contracts/yieldStrategy/gmx/GMXYieldStrategy.sol:GMXYieldStrategy",
        "label": "_initializing",
        "offset": 1,
        "slot": "0",
        "type": "t_bool"
      },
      {
        "astId": 1461,
        "contract": "contracts/yieldStrategy/gmx/GMXYieldStrategy.sol:GMXYieldStrategy",
        "label": "__gap",
        "offset": 0,
        "slot": "1",
        "type": "t_array(t_uint256)50_storage"
      },
      {
        "astId": 482,
        "contract": "contracts/yieldStrategy/gmx/GMXYieldStrategy.sol:GMXYieldStrategy",
        "label": "_balances",
        "offset": 0,
        "slot": "51",
        "type": "t_mapping(t_address,t_uint256)"
      },
      {
        "astId": 488,
        "contract": "contracts/yieldStrategy/gmx/GMXYieldStrategy.sol:GMXYieldStrategy",
        "label": "_allowances",
        "offset": 0,
        "slot": "52",
        "type": "t_mapping(t_address,t_mapping(t_address,t_uint256))"
      },
      {
        "astId": 490,
        "contract": "contracts/yieldStrategy/gmx/GMXYieldStrategy.sol:GMXYieldStrategy",
        "label": "_totalSupply",
        "offset": 0,
        "slot": "53",
        "type": "t_uint256"
      },
      {
        "astId": 492,
        "contract": "contracts/yieldStrategy/gmx/GMXYieldStrategy.sol:GMXYieldStrategy",
        "label": "_name",
        "offset": 0,
        "slot": "54",
        "type": "t_string_storage"
      },
      {
        "astId": 494,
        "contract": "contracts/yieldStrategy/gmx/GMXYieldStrategy.sol:GMXYieldStrategy",
        "label": "_symbol",
        "offset": 0,
        "slot": "55",
        "type": "t_string_storage"
      },
      {
        "astId": 1073,
        "contract": "contracts/yieldStrategy/gmx/GMXYieldStrategy.sol:GMXYieldStrategy",
        "label": "__gap",
        "offset": 0,
        "slot": "56",
        "type": "t_array(t_uint256)45_storage"
      },
      {
        "astId": 36082,
        "contract": "contracts/yieldStrategy/gmx/GMXYieldStrategy.sol:GMXYieldStrategy",
        "label": "asset",
        "offset": 0,
        "slot": "101",
        "type": "t_contract(IERC20Metadata)3718"
      },
      {
        "astId": 97,
        "contract": "contracts/yieldStrategy/gmx/GMXYieldStrategy.sol:GMXYieldStrategy",
        "label": "_owner",
        "offset": 0,
        "slot": "102",
        "type": "t_address"
      },
      {
        "astId": 209,
        "contract": "contracts/yieldStrategy/gmx/GMXYieldStrategy.sol:GMXYieldStrategy",
        "label": "__gap",
        "offset": 0,
        "slot": "103",
        "type": "t_array(t_uint256)49_storage"
      },
      {
        "astId": 29283,
        "contract": "contracts/yieldStrategy/gmx/GMXYieldStrategy.sol:GMXYieldStrategy",
        "label": "lens",
        "offset": 0,
        "slot": "152",
        "type": "t_contract(ClearingHouseLens)8546"
      },
      {
        "astId": 29286,
        "contract": "contracts/yieldStrategy/gmx/GMXYieldStrategy.sol:GMXYieldStrategy",
        "label": "swapSimulator",
        "offset": 0,
        "slot": "153",
        "type": "t_contract(ISwapSimulator)30850"
      },
      {
        "astId": 29289,
        "contract": "contracts/yieldStrategy/gmx/GMXYieldStrategy.sol:GMXYieldStrategy",
        "label": "rageClearingHouse",
        "offset": 0,
        "slot": "154",
        "type": "t_contract(IClearingHouse)7317"
      },
      {
        "astId": 29292,
        "contract": "contracts/yieldStrategy/gmx/GMXYieldStrategy.sol:GMXYieldStrategy",
        "label": "rageSettlementToken",
        "offset": 0,
        "slot": "155",
        "type": "t_contract(IERC20Metadata)3718"
      },
      {
        "astId": 29295,
        "contract": "contracts/yieldStrategy/gmx/GMXYieldStrategy.sol:GMXYieldStrategy",
        "label": "rageCollateralToken",
        "offset": 0,
        "slot": "156",
        "type": "t_contract(ERC20PresetMinterPauser)3854"
      },
      {
        "astId": 29297,
        "contract": "contracts/yieldStrategy/gmx/GMXYieldStrategy.sol:GMXYieldStrategy",
        "label": "ethPoolId",
        "offset": 20,
        "slot": "156",
        "type": "t_uint32"
      },
      {
        "astId": 29299,
        "contract": "contracts/yieldStrategy/gmx/GMXYieldStrategy.sol:GMXYieldStrategy",
        "label": "rageAccountNo",
        "offset": 0,
        "slot": "157",
        "type": "t_uint256"
      },
      {
        "astId": 29301,
        "contract": "contracts/yieldStrategy/gmx/GMXYieldStrategy.sol:GMXYieldStrategy",
        "label": "collateralId",
        "offset": 0,
        "slot": "158",
        "type": "t_uint32"
      },
      {
        "astId": 29304,
        "contract": "contracts/yieldStrategy/gmx/GMXYieldStrategy.sol:GMXYieldStrategy",
        "label": "rageVPool",
        "offset": 4,
        "slot": "158",
        "type": "t_contract(IUniswapV3Pool)25808"
      },
      {
        "astId": 29306,
        "contract": "contracts/yieldStrategy/gmx/GMXYieldStrategy.sol:GMXYieldStrategy",
        "label": "depositCap",
        "offset": 0,
        "slot": "159",
        "type": "t_uint256"
      },
      {
        "astId": 29308,
        "contract": "contracts/yieldStrategy/gmx/GMXYieldStrategy.sol:GMXYieldStrategy",
        "label": "lastRebalanceTS",
        "offset": 0,
        "slot": "160",
        "type": "t_uint64"
      },
      {
        "astId": 29310,
        "contract": "contracts/yieldStrategy/gmx/GMXYieldStrategy.sol:GMXYieldStrategy",
        "label": "rebalancePriceThresholdBps",
        "offset": 8,
        "slot": "160",
        "type": "t_uint16"
      },
      {
        "astId": 29312,
        "contract": "contracts/yieldStrategy/gmx/GMXYieldStrategy.sol:GMXYieldStrategy",
        "label": "rebalanceTimeThreshold",
        "offset": 10,
        "slot": "160",
        "type": "t_uint32"
      },
      {
        "astId": 29314,
        "contract": "contracts/yieldStrategy/gmx/GMXYieldStrategy.sol:GMXYieldStrategy",
        "label": "keeper",
        "offset": 0,
        "slot": "161",
        "type": "t_address"
      },
      {
        "astId": 33338,
        "contract": "contracts/yieldStrategy/gmx/GMXYieldStrategy.sol:GMXYieldStrategy",
        "label": "baseTickLower",
        "offset": 20,
        "slot": "161",
        "type": "t_int24"
      },
      {
        "astId": 33340,
        "contract": "contracts/yieldStrategy/gmx/GMXYieldStrategy.sol:GMXYieldStrategy",
        "label": "baseTickUpper",
        "offset": 23,
        "slot": "161",
        "type": "t_int24"
      },
      {
        "astId": 33342,
        "contract": "contracts/yieldStrategy/gmx/GMXYieldStrategy.sol:GMXYieldStrategy",
        "label": "baseLiquidity",
        "offset": 0,
        "slot": "162",
        "type": "t_uint128"
      },
      {
        "astId": 33344,
        "contract": "contracts/yieldStrategy/gmx/GMXYieldStrategy.sol:GMXYieldStrategy",
        "label": "isReset",
        "offset": 16,
        "slot": "162",
        "type": "t_bool"
      },
      {
        "astId": 33346,
        "contract": "contracts/yieldStrategy/gmx/GMXYieldStrategy.sol:GMXYieldStrategy",
        "label": "closePositionSlippageSqrtToleranceBps",
        "offset": 17,
        "slot": "162",
        "type": "t_uint16"
      },
      {
        "astId": 33348,
        "contract": "contracts/yieldStrategy/gmx/GMXYieldStrategy.sol:GMXYieldStrategy",
        "label": "resetPositionThresholdBps",
        "offset": 19,
        "slot": "162",
        "type": "t_uint16"
      },
      {
        "astId": 33350,
        "contract": "contracts/yieldStrategy/gmx/GMXYieldStrategy.sol:GMXYieldStrategy",
        "label": "minNotionalPositionToCloseThreshold",
        "offset": 21,
        "slot": "162",
        "type": "t_uint64"
      },
      {
        "astId": 39104,
        "contract": "contracts/yieldStrategy/gmx/GMXYieldStrategy.sol:GMXYieldStrategy",
        "label": "_gaps",
        "offset": 0,
        "slot": "163",
        "type": "t_array(t_uint256)100_storage"
      },
      {
        "astId": 39109,
        "contract": "contracts/yieldStrategy/gmx/GMXYieldStrategy.sol:GMXYieldStrategy",
        "label": "usdcReedemSlippage",
        "offset": 0,
        "slot": "263",
        "type": "t_uint16"
      },
      {
        "astId": 39111,
        "contract": "contracts/yieldStrategy/gmx/GMXYieldStrategy.sol:GMXYieldStrategy",
        "label": "usdcConversionThreshold",
        "offset": 2,
        "slot": "263",
        "type": "t_uint240"
      },
      {
        "astId": 39114,
        "contract": "contracts/yieldStrategy/gmx/GMXYieldStrategy.sol:GMXYieldStrategy",
        "label": "glp",
        "offset": 0,
        "slot": "264",
        "type": "t_contract(IERC20)3612"
      },
      {
        "astId": 39117,
        "contract": "contracts/yieldStrategy/gmx/GMXYieldStrategy.sol:GMXYieldStrategy",
        "label": "fsGlp",
        "offset": 0,
        "slot": "265",
        "type": "t_contract(IERC20)3612"
      },
      {
        "astId": 39120,
        "contract": "contracts/yieldStrategy/gmx/GMXYieldStrategy.sol:GMXYieldStrategy",
        "label": "glpManager",
        "offset": 0,
        "slot": "266",
        "type": "t_contract(IGlpManager)31297"
      },
      {
        "astId": 39123,
        "contract": "contracts/yieldStrategy/gmx/GMXYieldStrategy.sol:GMXYieldStrategy",
        "label": "rewardRouter",
        "offset": 0,
        "slot": "267",
        "type": "t_contract(IRewardRouterV2)31476"
      },
      {
        "astId": 39126,
        "contract": "contracts/yieldStrategy/gmx/GMXYieldStrategy.sol:GMXYieldStrategy",
        "label": "stakingManager",
        "offset": 0,
        "slot": "268",
        "type": "t_contract(IGlpStakingManager)31313"
      },
      {
        "astId": 39130,
        "contract": "contracts/yieldStrategy/gmx/GMXYieldStrategy.sol:GMXYieldStrategy",
        "label": "_gaps2",
        "offset": 0,
        "slot": "269",
        "type": "t_array(t_uint256)100_storage"
      }
    ],
    "types": {
      "t_address": {
        "encoding": "inplace",
        "label": "address",
        "numberOfBytes": "20"
      },
      "t_array(t_uint256)100_storage": {
        "base": "t_uint256",
        "encoding": "inplace",
        "label": "uint256[100]",
        "numberOfBytes": "3200"
      },
      "t_array(t_uint256)45_storage": {
        "base": "t_uint256",
        "encoding": "inplace",
        "label": "uint256[45]",
        "numberOfBytes": "1440"
      },
      "t_array(t_uint256)49_storage": {
        "base": "t_uint256",
        "encoding": "inplace",
        "label": "uint256[49]",
        "numberOfBytes": "1568"
      },
      "t_array(t_uint256)50_storage": {
        "base": "t_uint256",
        "encoding": "inplace",
        "label": "uint256[50]",
        "numberOfBytes": "1600"
      },
      "t_bool": {
        "encoding": "inplace",
        "label": "bool",
        "numberOfBytes": "1"
      },
      "t_contract(ClearingHouseLens)8546": {
        "encoding": "inplace",
        "label": "contract ClearingHouseLens",
        "numberOfBytes": "20"
      },
      "t_contract(ERC20PresetMinterPauser)3854": {
        "encoding": "inplace",
        "label": "contract ERC20PresetMinterPauser",
        "numberOfBytes": "20"
      },
      "t_contract(IClearingHouse)7317": {
        "encoding": "inplace",
        "label": "contract IClearingHouse",
        "numberOfBytes": "20"
      },
      "t_contract(IERC20)3612": {
        "encoding": "inplace",
        "label": "contract IERC20",
        "numberOfBytes": "20"
      },
      "t_contract(IERC20Metadata)3718": {
        "encoding": "inplace",
        "label": "contract IERC20Metadata",
        "numberOfBytes": "20"
      },
      "t_contract(IGlpManager)31297": {
        "encoding": "inplace",
        "label": "contract IGlpManager",
        "numberOfBytes": "20"
      },
      "t_contract(IGlpStakingManager)31313": {
        "encoding": "inplace",
        "label": "contract IGlpStakingManager",
        "numberOfBytes": "20"
      },
      "t_contract(IRewardRouterV2)31476": {
        "encoding": "inplace",
        "label": "contract IRewardRouterV2",
        "numberOfBytes": "20"
      },
      "t_contract(ISwapSimulator)30850": {
        "encoding": "inplace",
        "label": "contract ISwapSimulator",
        "numberOfBytes": "20"
      },
      "t_contract(IUniswapV3Pool)25808": {
        "encoding": "inplace",
        "label": "contract IUniswapV3Pool",
        "numberOfBytes": "20"
      },
      "t_int24": {
        "encoding": "inplace",
        "label": "int24",
        "numberOfBytes": "3"
      },
      "t_mapping(t_address,t_mapping(t_address,t_uint256))": {
        "encoding": "mapping",
        "key": "t_address",
        "label": "mapping(address => mapping(address => uint256))",
        "numberOfBytes": "32",
        "value": "t_mapping(t_address,t_uint256)"
      },
      "t_mapping(t_address,t_uint256)": {
        "encoding": "mapping",
        "key": "t_address",
        "label": "mapping(address => uint256)",
        "numberOfBytes": "32",
        "value": "t_uint256"
      },
      "t_string_storage": {
        "encoding": "bytes",
        "label": "string",
        "numberOfBytes": "32"
      },
      "t_uint128": {
        "encoding": "inplace",
        "label": "uint128",
        "numberOfBytes": "16"
      },
      "t_uint16": {
        "encoding": "inplace",
        "label": "uint16",
        "numberOfBytes": "2"
      },
      "t_uint240": {
        "encoding": "inplace",
        "label": "uint240",
        "numberOfBytes": "30"
      },
      "t_uint256": {
        "encoding": "inplace",
        "label": "uint256",
        "numberOfBytes": "32"
      },
      "t_uint32": {
        "encoding": "inplace",
        "label": "uint32",
        "numberOfBytes": "4"
      },
      "t_uint64": {
        "encoding": "inplace",
        "label": "uint64",
        "numberOfBytes": "8"
      },
      "t_uint8": {
        "encoding": "inplace",
        "label": "uint8",
        "numberOfBytes": "1"
      }
    }
  }
}